:100000000C9436000C945E000C945E000C94290550
:100010000C9429050C9429050C945E000C945E0048
:100020000C945E000C945E000C945E000C945E00D8
:100030000C945E000C945E000C945E000C945E00C8
:100040000C94DF040C945E000C94AD040C948704B3
:100050000C945E000C945E000C945E000C945E00A8
:100060000C9433050C945E005D069D0911241FBE9F
:10007000CFEFD8E0DEBFCDBF22E0A8E9B1E001C0FC
:100080001D92AF3CB207E1F711E0A0E0B1E0E8ED6E
:10009000F8E102C005900D92A839B107D9F710E038
:1000A000C5E3D0E004C02197FE010E943A0AC433A0
:1000B000D107C9F70E94A1060C945F0C0C940000B4
:1000C0000895CF92DF92EF92FF920F931F93CF93F9
:1000D000DF936C017A018B01C0E0D0E0CE15DF0523
:1000E00081F0D8016D918D01D601ED91FC910190C7
:1000F000F081E02DC6010995892B11F02196EECFF4
:100100007E01C701DF91CF911F910F91FF90EF907A
:10011000DF90CF900895FC01538D448D252F30E062
:10012000842F90E0821B930B541710F0CF96089504
:1001300001970895FC01918D828D981761F0828D51
:10014000DF01A80FB11D5D968C91928D9F5F9F730B
:10015000928F90E008958FEF9FEF08952FB7F89456
:100160008091120290911302A0911402B091150295
:100170002FBF80931E0290931F02A0932002B09382
:10018000210286E192E00E949A0097FF26C02FB7D5
:10019000F8948091120290911302A0911402B091F0
:1001A00015022FBF40911E0250911F026091200244
:1001B00070912102841B950BA60BB70B40911A027C
:1001C00050911B0260911C0270911D0284179507CB
:1001D000A607B707B0F28FEF9FEF0895FC01918D4E
:1001E000828D981731F0828DE80FF11D858D90E09A
:1001F00008958FEF9FEF0895FC01918D228D892F37
:1002000090E0805C9F4F821B91098F73992708951E
:1002100086E192E00E94FC0021E0892B09F420E0B5
:10022000822F0895FC01848DDF01A80FB11DA35A10
:10023000BF4F2C91848D90E001968F739927848F06
:10024000A689B7892C93A089B1898C918370806429
:100250008C93938D848D981306C00288F389E02DCA
:1002600080818F7D80830895EF92FF920F931F937B
:10027000CF93DF93EC0181E0888F9B8D8C8D981359
:1002800005C0E889F989808185FD26C0F62E0B8D91
:1002900010E00F5F1F4F0F731127E02E8C8DE812B7
:1002A0000CC00FB607FCFACFE889F989808185FF79
:1002B000F5CFCE010E941201F1CF8B8DFE01E80F28
:1002C000F11DE35AFF4FF0829FB7F8940B8FEA8934
:1002D000FB89808180620AC09FB7F894EE89FF890C
:1002E0006083E889F98980818370806480839FBFFF
:1002F00081E090E0DF91CF911F910F91FF90EF90FF
:100300000895CF93DF93EC01888D8823C9F0EA89A3
:10031000FB89808185FD05C0A889B9898C9186FDFE
:100320000FC00FB607FCF5CF808185FFF2CFA889FB
:10033000B9898C9185FFEDCFCE010E941201E7CFE4
:10034000DF91CF91089580E090E0892B29F00E9401
:10035000080181110C94000008953FB7F894809132
:10036000060290910702A0910802B091090226B5F9
:10037000A89B05C02F3F19F00196A11DB11D3FBFDD
:10038000BA2FA92F982F8827820F911DA11DB11D6B
:10039000BC01CD0142E0660F771F881F991F4A9567
:1003A000D1F708958F929F92AF92BF92CF92DF9232
:1003B000EF92FF926B017C010E94AD014B015C0149
:1003C000C114D104E104F104F1F00E94AD01DC019B
:1003D000CB0188199909AA09BB09883E9340A10558
:1003E000B10570F321E0C21AD108E108F10888EEE6
:1003F000880E83E0981EA11CB11CC114D104E10435
:10040000F10419F7DDCFFF90EF90DF90CF90BF9010
:10041000AF909F908F90089585ED8093BC00809160
:10042000BC0084FDFCCF1092DD0108954091B9011C
:10043000262F30E0240F311D21323105DCF42091CC
:10044000DD012430C9F4FC0180E090E0861758F407
:100450003091B9012191DC01A756BE4FA30FB11D08
:100460002C930196F3CF8091B901680F6093B90185
:1004700080E0089581E0089582E0089508958FEF67
:100480009FEF08958FEF9FEF08958091980190E07E
:100490009195819591090895CF93DF93CB01EA015E
:1004A000642F0E941602CE01DF91CF910895CF9361
:1004B000DF931F92CDB7DEB7698361E0CE0101966D
:1004C0000E94160281E090E00F90DF91CF91089595
:1004D00080E090E00895CF93DF93FC012481358183
:1004E000232B71F0FB01DC01CD91DC9160817181E6
:1004F000CE010E94450C009719F08C1B9D0B02C089
:100500008FEF9FEFDF91CF910895009769F0FC0185
:1005100001900020E9F73197AF01481B590BBC014E
:1005200086E192E00C94610080E090E00895CF9322
:10053000DF930E948502EC018AE291E00E9485022D
:100540008C0F9D1FDF91CF9108958F929F92AF9254
:10055000BF92CF92DF92EF92FF920F931F93CF93B0
:10056000DF93CDB7DEB7A1970FB6F894DEBF0FBE0D
:10057000CDBF6C01990FEE08FF08F7FE2BC06DE2AE
:1005800086E192E00E9434018C0122273327A901E1
:100590002C193D094E095F0919A2CE0181967C01F3
:1005A0009AE0892E912CA12CB12CCA01B901A50188
:1005B00094010E94180A605DF70162937F01211582
:1005C00031054105510589F7CF010E948502080FC9
:1005D000191F1EC0A701960119A28E010F5D1F4FA2
:1005E0008AE0C82ED12CE12CF12CCA01B901A70157
:1005F00096010E94180A605DF80162938F0121152F
:1006000031054105510589F7CF010E9485028C0112
:100610008AE291E00E948502800F911FA1960FB699
:10062000F894DEBF0FBECDBFDF91CF911F910F9128
:10063000FF90EF90DF90CF90BF90AF909F908F9002
:1006400008950E94270CFC0180819181009711F090
:100650000C94A50960E070E0CB0108950F931F93FF
:10066000CF93DF938C01EB01FC0180819181009796
:1006700039F06881798161157105A1F40E94D80A69
:1006800088819981F801918380838A819B819383FA
:1006900082838C819D8195838483198218821B8239
:1006A0001A820FC0F801428153812C813D8142178B
:1006B000530720F30E943E0C8C819D81F8019583A5
:1006C00084831D821C82DF91CF911F910F91089529
:1006D000FC01808191810C94D80AFC012481358130
:1006E000232B31F421E061157105A1F0FB0108C055
:1006F000FC01808191816115710531F421E0FC01DB
:100700008081882339F005C00E94350C21E0892BB7
:1007100009F020E0822F0895CF93DF93DC01ED9163
:10072000FC91EB01A881B981309711F01097C9F4C1
:10073000109759F0EB012C813D81232B31F08C91E6
:1007400090E091958195910914C0309781F0DC017A
:1007500014968D919C911597892B49F0808190E09A
:1007600008C0BD01CF01DF91CF910C94350C80E022
:1007700090E0DF91CF9108950F931F93CF93DF9374
:10078000EC0188819981009729F02A813B81261705
:10079000370788F48B016F5F7F4F0E94610B0097D2
:1007A00061F0998388831B830A832C813D81232BED
:1007B00011F4FC01108281E001C080E0DF91CF9153
:1007C0001F910F910895EF92FF920F931F93CF9374
:1007D000DF93EC017B018A01BA010E94BC032881EE
:1007E000398181110DC02115310519F0C9010E940F
:1007F000D80A198218821D821C821B821A8206C0A6
:100800001D830C83B701C9010E943E0CCE01DF910C
:10081000CF911F910F91FF90EF900895FC011182ED
:10082000108213821282158214826115710551F0B3
:10083000FB0101900020E9F73197AF01461B570BF0
:100840000C94E3030895BF92CF92DF92EF92FF9250
:100850000F931F93CF93DF937C016B01EA01890112
:100860002417350720F48D2FE901042F182F6CE28F
:1008700071E0C7010E940E04D60114968D919C91DF
:100880001597C817D907C0F58017910708F48C0190
:10089000D601ED91FC911197E00FF11FB08010820D
:1008A0006D917C916C0F7D1F6115710561F0FB01ED
:1008B00001900020E9F73197AF01461B570BC701A4
:1008C0000E94E30313C0F70180819181009711F02A
:1008D0000E94D80AD70111961C921E9215961C925E
:1008E0001E92149713961C921E921297D601ED91A8
:1008F000FC91E00FF11FB082C701DF91CF911F91F2
:100900000F91FF90EF90DF90CF90BF9008951F92CE
:100910000F920FB60F9211242F933F934F935F9333
:100920006F937F938F939F93AF93BF93EF93FF93B7
:1009300086E192E00E941201FF91EF91BF91AF9189
:100940009F918F917F916F915F914F913F912F91E7
:100950000F900FBE0F901F9018951F920F920FB619
:100960000F9211242F938F939F93EF93FF93E09116
:100970002602F09127028081E0912C02F0912D0255
:1009800082FD12C0908180912F028F5F8F73209122
:100990003002821751F0E0912F02F0E0EA5EFD4F45
:1009A000958F80932F0201C08081FF91EF919F91DD
:1009B0008F912F910F900FBE0F901F9018951F923F
:1009C0000F920FB60F9211242F933F938F939F9303
:1009D000AF93BF938091120290911302A0911402E1
:1009E000B09115023091050223E0230F2D3720F43A
:1009F0000196A11DB11D05C026E8230F0296A11D79
:100A0000B11D209305028093120290931302A093CC
:100A10001402B09315028091060290910702A091F2
:100A20000802B09109020196A11DB11D8093060232
:100A300090930702A0930802B0930902BF91AF916F
:100A40009F918F913F912F910F900FBE0F901F900C
:100A500018951F920F920FB60F9211240F900FBE90
:100A60000F901F9018951F920F920FB60F9211249E
:100A70002F933F934F935F936F937F938F939F93A6
:100A8000AF93BF93EF93FF938091B900887F803637
:100A900009F49CC068F5883209F45BC090F4803199
:100AA00009F454C038F4882309F4F2C0883009F4FA
:100AB0004DC0F2C0883109F44CC0803209F45DC0E9
:100AC000EBC0803409F468C048F4803309F455C0A1
:100AD000883309F0E1C08093DC01D4C0803509F48B
:100AE0004FC0883509F45DC0883409F0D5C0D2C044
:100AF000883909F4C3C0A8F4883709F467C038F40A
:100B0000883609F463C0803709F460C0C5C08838EE
:100B100009F4B4C0803909F45FC0803809F0BCC062
:100B20005BC0803B09F484C038F4803A09F466C0A5
:100B3000883A09F47DC0B0C0803C09F4A3C0883C69
:100B400009F4A0C0883B09F486C0A6C080910202C7
:100B500010C09091010280910002981770F5E09109
:100B6000010281E08E0F80930102F0E0E052FE4F1F
:100B700080818093BB0085EC82C08093DC018AC0B9
:100B8000E091010281E08E0F809301028091BB0011
:100B9000F0E0E052FE4F80839091010280910002CC
:100BA0006AC0E091010281E08E0F80930102809182
:100BB000BB00F0E0E052FE4F80838091DF018111A5
:100BC00069C081E08093DE0184EA5DC083E08093A8
:100BD000DD011092DB01CFCF8091DB01803208F084
:100BE0004DC0E091DB0181E08E0F8093DB018091AD
:100BF000BB00F0E0E554FE4F8083BDCF85EC8093D1
:100C0000BC001092DD018091DB01803230F4E09174
:100C1000DB01F0E0E554FE4F10826091DB0170E0F3
:100C20008BEB91E0E0E0F0E009951092DB0134C03D
:100C300084E08093DD011092BA011092B901E0E0E6
:100C4000F0E009958091B901811105C081E08093A0
:100C5000B90110929901E091BA0181E08E0F809361
:100C6000BA01F0E0E756FE4F80818093BB0090917F
:100C7000BA018091B901981708F47DCF85E8809377
:100C8000BC000AC085EC8093BC001092DD0104C05A
:100C90001092DC010E940C02FF91EF91BF91AF9185
:100CA0009F918F917F916F915F914F913F912F9184
:100CB0000F900FBE0F901F901895E6E1F2E013829F
:100CC000128288EE93E0A0E0B0E084839583A6834F
:100CD000B7832AE031E03183208325EC30E035878B
:100CE000248724EC30E03787268720EC30E0318BF6
:100CF000208B21EC30E0338B228B22EC30E0358BE3
:100D0000248B26EC30E0378B268B118E128E138EBF
:100D1000148EE3EBF2E01382128284839583A68320
:100D2000B7838CE191E0918380836CE271E085EC84
:100D300092E00E940E046CE271E08FEB92E00C9462
:100D40000E04CF93DF93CDB7DEB76E970FB6F8944E
:100D5000DEBF0FBECDBF789484B5826084BD84B5FC
:100D6000816084BD85B5826085BD85B5816085BDA6
:100D700080916E00816080936E001092810080915E
:100D800081008260809381008091810081608093E6
:100D90008100809180008160809380008091B1000B
:100DA00084608093B1008091B00081608093B00036
:100DB00080917A00846080937A0080917A008260CA
:100DC00080937A0080917A00816080937A0080918C
:100DD0007A00806880937A001092C100E091260228
:100DE000F091270282E08083E0912202F0912302B9
:100DF0001082E0912402F09125028FEC8083109202
:100E00002E02E0912A02F0912B0286E08083E0918D
:100E10002802F0912902808180618083E09128027C
:100E2000F0912902808188608083E0912802F0910E
:100E30002902808180688083E0912802F091290254
:100E400080818F7D80838DE291E00E94970286E30E
:100E500091E00E94970268EE73E080E090E00E94CB
:100E6000D20186E192E00E94FC00892B09F460C166
:100E70006CE271E0CE0101960E940E040E94AE0069
:100E800097FD1EC08A309105D9F08F8318860D8199
:100E90001E810F5F1F4FB801CE0101960E94BC0357
:100EA000882361F329813A818D819E81BE01695F2A
:100EB0007F4F820F931F0E943E0C1E830D83DECF57
:100EC000BE016F5F7F4F85EC92E00E942E03CE0142
:100ED00001960E9468036CE271E085EC92E00E944A
:100EE0006D03811125C16DE371E0CE0101960E9471
:100EF0000E04BE016F5F7F4F85EC92E00E946B0293
:100F00009C0140E050E065EC72E0CE0107960E9443
:100F10002304BE01695F7F4F8FEB92E00E942E0396
:100F2000CE0107960E946803CE0101960E946803D5
:100F30000091C9021091CA026DE371E0CE010196E1
:100F40000E940E04BE016F5F7F4F85EC92E00E940D
:100F50006B02AC014F5F5F4F980165EC72E0CE0110
:100F600049960E942304CE0101960E9468032D8DAC
:100F70003E8D8091C9029091CA022817390749F421
:100F800065EC72E0CE0149960E948C03892B09F42E
:100F90005BC06DE371E0CE0101960E940E04BE01BC
:100FA0006F5F7F4FCE0149960E946B029C0140E02B
:100FB00050E0BE01675E7F4FCE0107960E9423047A
:100FC000CE0107960E9423037093110260931002D2
:100FD000CE0107960E946803CE0101960E94680325
:100FE0000D8D1E8D6DE371E0CE0101960E940E0401
:100FF000BE016F5F7F4FCE0149960E946B02AC012C
:101000004F5F5F4F9801BE01675E7F4FCE014396F1
:101010000E942304CE0101960E9468032F89388D17
:101020008D8D9E8D2817390709F085C0BE01675E3A
:101030007F4FCE0143960E948C03892B09F07BC021
:10104000CE0143960E9468034091C3025091C402AE
:101050006091BF027091C00286E192E00E9461003F
:101060008AE291E00E9485026FE371E08FEB92E0EB
:101070000E946D03882319F085E491E03DC06FE480
:1010800071E08FEB92E00E946D03882319F085E5F3
:1010900091E032C06FE571E08FEB92E00E946D034A
:1010A000882319F084E691E027C06DE671E08FEBAC
:1010B00092E00E946D038823E9F081E791E00E94AD
:1010C000970280911002909111020E94A5028091D6
:1010D0000E0290910F020E94A50280910C02909145
:1010E0000D020E94A50280910A0290910B020E94BB
:1010F000A50204C081E891E00E94970262E070E0DE
:1011000080E090E00E94D201109211021092100231
:1011100010920F0210920E0210920D0210920C0209
:1011200010920B0210920A02CE0149960E946803A7
:101130000E94A3018CCE6DE371E0CE0101960E9466
:101140000E04BE016F5F7F4FCE0143960E946B027B
:101150008C01CE0101960E9468030F3F1F4F09F4D6
:10116000C0C06DE371E0CE0101960E940E04BE0185
:101170006F5F7F4FCE0143960E946B029C0140E05F
:1011800050E0BE016D5E7F4FCE0107960E942304A2
:10119000CE0107960E94230370930F0260930E0204
:1011A000CE0107960E946803CE0101960E94680353
:1011B0000F89188D6DE371E0CE0101960E940E0437
:1011C000BE016F5F7F4FCE0143960E946B02AC0160
:1011D0004F5F5F4F9801BE016D5E7F4FCE010D9650
:1011E0000E942304CE0101960E94680329893A894E
:1011F0008F89988D2817390751F4BE016D5E7F4F96
:10120000CE010D960E948C03892B09F467C06DE313
:1012100071E0CE0101960E940E04BE016F5F7F4F08
:10122000CE010D960E946B028C01CE0101960E94A8
:1012300068030F3F1F4F09F46CC06DE371E0CE01EE
:1012400001960E940E04BE016F5F7F4FCE010D9686
:101250000E946B029C0140E050E0BE01635F7F4F43
:10126000CE0107960E942304CE0107960E94230315
:1012700070930D0260930C02CE0107960E946803E2
:10128000CE0101960E94680309891A896DE371E015
:10129000CE0101960E940E04BE016F5F7F4FCE010A
:1012A0000D960E946B02AC014F5F5F4F9801BE012B
:1012B000635F7F4FCE0107960E942304CE010796FD
:1012C0000E94230370930B0260930A02CE010796DB
:1012D0000E946803CE0101960E946803CE010D961C
:1012E00015C02F89388D40E050E0BE016D5E7F4F04
:1012F000CE0101960E942304CE0101960E94230391
:1013000070930F0260930E02CE0101960E94680353
:1013100097CE29893A8940E050E0BE01635F7F4F54
:10132000CE0101960E942304CE0101960E94230360
:1013300070930D0260930C02CDCF8FEB92E00E9470
:10134000680385EC92E00C9468031F93FC019927D5
:101350008827BC01E89411911032E9F3193010F09C
:101360001E30C8F31B3251F01D3249F4689406C098
:101370000E94CC09610F711D811D911D11911053A7
:101380001A30B0F33EF490958095709561957F4F3B
:101390008F4F9F4F1F910895592F482F372F262F7A
:1013A000660F771F881F991F660F771F881F991F69
:1013B000620F731F841F951F660F771F881F991F69
:1013C00008952F923F924F925F926F927F928F92E9
:1013D0009F92AF92BF92CF92DF92EF92FF920F93C4
:1013E0001F93CF93DF93CDB7DEB7CA1BDB0B0FB6CE
:1013F000F894DEBF0FBECDBF09942A88398848888B
:101400005F846E847D848C849B84AA84B984C88420
:10141000DF80EE80FD800C811B81AA81B981CE0F17
:10142000D11D0FB6F894DEBF0FBECDBFED010895FC
:10143000A1E21A2EAA1BBB1BFD010DC0AA1FBB1FD8
:10144000EE1FFF1FA217B307E407F50720F0A21B4A
:10145000B30BE40BF50B661F771F881F991F1A94B7
:1014600069F760957095809590959B01AC01BD01E1
:10147000CF010895EE0FFF1F0590F491E02D099420
:101480000F931F93CF93DF938230910510F482E086
:1014900090E0E091CD02F091CE0220E030E0A0E0BB
:1014A000B0E0309719F140815181028113814817D2
:1014B0005907C8F08417950769F4109731F0129610
:1014C0000C93129713961C9327C00093CD02109390
:1014D000CE0222C02115310519F04217530718F426
:1014E0009A01BD01EF01DF01F801DBCF21153105C4
:1014F000F9F0281B390B2430310580F48A819B8157
:101500006115710521F0FB019383828304C09093E0
:10151000CE028093CD02FE01329644C0FE01E20F5E
:10152000F31F8193919322503109398328833AC064
:101530002091CB023091CC02232B41F42091020167
:10154000309103013093CC022093CB022091000113
:10155000309101012115310541F42DB73EB740917D
:10156000040150910501241B350BE091CB02F09151
:10157000CC02E217F307A0F42E1B3F0B2817390704
:1015800078F0AC014E5F5F4F2417350748F04E0FDF
:101590005F1F5093CC024093CB028193919302C082
:1015A000E0E0F0E0CF01DF91CF911F910F9108951E
:1015B000CF93DF93009709F481C0FC013297138227
:1015C0001282A091CD02B091CE02109781F42081B9
:1015D0003181820F931F2091CB023091CC022817CA
:1015E000390751F5F093CC02E093CB0267C0ED01CF
:1015F00020E030E0CE17DF0740F44A815B819E0196
:1016000041155105F1F0EA01F5CFD383C283408142
:101610005181840F951FC817D90759F48881998182
:10162000840F951F0296918380838A819B81938387
:1016300082832115310529F4F093CE02E093CD0287
:101640003DC0E901FB83EA8349915991C40FD51F3D
:10165000EC17FD0761F480819181840F951F02963C
:10166000E90199838883828193819B838A83E0E067
:10167000F0E012968D919C911397009719F0FD015F
:10168000DC01F7CF8D919C9111979D012E5F3F4F0B
:10169000820F931F2091CB023091CC02281739077B
:1016A00069F4309729F41092CE021092CD0202C054
:1016B00013821282B093CC02A093CB02DF91CF9120
:1016C0000895A0E0B0E0E7E6FBE00C94E509EC014A
:1016D000009721F4CB010E94400AB4C0FC01E60F40
:1016E000F71F9C0122503109E217F30708F4A8C044
:1016F000D9010D911C91119706171707B0F005300D
:10170000110508F49BC0C80104978617970708F4D1
:1017100095C002501109061B170B019311936D938D
:101720007C93CF010E94D80A89C05B01A01AB10A3C
:101730004C01800E911EA091CD02B091CE02612C81
:10174000712CE12CF12C109709F446C08D919C91DD
:101750001197A815B905B1F56C0142E0C40ED11C72
:10176000CA14DB0478F14C018A189B08640142E03A
:10177000C40ED11C1296BC9012971396AC91B5E092
:10178000CB16D10440F0B282A38391828082D9012A
:101790006D937C9309C00E5F1F4F800F911FF9015D
:1017A00091838083EB2DFA2FE114F10431F0D701FE
:1017B0001396FC93EE93129741C0F093CE02E09300
:1017C000CD023CC06816790608F43C017D011296F2
:1017D0000D90BC91A02DB7CF8091CB029091CC02FF
:1017E00088169906E1F466167706C8F48091000120
:1017F00090910101009741F48DB79EB7409104018B
:1018000050910501841B950BE817F907C8F4F09374
:10181000CC02E093CB02F901718360830FC0CB014E
:101820000E94400A7C01009759F0A801BE010E9465
:101830002C0CCE010E94D80AC70104C0CE0102C000
:1018400080E090E0CDB7DEB7EEE00C94010A81E0D5
:1018500090E0F8940C945F0CFB01DC0102C0019055
:101860000D9241505040D8F70895FB01DC018D9155
:10187000019080190110D9F3990B0895FB01DC0147
:1018800001900D920020E1F70895FB01519155233D
:10189000A9F0BF01DC014D9145174111E1F759F461
:1018A000CD010190002049F04D9140154111C9F33F
:1018B000FB014111EFCF81E090E00197089510E026
:1018C000C5E3D0E004C0FE010E943A0A2196C63367
:0818D000D107C9F7F894FFCF1E
:1018D8000000CF02800000000000340161008B008E
:1018E8008101FC009A00EE000000000057024C0243
:1018F80068023E02450242023F020D0A004C3A20AD
:101908005265616479004C3A204C656C00230052A2
:1019180045534554004C3A2052657365742100487C
:10192800454C4C4F004C3A20576F726C6421005064
:10193800494E47004C3A20506F6E672100434D4492
:10194800004C3A20476F20746F206F726967696E88
:1019580000453A20696E76616C696420636F6D6D2D
:08196800616E644E616D6500C3
:00000001FF
