:100000000C9473000C949B000C949B000C94EB09D3
:100010000C94EB090C94EB090C949B000C949B0042
:100020000C949B000C949B000C949B000C949B00E4
:100030000C949B000C949B000C949B000C949B00D4
:100040000C9470070C949B000C94C1050C949B05B8
:100050000C949B000C949B000C949B000C949B00B4
:100060000C94F5090C949B00EB01F101F701FD01E3
:10007000030209020F02400347034E0355035C03CA
:100080007303630373036A03000000002400270066
:100090002A0000000000250028002B0000000000BE
:1000A00023002600290004040404040404040202BA
:1000B00002020202030303030303010204081020E7
:1000C00040800102040810200102040810200000F2
:1000D0000008000201000003040700000000000007
:1000E0000000A815CB0E11241FBECFEFD8E0DEBF55
:1000F000CDBF25E0A0E9B2E001C01D92AD30B2074E
:10010000E1F712E0A0E0B1E0E4E7F7E302C0059018
:100110000D92A039B107D9F710E0C2E7D0E004C0D2
:100120002197FE010E948819C137D107C9F70E94A3
:10013000D70E0C94AD1B0C9400000895CF92DF9263
:10014000EF92FF920F931F93CF93DF936C017A018D
:100150008B01C0E0D0E0CE15DF0581F0D8016D91B4
:100160008D01D601ED91FC910190F081E02DC60149
:100170000995892B11F02196EECF7E01C701DF9101
:10018000CF911F910F91FF90EF90DF90CF90089546
:10019000FC01538D448D252F30E0842F90E0821B8D
:1001A000930B541710F0CF96089501970895FC0112
:1001B000918D828D981761F0828DDF01A80FB11D9E
:1001C0005D968C91928D9F5F9F73928F90E00895C2
:1001D0008FEF9FEF0895FC01918D828D981731F07C
:1001E000828DE80FF11D858D90E008958FEF9FEFD0
:1001F0000895FC01918D228D892F90E0805C9F4FA6
:10020000821B91098F739927089589E593E00E94D5
:10021000F90021E0892B09F420E0822F0895FC01E8
:10022000848DDF01A80FB11DA35ABF4F2C91848D7F
:1002300090E001968F739927848FA689B7892C93B4
:10024000A089B1898C91837080648C93938D848D07
:10025000981306C00288F389E02D80818F7D80830A
:100260000895EF92FF920F931F93CF93DF93EC01CA
:1002700081E0888F9B8D8C8D981305C0E889F98962
:10028000808185FD26C0F62E0B8D10E00F5F1F4F7D
:100290000F731127E02E8C8DE8120CC00FB607FCEF
:1002A000FACFE889F989808185FFF5CFCE010E94D8
:1002B0000F01F1CF8B8DFE01E80FF11DE35AFF4FC7
:1002C000F0829FB7F8940B8FEA89FB898081806266
:1002D0000AC09FB7F894EE89FF896083E889F9899D
:1002E00080818370806480839FBF81E090E0DF9194
:1002F000CF911F910F91FF90EF900895CF93DF93CF
:10030000EC01888D8823C9F0EA89FB89808185FD0D
:1003100005C0A889B9898C9186FD0FC00FB607FC6E
:10032000F5CF808185FFF2CFA889B9898C9185FFAF
:10033000EDCFCE010E940F01E7CFDF91CF9108955D
:1003400080E090E0892B29F00E94050181110C9436
:1003500000000895833081F028F4813099F08230D4
:10036000A1F008958730A9F08830B9F08430D1F435
:10037000809180008F7D03C0809180008F77809373
:100380008000089584B58F7702C084B58F7D84BDC9
:1003900008958091B0008F7703C08091B0008F7D69
:1003A0008093B0000895CF93DF9347705527662759
:1003B0007727FA013197EC01A881B981E730F1057F
:1003C00020F4EC5CFF4F0C9488191496ED91FC918D
:1003D000159761E029C01496ED91FC91159765E0A1
:1003E00023C01496ED91FC91159764E01DC01496FE
:1003F000ED91FC91159766E017C01496ED91FC9174
:10040000159762E011C01496ED91FC9115976AE082
:100410000BC01496ED91FC91159768E005C01496F9
:10042000ED91FC91159769E0DF91CF910994CF93FD
:10043000DF93EC01CB01BA0126E030E040E050E070
:100440000E946919623071058105910559F18CF49A
:100450006115710581059105F1F061307105810526
:100460009105C1F5E881F9810480F581E02D65E011
:100470002DC0643071058105910511F1D4F065300E
:1004800071058105910531F5E881F9810480F581D7
:10049000E02D66E01BC0E881F9810480F581E02D44
:1004A00064E014C0E881F9810480F581E02D61E009
:1004B0000DC0E881F9810480F581E02D63E006C07C
:1004C000E881F9810480F581E02D62E0CE01DF91C1
:1004D000CF910994DF91CF910895437055276627F6
:1004E0007727DC01ED91FC910480F581E02D42300D
:1004F00051056105710571F04330510561057105C4
:1005000059F0413051056105710511F065E005C0F4
:1005100066E003C06AE001C069E00994CF93DF930D
:10052000EC01CB01BA0123E030E040E050E00E9452
:100530006919613071058105910581F0623071059D
:100540008105910591F0672B682B692BC1F4E88137
:10055000F9810480F581E02D64E00DC0E881F98126
:100560000480F581E02D61E006C0E881F981048016
:10057000F581E02D62E0CE01DF91CF910994DF910A
:10058000CF9108954370552766277727DC01ED91B9
:10059000FC910480F581E02D423051056105710523
:1005A00071F0433051056105710559F04130510535
:1005B0006105710511F062E005C063E003C061E010
:1005C00001C060E00994CF93DF93EC01E881F981E9
:1005D0000480F581E02D8A81811102C060E001C0B4
:1005E00062E0CE010995E881F9810480F581E02D72
:1005F0008A81811102C061E001C063E0CE010995EA
:100600008CA59DA58230910538F0880F991F880F21
:10061000991F05970197F1F7E881F9810480F58129
:10062000E02D8A81811102C060E001C062E0CE014C
:10063000DF91CF910994CF93DF93EC0120E030E07C
:10064000A9016C897D898E899F890E94E7181816F7
:100650001CF4E8A9F9A902C0EAA9FBA9DF91CF918E
:1006600009940F931F93DC011396EC910E2F10E069
:1006700009301105C0F5F801E55CFF4F0C948819AD
:10068000DC01ED91FC910084F185E02D29C0DC01B5
:10069000ED91FC910284F385E02D22C0DC01ED9107
:1006A000FC910484F585E02D1BC0DC01ED91FC91EB
:1006B0000684F785E02D14C0DC01ED91FC910088E3
:1006C000F189E02D0DC0DC01ED91FC910288F389E8
:1006D000E02D06C0DC01ED91FC910488F589E02D48
:1006E0001F910F9109941F910F91089585ED8093AB
:1006F000BC008091BC0084FDFCCF109234030895AF
:100700004091D002262F30E0240F311D21323105D7
:10071000DCF4209134032430C9F4FC0180E090E043
:10072000861758F43091D0022191DC01A055BD4FBD
:10073000A30FB11D2C930196F3CF8091D002680FC7
:100740006093D00280E0089581E0089582E00895EA
:10075000089508950895E0910D0380910C03E81722
:1007600030F4F0E0E057FD4F808190E008958FEF86
:100770009FEF089590910D0380910C03981750F40A
:10078000E92FF0E0E057FD4F208130E09F5F90932C
:100790000D0302C02FEF3FEFC901089580910C03B4
:1007A00090E020910D03821B91090895CF92DF9272
:1007B000EF92FF920F931F93CF93DF937C01CB01B6
:1007C0008A0120913503222389F0EB016B01C40ECD
:1007D000D51ECC15DD0569F06991D701ED91FC912D
:1007E0000190F081E02DC7010995F3CF642F0E949D
:1007F0008003C801DF91CF911F910F91FF90EF907F
:10080000DF90CF900895CF93DF931F92CDB7DEB7DF
:100810006983209135032223D1F02091580320329F
:1008200040F021E030E0FC013383228380E090E05F
:1008300015C080913603E82FF0E0E95CFC4F998108
:1008400090838F5F809336038093580305C061E0E7
:10085000CE0101960E94800381E090E00F90DF912D
:10086000CF91089580E090E008950E94751BFC01EF
:1008700080819181009711F00C943B1660E070E04C
:10088000CB010895FC0124813581232B31F421E033
:1008900061157105A1F0FB0108C0FC018081918107
:1008A0006115710531F421E0FC018081882339F064
:1008B00005C00E94831B21E0892B09F020E0822FD4
:1008C0000895CF93DF93DC01ED91FC91EB01A881BA
:1008D000B981309711F01097C9F4109759F0EB01D6
:1008E0002C813D81232B31F08C9190E09195819565
:1008F000910914C0309781F0DC0114968D919C9180
:100900001597892B49F0808190E008C0BD01CF0187
:10091000DF91CF910C94831B80E090E0DF91CF9129
:1009200008950F931F93CF93DF938C01EB01FC018C
:1009300080819181009739F0688179816115710515
:10094000A1F40E94261A88819981F80191838083FD
:100950008A819B81938382838C819D81958384830B
:10096000198218821B821A820FC0F80142815381BA
:100970002C813D814217530720F30E948C1B8C81F0
:100980009D81F801958384831D821C82DF91CF9124
:100990001F910F9108950F931F93CF93DF93EC0155
:1009A00088819981009729F02A813B812617370792
:1009B00088F48B016F5F7F4F0E94AF1A009761F040
:1009C000998388831B830A832C813D81232B11F417
:1009D000FC01108281E001C080E0DF91CF911F9186
:1009E0000F910895EF92FF920F931F93CF93DF9390
:1009F000EC017B018A01BA010E94CB042881398174
:100A000081110DC02115310519F0C9010E94261A66
:100A1000198218821D821C821B821A8206C01D83C5
:100A20000C83B701C9010E948C1BCE01DF91CF91CD
:100A30001F910F91FF90EF900895FC0180819181AB
:100A40000C94261AFC0111821082138212821582E4
:100A500014826115710551F0FB0101900020E9F746
:100A60003197AF01461B570B0C94F2040895BF92C7
:100A7000CF92DF92EF92FF920F931F93CF93DF936A
:100A80007C016B01EA0189012417350720F48D2FC1
:100A9000E901042F182F6AEA71E0C7010E942205BC
:100AA000D60114968D919C911597C817D907C0F55A
:100AB0008017910708F48C01D601ED91FC911197F4
:100AC000E00FF11FB08010826D917C916C0F7D1F43
:100AD0006115710561F0FB0101900020E9F7319784
:100AE000AF01461B570BC7010E94F20413C0F70168
:100AF00080819181009711F00E94261AD7011196EA
:100B00001C921E9215961C921E92149713961C927C
:100B10001E921297D601ED91FC91E00FF11FB08269
:100B2000C701DF91CF911F910F91FF90EF90DF9060
:100B3000CF90BF9008951F920F920FB60F9211247D
:100B40002F933F934F935F936F937F938F939F93D5
:100B5000AF93BF93EF93FF9389E593E00E940F015A
:100B6000FF91EF91BF91AF919F918F917F916F9185
:100B70005F914F913F912F910F900FBE0F901F905B
:100B800018951F920F920FB60F9211242F938F93E7
:100B90009F93EF93FF93E0916903F0916A03808143
:100BA000E0916F03F091700382FD12C090818091FB
:100BB00072038F5F8F7320917303821751F0E0915E
:100BC0007203F0E0E75AFC4F958F8093720301C0E7
:100BD0008081FF91EF919F918F912F910F900FBE88
:100BE0000F901F901895CF93DF93282F30E0F901D5
:100BF000E253FF4F8491F901E654FF4FD491F9017C
:100C0000EA55FF4FC491CC2391F081110E94AA01B3
:100C1000EC2FF0E0EE0FFF1FE456FF4FA591B491CB
:100C2000EC91ED2381E090E021F480E002C080E0CF
:100C300090E0DF91CF9108951F93CF93DF93282FFA
:100C400030E0F901E253FF4F8491F901E654FF4F80
:100C5000D491F901EA55FF4FC491CC23C1F0162F6E
:100C600081110E94AA01EC2FF0E0EE0FFF1FEE565B
:100C7000FF4FA591B4919FB7F894111104C08C91C6
:100C8000D095D82302C0EC91DE2BDC939FBFDF917F
:100C9000CF911F910895CF92DF92EF92FF920F9321
:100CA0001F93CF93DF93EC019B81943041F09830F8
:100CB00031F0933031F0963021F012E003C014E0AF
:100CC00001C013E02496E12CF12CC62ED12C01E0BA
:100CD000C6010E2C02C0959587950A94E2F76C81A7
:100CE00080FD602789910E941C068FEFE81AF80AA0
:100CF000E11670F3DF91CF911F910F91FF90EF906C
:100D0000DF90CF900895CF93DF9390E0FC01E654FD
:100D1000FF4F2491FC01EA55FF4F8491882361F134
:100D200090E0880F991FFC01E857FF4FC591D491BF
:100D3000FC01EE56FF4FA591B491611109C09FB718
:100D4000F8948881209582238883EC912E230BC010
:100D5000623061F49FB7F8948881322F30958323F5
:100D60008883EC912E2B2C939FBF06C08FB7F894ED
:100D7000E8812E2B28838FBFDF91CF910895CF93E9
:100D8000DF93FC012381222359F1EC0161E084818E
:100D90000E94830661E08D810E9483068B818430EE
:100DA00011F0883039F461E08E810E94830661E0A1
:100DB0008F8106C0833011F0863021F461E08E818E
:100DC0000E9483068FA58F3F59F061E00E94830641
:100DD0006EA581E068278FA5DF91CF910C941C064A
:100DE000DF91CF910895CF93DF93FC0123812223DC
:100DF000A9F0EC010190F081E02D0480F581E02D57
:100E000060E009958FA58F3F49F061E00E9483065D
:100E10006EA58FA5DF91CF910C941C06DF91CF9129
:100E200008953FB7F8948091F6029091F702A0914F
:100E3000F802B091F90226B5A89B05C02F3F19F022
:100E40000196A11DB11D3FBFBA2FA92F982F88274A
:100E5000820F911DA11DB11DBC01CD0142E0660FA5
:100E6000771F881F991F4A95D1F708958F929F92F7
:100E7000AF92BF92CF92DF92EF92FF926B017C0113
:100E80000E9411074B015C01C114D104E104F1047B
:100E9000F1F00E941107DC01CB0188199909AA0918
:100EA000BB09883E9340A105B10570F321E0C21A49
:100EB000D108E108F10888EE880E83E0981EA11C95
:100EC000B11CC114D104E104F10419F7DDCFFF9086
:100ED000EF90DF90CF90BF90AF909F908F9008954C
:100EE0001F920F920FB60F9211242F933F938F935F
:100EF0009F93AF93BF938091040390910503A091BA
:100F00000603B09107033091F50223E0230F2D373C
:100F100020F40196A11DB11D05C026E8230F0296FD
:100F2000A11DB11D2093F502809304039093050346
:100F3000A0930603B09307038091F6029091F70205
:100F4000A091F802B091F9020196A11DB11D809304
:100F5000F6029093F702A093F802B093F902BF91C2
:100F6000AF919F918F913F912F910F900FBE0F9056
:100F70001F90189534E0660F771F3A95E1F74111FD
:100F8000616021116460FC0126813781121613060D
:100F90000CF46860FC01848191E0909335038093A8
:100FA0005703109236031092580386EF93E00E9485
:100FB00003040C94FD0DFF920F931F93CF93DF93C7
:100FC000EC018B01F42E21E00E94BA0720E04F2DA6
:100FD000B801CE010E94BA078FE890E00197F1F7BF
:100FE000DF91CF911F910F91FF900895FF920F9382
:100FF0001F93CF93DF938C01EB01F42E84E0759562
:1010000067958A95E1F76F707727C8010E94DB0723
:10101000BE016F7077274F2DC801DF91CF911F91CF
:101020000F91FF900C94DB0770E041E00E94F607FF
:1010300081E090E008954F925F926F927F928F923D
:101040009F92AF92BF92CF92DF92EF92FF920F9357
:101050001F93CF93DF93EC01C888D988EA88FB8877
:101060008C859D85AE85BF85C81AD90AEA0AFB0A18
:101070006C897D898E899F899B01AC010E94DD1658
:101080004B015C016C8D7D8D8E8D9F8D9B01AC0124
:101090000E94D3179B01AC01C501B4010E943F1807
:1010A0000E94B118C114D104E104F10499F4623032
:1010B0007105810591050CF076C01CA21DA21EA22F
:1010C0001FA21C8A1D8A1E8A1F8A1CAA1DAA1EAA6C
:1010D0001FAAEDC00CA91DA92EA93FA91C141D040F
:1010E0001E041F04FCF410161106120613064CF41D
:1010F0006C157D058E059F054CF52A81211153C085
:1011000025C0011511052105310509F44CC06C15E8
:101110007D058E059F050CF046C08A81882309F461
:1011200042C036C01016110612061306ECF4002752
:10113000112798010C191D092E093F096017710725
:10114000820793071CF42A81222369F19B01AC01D9
:1011500088279927DC01821B930BA40BB50B8CAB62
:101160009DABAEABBFAB1FC001151105210531050D
:10117000D1F08824992454018C189D08AE08BF082A
:10118000681579058A059B0574F48A8181110BC065
:1011900030952095109501951F4F2F4F3F4F0CAB69
:1011A0001DAB2EAB3FAB8CA89DA8AEA8BFA88114E9
:1011B0009104A104B10489F488AD99ADAAADBBAD89
:1011C0008CAF9DAFAEAFBFAF81E01C141D041E04F9
:1011D0001F040CF080E08A833FC0CCACDDACEEACE9
:1011E000FFACA7019601C701B6010E94D3172B01DE
:1011F0003C01C501B4010E947E1620E030E040E8C9
:1012000050E40E94DD1620E030E040E85FE30E94F9
:10121000D3179B01AC01C301B2010E943F189B018F
:10122000AC01C701B6010E94D2173B016C01FE015F
:10123000E05CFF4FE080F180028113819701A801FB
:101240000E94E718181614F473018601C701D8012B
:101250008CAF9DAFAEAFBFAF3FEF831A930AA30A27
:10126000B30A8CAA9DAAAEAABFAACCACDDACEEACE8
:10127000FFACC701B6010E94B8186CA37DA38EA372
:101280009FA3A701960160E074E284E799E40E94BD
:101290003F186C8B7D8B8E8B9F8B2A81211107C011
:1012A000DC01CB01B0588C8B9D8BAE8BBF8BDF915B
:1012B000CF911F910F91FF90EF90DF90CF90BF9053
:1012C000AF909F908F907F906F905F904F90089518
:1012D0004F925F926F927F928F929F92AF92BF9246
:1012E000CF92DF92EF92FF92CF93DF93EC016A01EE
:1012F0007B0120E030E0A901C701B6010E9477160A
:1013000087FF04C0F7FAF094F7F8F0948C8C9D8C6A
:10131000AE8CBF8CA7019601C501B4010E9477165F
:10132000882309F449C06CA97DA98EA99FA90E94B0
:101330007E162B013C01A7019601C501B4010E9454
:101340003F189B01AC01C301B2010E94DD160E944F
:10135000B1186CAB7DAB8EAB9FABA701960160E083
:1013600070E080E090E40E943F180E94F21826E5A9
:101370003EE04DE25FE30E94DD1620E034E244E708
:1013800059E40E94DD1668AF79AF8AAF9BAFCC8E6F
:10139000DD8EEE8EFF8ECE01DF91CF91FF90EF902C
:1013A000DF90CF90BF90AF909F908F907F906F9085
:1013B0005F904F900C941B08DF91CF91FF90EF90BE
:1013C000DF90CF90BF90AF909F908F907F906F9065
:1013D0005F904F9008951F920F920FB60F921124B5
:1013E0000F900FBE0F901F9018951F920F920FB67F
:1013F0000F9211242F933F934F935F936F937F939B
:101400008F939F93AF93BF93EF93FF938091B90016
:10141000887F803609F49CC068F5883209F45BC087
:1014200090F4803109F454C038F4882309F4F6C0EC
:10143000883009F44DC0F6C0883109F44CC08032C0
:1014400009F45DC0EFC0803409F468C048F480330B
:1014500009F455C0883309F0E5C080933203D8C041
:10146000803509F44FC0883509F45DC0883409F02F
:10147000D9C0D6C0883909F4C7C0A8F4883709F4A0
:1014800067C038F4883609F463C0803709F460C057
:10149000C9C0883809F4B8C0803909F45FC0803801
:1014A00009F0C0C05BC0803B09F486C038F4803AC4
:1014B00009F466C0883A09F47FC0B4C0803C09F4DE
:1014C000A7C0883C09F4A4C0883B09F48AC0AAC01C
:1014D00080910F0310C090913103809130039817D1
:1014E00070F5E091310381E08E0F80933103F0E0DD
:1014F000E05FFC4F80818093BB0085EC86C08093C9
:1015000032038EC0E091310381E08E0F809331036E
:101510008091BB00F0E0E05FFC4F8083909131034D
:10152000809130036EC0E091310381E08E0F809393
:1015300031038091BB00F0E0E05FFC4F808380913D
:10154000330381116DC081E080930E0384EA61C092
:1015500083E0809334031092F202CFCF8091F202A5
:10156000803208F051C0E091F20281E08E0F80934A
:10157000F2028091BB00F0E0EE52FD4F8083BDCFC0
:1015800085EC8093BC00109234038091F20280328B
:1015900030F4E091F202F0E0EE52FD4F10826091E3
:1015A000F20270E0E0910803F091090382ED92E00D
:1015B00009951092F20236C084E0809334031092B1
:1015C000D1021092D002E0910A03F0910B03099529
:1015D0008091D002811105C081E08093D0021092E9
:1015E000B002E091D10281E08E0F8093D102F0E051
:1015F000E055FD4F80818093BB009091D102809196
:10160000D002981708F479CF85E88093BC000AC00F
:1016100085EC8093BC001092340304C01092320316
:101620000E947603FF91EF91BF91AF919F918F91AF
:101630007F916F915F914F913F912F910F900FBECE
:101640000F901F9018954F925F926F927F92AF927A
:10165000BF92CF92DF92EF92FF920F931F93CF939F
:10166000DF93EC015A018B019A01AB016C897D89F2
:101670008E899F890E947716882309F44CC0C88CF4
:10168000D98CEA8CFB8C2601370177FA709477F8B5
:101690007094A3019201B501C8010E94771687FDDD
:1016A0000BC0A7019601B501C8010E94E7181816E2
:1016B0002CF06501780102C07301620120E030E086
:1016C000A901C701B6010E947716811105C01CA2AD
:1016D0001DA21EA21FA21BC0A701960160E074E21A
:1016E00084E799E40E943F189F770E94B8186CA382
:1016F0007DA38EA39FA311E020E030E0A901C701E4
:10170000B6010E94E71818160CF010E01A83CC8A74
:10171000DD8AEE8AFF8ADF91CF911F910F91FF90B2
:10172000EF90DF90CF90BF90AF907F906F905F90E1
:101730004F900895CF92DF92EF92FF92CF93DF9375
:10174000EC010E9411076B017C0188A599A5AAA54F
:10175000BBA5B701A601481B590B6A0B7B0B8CA1DB
:101760009DA1AEA1BFA1481759076A077B07F8F0F2
:101770002A818C859D85AE85BF85222321F0019627
:10178000A11DB11D03C00197A109B1098C879D87D7
:10179000AE87BF874C855D856E857F85CE010E94B3
:1017A0003103C8A6D9A6EAA6FBA681E001C080E065
:1017B000DF91CF91FF90EF90DF90CF90089561E09F
:1017C000FC0180810C941C068F929F92AF92BF9275
:1017D000EF92FF920F931F93CF93DF93EC0161E0A1
:1017E00088810E94830660E08A810E9483068C8142
:1017F0009D818F3F2FEF920719F060E00E948306D2
:10180000CE010E94DF0B8E01075F1F4F20E030E00A
:101810004AE754E469A17AA18BA19CA10E947716A2
:10182000882309F43FC080E090E0AAE7B4E489A3EC
:101830009AA3ABA3BCA3FE01E75BFF4F8083918318
:10184000A283B3837E018DE3E80EF11CF701808152
:101850009181A281B381181619061A061B0614F588
:101860006D8D7E8D8F8D98A19B01AC010E94DD1640
:101870004B015C016DA17EA18FA198A59B01AC01DC
:101880000E94D3179B01AC01C501B4010E943F180F
:101890000E94B118F7016083718382839383C8012A
:1018A0000E941B0840E050E46CE176E4C8010E940D
:1018B00068091886DF91CF911F910F91FF90EF90EB
:1018C000BF90AF909F908F900895009769F0FC01B2
:1018D00001900020E9F73197AF01481B590BBC017B
:1018E00089E593E00C949E0080E090E00895CF930A
:1018F000DF930E94650CEC0188EA91E00E94650C80
:101900008C0F9D1FDF91CF9108958F929F92AF9280
:10191000BF92CF92DF92EF92FF920F931F93CF93DC
:10192000DF93CDB7DEB7A1970FB6F894DEBF0FBE39
:10193000CDBF6B017C0197FF2BC06DE289E593E081
:101940000E9431018C0122273327A9012C193D095E
:101950004E095F0919A2CE0181967C019AE0892E79
:10196000912CA12CB12CCA01B901A50194010E94AE
:101970004719605DF70162937F012115310541052B
:10198000510589F7CF010E94650C800F911F1DC082
:101990009B01AC0119A28E010F5D1F4F8AE0C82E7A
:1019A000D12CE12CF12CCA01B901A70196010E94AA
:1019B0004719605DF80162938F01211531054105DA
:1019C000510589F7CF010E94650CA1960FB6F894D6
:1019D000DEBF0FBECDBFDF91CF911F910F91FF9062
:1019E000EF90DF90CF90BF90AF909F908F90089531
:1019F0000F931F93CF93DF93EC0128858DA59EA5B0
:101A0000AFA5B8A9222381F0892B8A2B8B2BA1F0BB
:101A10008E01075F1F4FC8010E949A0B882361F057
:101A2000C8010E941B0808C0892B8A2B8B2B21F030
:101A3000CE0109960E949A0B8E819F81009709F42E
:101A400059C02CF08A810E94F305892BF9F08C8112
:101A50009D818F3F2FEF920709F44CC02E813F816B
:101A600037FF48C00E94F305892B09F043C0CE011F
:101A70000E94DF0B1F821E8240E050E0BA01CE01BF
:101A800009960E94230B80E792E02EC0CE010E94AF
:101A9000DF0B1F821E826D897E898F89988D0E943F
:101AA000850C88EA91E00E94650C1D8A1E8A1F8AB7
:101AB000188E198E1A8E1B8E1C8EFE01FD961082BA
:101AC0001182128213821DA61EA61FA618AA1D8EA1
:101AD0001E8E1F8E18A240E050E0BA01CE0109967A
:101AE0000E94230B8EE492E0DF91CF911F910F9122
:101AF0000C94770CDF91CF911F910F9108950F9364
:101B00001F93CF93DF93EC018B0118867F836E8345
:101B100060E088810E941C06B801110F880B990BA8
:101B20000E947E16AB01BC01CE010996DF91CF91D8
:101B30001F910F910C94230BCF92DF92EF92FF92A3
:101B40000F931F93CF93DF93EC018B016A011F82E8
:101B50001E8260E088810E941C0681E088877E01E9
:101B600089E0E80EF11CB601DD0C880B990B0E9490
:101B70007E16AB01BC01C7010E94230BC801110FE7
:101B8000AA0BBB0B498D5A8D6B8D7C8D84179507E5
:101B9000A607B70779F0898F9A8FAB8FBC8FC701E3
:101BA000DF91CF911F910F91FF90EF90DF90CF9039
:101BB0000C941B08DF91CF911F910F91FF90EF9034
:101BC000DF90CF900895CF93DF93FC01248135817E
:101BD000232B71F0FB01DC01CD91DC9160817181DF
:101BE000CE010E94931B009719F08C1B9D0B02C025
:101BF0008FEF9FEFDF91CF910895309158033132ED
:101C000008F04BC0809134038111FCCF90915703B1
:101C100022E02093340321E0209333032FEF20931D
:101C200032031092310330933003E7E3F3E0A0E195
:101C3000B3E020E0321721F041914D932F5FFACFAE
:101C400010920F0320910F03990F922B90930F0383
:101C500090910E03913061F410920E0390910F0356
:101C60009093BB009091BC0093FDF8CF95EC01C020
:101C700095EE9093BC00909134039230E1F39091F3
:101C800032039F3F79F080913203803241F080919E
:101C90003203803331F084E005C081E003C082E08C
:101CA00001C083E01092360310925803109235035E
:101CB000089510920D0310920C03109236031092A7
:101CC00058031092340381E08093330310920E0383
:101CD00061E082E10E941C0661E083E10E941C0633
:101CE000E9EBF0E080818E7F808380818D7F80832F
:101CF00088E48093B80085E48093BC0088EA93E090
:101D000090930B0380930A0389EA93E0909309036D
:101D10008093080308952FB7F8948091040390915D
:101D20000503A0910603B09107032FBF80936103C1
:101D300090936203A0936303B093640389E593E0F7
:101D40000E94D70097FF26C02FB7F8948091040314
:101D500090910503A0910603B09107032FBF409116
:101D60006103509162036091630370916403841B6B
:101D7000950BA60BB70B40915D0350915E036091EC
:101D80005F037091600384179507A607B707B0F249
:101D90008FEF9FEF089587EF94E00E941D058DEF70
:101DA00094E00E941D0583E095E00C941D05CF93FF
:101DB000DF93CDB7DEB76E970FB6F894DEBF0FBED8
:101DC000CDBF789484B5826084BD84B5816084BDC4
:101DD00085B5826085BD85B5816085BD80916E00C9
:101DE000816080936E0010928100809181008260FA
:101DF0008093810080918100816080938100809137
:101E000080008160809380008091B1008460809325
:101E1000B1008091B00081608093B00080917A0021
:101E2000846080937A0080917A00826080937A0047
:101E300080917A00816080937A0080917A00806836
:101E400080937A001092C100E0916903F0916A03D7
:101E500082E08083E0916503F09166031082E09157
:101E60006703F09168038FEC808310927103E09117
:101E70006D03F0916E0386E08083E0916B03F09137
:101E80006C03808180618083E0916B03F0916C032F
:101E9000808188608083E0916B03F0916C03808186
:101EA00080688083E0916B03F0916C0380818F7D6B
:101EB000808382E390E0A0E0B0E080935D039093A4
:101EC0005E03A0935F03B093600360E080E10E9433
:101ED000830661E08DE00E94830661E08DE00E9450
:101EE0001C0662E370E080E090E00E94360760E04C
:101EF0008DE00E941C0664E670E080E090E00E94A5
:101F0000360761E08DE00E941C0662E370E080E02D
:101F100090E00E94360760E08DE00E941C068AEA8D
:101F200094E00E94E40B8DE594E00E94E40B80E1D4
:101F300094E00E94E40B0E94590E81E080933503E7
:101F400087E28093570310923603109258030E9441
:101F5000FD0D90E09093FB028093FA0202E010E006
:101F600010930B0400930A040E94590E20E040E0F5
:101F700060E070E082E094E00E94BA078BE39DE0AD
:101F80000197F1F784E090E090930F0480930E04A2
:101F900010930D0400930C0440E063E070E082E0D5
:101FA00094E00E94DB078BE496E40197F1F740E0B0
:101FB00063E070E082E094E00E94DB070BE113E055
:101FC000C8010197F1F740E063E070E082E094E03F
:101FD0000E94DB07C8010197F1F740E062E070E082
:101FE00082E094E00E94DB0740E068E270E082E07B
:101FF00094E00E94F60760910E0470910F04CB01EB
:10200000846090930F0480930E046C6040E082E043
:1020100094E00E94F60740E061E070E082E094E026
:102020000E94F6078BEF98E10197F1F760910C049D
:1020300070910D04CB01826090930D0480930C0489
:10204000666040E082E094E00E94F6078BEFE82EA5
:1020500088E1F82E8AEA94E00E94F80C80E194E08E
:102060000E94F80C8DE594E00E94F80C89E593E05D
:102070000E94F900892B09F4A6C26AEA71E0CE0138
:1020800001960E9422050E948B0E97FD1EC08A3089
:102090009105D9F08F8318860D811E810F5F1F4F28
:1020A000B801CE0101960E94CB04882361F32981F7
:1020B0003A818D819E81BE01695F7F4F820F931FA0
:1020C0000E948C1B1E830D83DECFBE016F5F7F4F8E
:1020D00083E095E00E949104CE0101960E941D05C7
:1020E0006AEA71E083E095E00E94420481116BC2CC
:1020F00060E571E0CE0101960E942205BE016F5F8E
:102100007F4F83E095E00E94E30D9C0140E050E0AA
:1021100063E075E0CE0107960E943705BE01695F56
:102120007F4F8DEF94E00E949104CE0107960E94AC
:102130001D05CE0101960E941D0500910705109115
:10214000080560E571E0CE0101960E942205BE01FE
:102150006F5F7F4F83E095E00E94E30DAC014F5F1E
:102160005F4F980163E075E0CE0149960E94370504
:10217000CE0101960E941D052D8D3E8D8091070593
:10218000909108052817390749F463E075E0CE01FE
:1021900049960E946104892B09F45BC060E571E0F7
:1021A000CE0101960E942205BE016F5F7F4FCE01D6
:1021B00049960E94E30D9C0140E050E0BE01675E3D
:1021C0007F4FCE0107960E943705CE0107960E94E9
:1021D00037047093030360930203CE0107960E94B5
:1021E0001D05CE0101960E941D050D8D1E8D60E519
:1021F00071E0CE0101960E942205BE016F5F7F4F04
:10220000CE0149960E94E30DAC014F5F5F4F9801EC
:10221000BE01675E7F4FCE0143960E943705CE0117
:1022200001960E941D052F89388D8D8D9E8D281752
:10223000390709F0CBC1BE01675E7F4FCE014396DF
:102240000E946104892B09F0C1C1CE0143960E940E
:102250001D0562E571E08DEF94E00E944204882341
:1022600089F0109217041092160480E194E00E9405
:10227000DF0B1092B1041092B0048AEA94E00E943D
:10228000DF0BC7C067E571E08DEF94E00E94420468
:10229000882319F08CE591E07CC165E671E08DEF53
:1022A00094E00E9442048823D9F060910203709167
:1022B0000303072E000C880B990B0E947E164B011E
:1022C0005C0120E030E0A9010E947716882309F420
:1022D00062C1B501A40183EB94E00E9468095BC16F
:1022E0006AE671E08DEF94E00E944204882329F0B1
:1022F00060910203709103030FC06CE771E08DEFF2
:1023000094E00E944204882361F06091020370917E
:10231000030371956195710980E194E00E947F0D3E
:102320003AC16FE871E08DEF94E00E944204882387
:10233000C9F06091BF047091C004072E000C880B97
:10234000990B0E94850C84EA91E00E94650C6091D3
:10235000720470917304072E000C880B990B0E9475
:10236000850CA1C06BEA71E08DEF94E00E944204FD
:102370008823F9F04091FE025091FF02411551056A
:1023800011F448EC50E08091020390910303909384
:10239000FD028093FC026091000370910103892B80
:1023A00019F48AEA94E002C08DE594E00E949C0D45
:1023B000F2C06AEB71E08DEF94E00E944204882342
:1023C00079F100910203109103031093FD02009331
:1023D000FC0260910003709101030115110519F4CD
:1023E0008AEA94E002C08DE594E00E947F0D80911E
:1023F000000390910103892B09F0CDC0012B49F412
:102400001092B1041092B0048AEA94E00E94DF0BAB
:10241000C2C010926404109263048DE594E0F6CF7C
:102420006DEC71E08DEF94E00E944204882309F482
:102430003FC081ED91E00E94650C609102037091B4
:102440000303072E000C880B990B0E94850C87ED67
:1024500091E00E94650C6091000370910103072ECA
:10246000000C880B990B0E94850C87ED91E00E946F
:10247000650C6091FE027091FF02072E000C880B24
:10248000990B0E94850C87ED91E00E94650C4091AC
:10249000FB045091FC046091F7047091F80489E505
:1024A00093E00E949E0088EA91E00E94650C73C050
:1024B0006AED71E08DEF94E00E944204882389F078
:1024C0008091020390910303909309048093080480
:1024D00020E041E060E070E082E094E00E94BA0712
:1024E0005AC068EE71E08DEF94E00E9442048823A8
:1024F00059F040E061E070E082E094E00E94F6076D
:10250000C7010197F1F747C062EF71E08DEF94E0EA
:102510000E944204882359F040E062E070E082E0CB
:1025200094E00E94F607C7010197F1F70FC06CEF26
:1025300071E08DEF94E00E9442048823A1F040E016
:1025400060EC70E082E094E00E94F6074091FB04AA
:102550005091FC046091F7047091F80482E094E0DB
:102560000E949E0018C067E072E08DEF94E00E9428
:102570004204882361F08091FA029091FB02892B3A
:1025800019F481E192E005C082E292E002C087E3A3
:1025900092E00E94770C10920303109202031092B3
:1025A0000103109200031092FF021092FE0240E01D
:1025B00050E06AEA71E087EF94E00E94F204CE01F5
:1025C00049960E941D050E94A00144CD60E571E07E
:1025D000CE0101960E942205BE016F5F7F4FCE01A2
:1025E00043960E94E30D8C01CE0101960E941D05C9
:1025F0000F3F1F4F09F4BFC060E571E0CE010196A7
:102600000E942205BE016F5F7F4FCE0143960E945C
:10261000E30D9C0140E050E0BE016D5E7F4FCE01B6
:1026200007960E943705CE0107960E9437047093E3
:10263000010360930003CE0107960E941D05CE01A1
:1026400001960E941D050F89188D60E571E0CE018D
:1026500001960E942205BE016F5F7F4FCE01439617
:102660000E94E30DAC014F5F5F4F9801BE016D5EAC
:102670007F4FCE010D960E943705CE0101960E9434
:102680001D0529893A898F89988D2817390751F4B2
:10269000BE016D5E7F4FCE010D960E946104892BB5
:1026A00009F466C060E571E0CE0101960E94220542
:1026B000BE016F5F7F4FCE010D960E94E30D8C012E
:1026C000CE0101960E941D050F3F1F4F09F46BC0FC
:1026D00060E571E0CE0101960E942205BE016F5FA8
:1026E0007F4FCE010D960E94E30D9C0140E050E02B
:1026F000BE01635F7F4FCE0107960E943705CE0172
:1027000007960E9437047093FF026093FE02CE0189
:1027100007960E941D05CE0101960E941D0509899C
:102720001A8960E571E0CE0101960E942205BE0182
:102730006F5F7F4FCE010D960E94E30DAC014F5F9E
:102740005F4F9801BE01635F7F4FCE0107960E94E5
:102750003705BE01695F7F4F87EF94E00E949104C7
:10276000CE0107960E941D05CE0101960E941D050F
:10277000CE010D9615C02F89388D40E050E0BE0186
:102780006D5E7F4FCE0101960E943705CE01019606
:102790000E9437047093010360930003CE010196F9
:1027A0000E941D0552CD29893A8940E050E0BE01C2
:1027B000635F7F4FCE0101960E943705CE010196DF
:1027C0000E9437047093FF026093FE02CDCF2F92D8
:1027D0003F924F925F926F927F928F929F92AF92B1
:1027E000BF92CF92DF92EF92FF920F931F93CF93FE
:1027F000DF93CDB7DEB7C255D1090FB6F894DEBF6F
:102800000FBECDBF6C0162966FAF629763964FAFFC
:1028100063972F963FAF2EAF2F976196FFAEEEAE28
:1028200061977C0189E0E80EF11C8AE0282E81E0A6
:10283000382EF6013286218694E0592E5486158A68
:10284000168A178A108E118E128E138E148E158E84
:10285000168E178E10A2812C912C20E8A22E2FE329
:10286000B22E81A292A2A3A2B4A215A216A217A26E
:1028700010A681A692A6A3A6B4A615A616A617A66C
:1028800010AA66246394712C76AA65AA8FEF80AF94
:1028900011AA12AA13AA14AA82E0858783E0868768
:1028A000578645E0442E408A17AAC601CD96279642
:1028B0009FAF8EAF2797FC01108211821282138284
:1028C000049629969FAF8EAF2997FC011082118242
:1028D0001282138204962B969FAF8EAF2B97FC012A
:1028E000108211821282138204962D969FAF8EAFB2
:1028F0002D97FC0180829182A282B382F601138619
:10290000118A128A138A148AC7010E94BF06B50170
:10291000A401C7010E946809F601178216822F964A
:102920008EAD9FAD2F979183808313830283619631
:102930008EAD9FAD6197958384833A82298211E0A1
:102940001C831D861E861F86188A198A1A8A1B8A6E
:102950001C8A1D8A1E8A1F8A188E898E9A8EAB8EBB
:10296000BC8E1D8E1E8E1F8E18A289A29AA2ABA2AB
:10297000BCA21DA21EA21FA218A67EA66DA69FEF36
:1029800098AB19A61AA61BA61CA66396EFAD639773
:10299000ED836296FFAD6297FE835F8248861FA635
:1029A0001DAA1EAA1FAA18AE19AE1AAE1BAE1CAEE7
:1029B00021961CAE1DAE1EAE1FAE219725968CAE85
:1029C0009DAEAEAEBFAE25971B8219861A861B86BA
:1029D0001C86CE0101960E94BF06B501A401CE015E
:1029E00001960E9468098B81F60183878C81848718
:1029F0008D8185878E8186878F8187878885808B6B
:102A00008985818B8A85828B8B85838B8C85848B52
:102A10008D859E85AF85B889858B968BA78BB08F6A
:102A200089899A89AB89BC89818F928FA38FB48F52
:102A30008D899E89AF89B88D858F968FA78FB0A31A
:102A4000898D9A8DAB8DBC8D81A392A3A3A3B4A3D2
:102A50008D8D9E8DAF8DB8A185A396A3A7A3B0A79A
:102A600089A19AA1ABA1BCA181A792A7A3A7B4A752
:102A70008DA19EA1AFA1B8A585A796A7A7A7B0AB2A
:102A800089A59AA5ABA5BCA581AB92ABA3ABB4AB12
:102A90008DA59EA596AB85AB8FA587AB88A980AF8A
:102AA00089A99AA992AF81AF8BA99CA994AF83AF52
:102AB0008DA99EA9AFA9B8AD2796EEADFFAD27971A
:102AC00080839183A283B38389AD9AADABADBCAD56
:102AD0002996EEADFFAD299780839183A283B383BE
:102AE00021968CAD9DADAEADBFAD21972B96EEADD1
:102AF000FFAD2B9780839183A283B38325968CAD02
:102B00009DADAEADBFAD25972D96EEADFFAD2D972A
:102B100080839183A283B383F6011087CE5ADF4F5F
:102B20000FB6F894DEBF0FBECDBFDF91CF911F91DE
:102B30000F91FF90EF90DF90CF90BF90AF909F905C
:102B40008F907F906F905F904F903F902F9008955F
:102B5000EF92FF920F931F93E9E5F3E01382128245
:102B600088EE93E0A0E0B0E084839583A683B783EA
:102B700024E231E03183208325EC30E0358724875F
:102B800024EC30E03787268720EC30E0318B208B37
:102B900021EC30E0338B228B22EC30E0358B248B20
:102BA00026EC30E0378B268B118E128E138E148E0E
:102BB000E6EFF3E01382128284839583A683B783C2
:102BC00086E391E0918380836AEA71E083E095E097
:102BD0000E9422056AEA71E08DEF94E00E942205CE
:102BE0006AEA71E087EF94E00E942205EE24EA94FD
:102BF000FE2C08E010E027E030E046E050E062E024
:102C000070E08AEA94E00E94E71309E010E023E014
:102C100030E044E050E065E070E08DE594E00E9433
:102C2000E7139FE0E92EF12C0EE010E02AE030E0FF
:102C30004BE050E06CE070E080E194E00E94E7132C
:102C4000E2E0F4E01382128288E491E091838083D1
:102C500087E290E0958384831782168282E090E079
:102C60009387828784E090E0958784871F910F91F6
:102C7000FF90EF9008951F93FC0199278827BC01CE
:102C8000E89411911032E9F3193010F01E30C8F3B6
:102C90001B3251F01D3249F4689406C00E9462163E
:102CA000610F711D811D911D119110531A30B0F3E8
:102CB0003EF490958095709561957F4F8F4F9F4F13
:102CC0001F910895592F482F372F262F660F771FF2
:102CD000881F991F660F771F881F991F620F731F28
:102CE000841F951F660F771F881F991F08950E94E4
:102CF000B91608F481E00895E89409C097FB3EF402
:102D000090958095709561957F4F8F4F9F4F992338
:102D1000A9F0F92F96E9BB279395F69587957795B6
:102D20006795B795F111F8CFFAF4BB0F11F460FF76
:102D30001BC06F5F7F4F8F4F9F4F16C0882311F0CE
:102D400096E911C0772321F09EE8872F762F05C0E2
:102D5000662371F096E8862F70E060E02AF09A957D
:102D6000660F771F881FDAF7880F9695879597F972
:102D70000895990F0008550FAA0BE0E8FEEF16160C
:102D80001706E807F907C0F012161306E407F5075F
:102D900098F0621B730B840B950B39F40A2661F0D3
:102DA000232B242B252B21F408950A2609F4A14076
:102DB000A6958FEF811D811D08950E94F0160C9439
:102DC00061170E94531738F00E945A1720F095237C
:102DD00011F00C944A170C94501711240C94951769
:102DE0000E94721770F3959FC1F3950F50E0551F25
:102DF000629FF001729FBB27F00DB11D639FAA2750
:102E0000F00DB11DAA1F649F6627B00DA11D661F9E
:102E1000829F2227B00DA11D621F739FB00DA11DBF
:102E2000621F839FA00D611D221F749F3327A00D79
:102E3000611D231F849F600D211D822F762F6A2F15
:102E400011249F5750409AF0F1F088234AF0EE0F7A
:102E5000FF1FBB1F661F771F881F91505040A9F7A7
:102E60009E3F510580F00C944A170C9495175F3FD4
:102E7000E4F3983ED4F3869577956795B795F795E3
:102E8000E7959F5FC1F7FE2B880F911D969587955B
:102E900097F9089597F99F6780E870E060E00895DA
:102EA0009FEF80EC089500240A9416161706180662
:102EB0000906089500240A9412161306140605063E
:102EC0000895092E0394000C11F4882352F0BB0FCF
:102ED00040F4BF2B11F460FF04C06F5F7F4F8F4F32
:102EE0009F4F089557FD9058440F551F59F05F3F6D
:102EF00071F04795880F97FB991F61F09F3F79F01C
:102F000087950895121613061406551FF2CF46959D
:102F1000F1DF08C0161617061806991FF1CF86951F
:102F20007105610508940895E894BB276627772703
:102F3000CB0197F908952F923F924F925F926F9233
:102F40007F928F929F92AF92BF92CF92DF92EF9239
:102F5000FF920F931F93CF93DF93CDB7DEB7CA1BBA
:102F6000DB0B0FB6F894DEBF0FBECDBF09942A88E5
:102F7000398848885F846E847D848C849B84AA848D
:102F8000B984C884DF80EE80FD800C811B81AA811A
:102F9000B981CE0FD11D0FB6F894DEBF0FBECDBFE5
:102FA000ED0108955058BB27AA270E94EA170C94F8
:102FB00061170E94531738F00E945A1720F039F415
:102FC0009F3F19F426F40C9450170EF4E095E7FB9C
:102FD0000C944A17E92F0E94721758F3BA17620728
:102FE00073078407950720F079F4A6F50C949417DD
:102FF0000EF4E0950B2EBA2FA02D0B01B901900114
:103000000C01CA01A0011124FF27591B99F0593F57
:1030100050F4503E68F11A16F040A22F232F342F9F
:103020004427585FF3CF469537952795A795F040ED
:103030005395C9F77EF41F16BA0B620B730B840B02
:10304000BAF09150A1F0FF0FBB1F661F771F881FBA
:10305000C2F70EC0BA0F621F731F841F48F4879512
:1030600077956795B795F7959E3F08F0B0CF939504
:10307000880F08F09927EE0F9795879508950E947D
:1030800053180C9461170E945A1758F00E94531756
:1030900040F029F45F3F29F00C944A1751110C9429
:1030A00095170C9450170E94721768F39923B1F387
:1030B000552391F3951B550BBB27AA27621773075E
:1030C000840738F09F5F5F4F220F331F441FAA1FF2
:1030D000A9F335D00E2E3AF0E0E832D091505040AE
:1030E000E695001CCAF72BD0FE2F29D0660F771F5C
:1030F000881FBB1F261737074807AB07B0E809F042
:10310000BB0B802DBF01FF2793585F4F3AF09E3FC6
:10311000510578F00C944A170C9495175F3FE4F32F
:10312000983ED4F3869577956795B795F7959F5F09
:10313000C9F7880F911D9695879597F90895E1E055
:10314000660F771F881FBB1F621773078407BA07B4
:1031500020F0621B730B840BBA0BEE1F88F7E0950F
:1031600008950E94B8186894B1110C9495170895A9
:103170000E947A1788F09F5798F0B92F9927B75176
:10318000B0F0E1F0660F771F881F991F1AF0BA950B
:10319000C9F714C0B13091F00E949417B1E00895BE
:1031A0000C949417672F782F8827B85F39F0B93FB0
:1031B000CCF3869577956795B395D9F73EF49095BE
:1031C0008095709561957F4F8F4F9F4F08950E9416
:1031D000B91608F48FEF089519F416F40C945017EB
:1031E0000C9432190E947A17B8F39923C9F3B6F3F5
:1031F0009F57550B87FF0E9440190024A0E640EA24
:10320000900180585695979528F4805C660F771F3B
:10321000881F20F026173707480730F4621B730B0E
:10322000840B202931294A2BA69517940794202531
:1032300031254A2758F7660F771F881F20F0261779
:103240003707480730F4620B730B840B200D311DD8
:10325000411DA09581F7B901842F9158880F96954B
:10326000879508959F3F31F0915020F48795779589
:103270006795B795880F911D9695879597F908954D
:1032800091505040660F771F881FD2F70895A1E232
:103290001A2EAA1BBB1BFD010DC0AA1FBB1FEE1FD0
:1032A000FF1FA217B307E407F50720F0A21BB30B1B
:1032B000E40BF50B661F771F881F991F1A9469F797
:1032C00060957095809590959B01AC01BD01CF01F3
:1032D0000895052E97FB1EF400940E94801957FD57
:1032E00007D00E94471907FC03D04EF40C948019B4
:1032F00050954095309521953F4F4F4F5F4F089522
:1033000090958095709561957F4F8F4F9F4F089551
:10331000EE0FFF1F0590F491E02D09940F931F937A
:10332000CF93DF938230910510F482E090E0E0913A
:103330000B05F0910C0520E030E0A0E0B0E0309704
:1033400019F1408151810281138148175907C8F052
:103350008417950769F4109731F012960C93129721
:1033600013961C9327C000930B0510930C0522C0E5
:103370002115310519F04217530718F49A01BD01C0
:10338000EF01DF01F801DBCF21153105F9F0281B32
:10339000390B2430310580F48A819B8161157105D8
:1033A00021F0FB019383828304C090930C058093EA
:1033B0000B05FE01329644C0FE01E20FF31F81931C
:1033C000919322503109398328833AC0209109050D
:1033D00030910A05232B41F4209102013091030121
:1033E00030930A05209309052091000130910101D5
:1033F0002115310541F42DB73EB74091040150919C
:103400000501241B350BE0910905F0910A05E2172F
:10341000F307A0F42E1B3F0B2817390778F0AC01F7
:103420004E5F5F4F2417350748F04E0F5F1F5093D4
:103430000A05409309058193919302C0E0E0F0E012
:10344000CF01DF91CF911F910F910895CF93DF931B
:10345000009709F481C0FC01329713821282A09177
:103460000B05B0910C05109781F420813181820FFA
:10347000931F2091090530910A052817390751F546
:10348000F0930A05E093090567C0ED0120E030E004
:10349000CE17DF0740F44A815B819E01411551053B
:1034A000F1F0EA01F5CFD383C28340815181840FCB
:1034B000951FC817D90759F488819981840F951FE2
:1034C0000296918380838A819B81938382832115D5
:1034D000310529F4F0930C05E0930B053DC0E9019B
:1034E000FB83EA8349915991C40FD51FEC17FD075F
:1034F00061F480819181840F951F0296E90199837F
:103500008883828193819B838A83E0E0F0E0129636
:103510008D919C911397009719F0FD01DC01F7CF75
:103520008D919C9111979D012E5F3F4F820F931FAC
:103530002091090530910A052817390769F4309759
:1035400029F410920C0510920B0502C0138212820E
:10355000B0930A05A0930905DF91CF910895A0E0EB
:10356000B0E0E5EBFAE10C949F17EC01009721F431
:10357000CB010E948E19B4C0FC01E60FF71F9C011D
:1035800022503109E217F30708F4A8C0D9010D91C0
:103590001C91119706171707B0F00530110508F4B4
:1035A0009BC0C80104978617970708F495C002507E
:1035B0001109061B170B019311936D937C93CF0197
:1035C0000E94261A89C05B01A01AB10A4C01800E24
:1035D000911EA0910B05B0910C05612C712CE12C72
:1035E000F12C109709F446C08D919C911197A81564
:1035F000B905B1F56C0142E0C40ED11CCA14DB045C
:1036000078F14C018A189B08640142E0C40ED11C79
:103610001296BC9012971396AC91B5E0CB16D104DC
:1036200040F0B282A38391828082D9016D937C9312
:1036300009C00E5F1F4F800F911FF9019183808396
:10364000EB2DFA2FE114F10431F0D7011396FC931E
:10365000EE93129741C0F0930C05E0930B053CC02C
:103660006816790608F43C017D0112960D90BC9114
:10367000A02DB7CF8091090590910A05881699066B
:10368000E1F466167706C8F480910001909101017B
:10369000009741F48DB79EB7409104015091050108
:1036A000841B950BE817F907C8F4F0930A05E0931B
:1036B0000905F901718360830FC0CB010E948E1947
:1036C0007C01009759F0A801BE010E947A1BCE012F
:1036D0000E94261AC70104C0CE0102C080E090E01B
:1036E000CDB7DEB7EEE00C94BB1781E090E0F89424
:1036F0000C94AD1BFB01DC0102C001900D92415006
:103700005040D8F70895FB01DC018D91019080199C
:103710000110D9F3990B0895FB01DC0101900D9282
:103720000020E1F70895FB0151915523A9F0BF0155
:10373000DC014D9145174111E1F759F4CD0101909C
:10374000002049F04D9140154111C9F3FB01411191
:10375000EFCF81E090E00197089510E0C2E7D0E05C
:1037600004C0FE010E9488192196C337D107C9F70A
:04377000F894FFCFFB
:1037740000000D05800000000000F306BF064B06A4
:1037840031031B03E302C2028E026D021702D3014E
:103794000000000031019E00C8007E01F900D7003E
:1037A400EB00000000000304D6033204AA03CE0396
:1037B400BA03AB030000000014089E0032049D000D
:1037C400230053544F500050494E47004C3A205068
:1037D4006F6E6721004143434C00445241574552A8
:1037E4005F474F5F544F5F4241434B004452415740
:1037F40045525F474F5F544F5F46524F4E54004708
:1038040045545F43555252454E545F504F534954AB
:10381400494F4E00202D20000D0A00454C455641CD
:10382400544F525F474F5F544F00454C45564154E7
:103834004F525F5345545F535045454400434D44F4
:1038440000434D443A20002020004C43445F424151
:10385400434B4C49474854004C43445F434C454117
:1038640052004C43445F4649525354004C43445F16
:103874005345434F4E44004C43445F4558495354C9
:10388400004C43445F45584953543A20464F554EE3
:1038940044004C43445F45584953543A204E4F54D6
:1038A4005F464F554E4400453A20696E76616C6917
:1038B4006420636F6D6D616E644E616D6500435588
:1038C40053544F4D5F535445505045523A20476F1F
:1038D40020746F206F726967696E20646F6E650073
:1038E400435553544F4D5F535445505045523A201D
:1038F400476F20746F20656E6420646F6E650000EE
:00000001FF
