:100000000C9473000C949B000C949B000C94EB09D3
:100010000C94EB090C94EB090C949B000C949B0042
:100020000C949B000C949B000C949B000C949B00E4
:100030000C949B000C949B000C949B000C949B00D4
:100040000C9470070C949B000C94C1050C949B05B8
:100050000C949B000C949B000C949B000C949B00B4
:100060000C94F5090C949B00EB01F101F701FD01E3
:10007000030209020F02400347034E0355035C03CA
:100080007303630373036A03000000002400270066
:100090002A0000000000250028002B0000000000BE
:1000A00023002600290004040404040404040202BA
:1000B00002020202030303030303010204081020E7
:1000C00040800102040810200102040810200000F2
:1000D0000008000201000003040700000000000007
:1000E0000000C115E40E11241FBECFEFD8E0DEBF23
:1000F000CDBF25E0AAEAB2E001C01D92AD32B20741
:10010000E1F712E0A0E0B1E0E6EAF7E302C0059013
:100110000D92AA3AB107D9F710E0C2E7D0E004C0C7
:100120002197FE010E94A119C137D107C9F70E948A
:10013000F00E0C94C61B0C9400000895CF92DF9231
:10014000EF92FF920F931F93CF93DF936C017A018D
:100150008B01C0E0D0E0CE15DF0581F0D8016D91B4
:100160008D01D601ED91FC910190F081E02DC60149
:100170000995892B11F02196EECF7E01C701DF9101
:10018000CF911F910F91FF90EF90DF90CF90089546
:10019000FC01538D448D252F30E0842F90E0821B8D
:1001A000930B541710F0CF96089501970895FC0112
:1001B000918D828D981761F0828DDF01A80FB11D9E
:1001C0005D968C91928D9F5F9F73928F90E00895C2
:1001D0008FEF9FEF0895FC01918D828D981731F07C
:1001E000828DE80FF11D858D90E008958FEF9FEFD0
:1001F0000895FC01918D228D892F90E0805C9F4FA6
:10020000821B91098F739927089583E793E00E94D9
:10021000F90021E0892B09F420E0822F0895FC01E8
:10022000848DDF01A80FB11DA35ABF4F2C91848D7F
:1002300090E001968F739927848FA689B7892C93B4
:10024000A089B1898C91837080648C93938D848D07
:10025000981306C00288F389E02D80818F7D80830A
:100260000895EF92FF920F931F93CF93DF93EC01CA
:1002700081E0888F9B8D8C8D981305C0E889F98962
:10028000808185FD26C0F62E0B8D10E00F5F1F4F7D
:100290000F731127E02E8C8DE8120CC00FB607FCEF
:1002A000FACFE889F989808185FFF5CFCE010E94D8
:1002B0000F01F1CF8B8DFE01E80FF11DE35AFF4FC7
:1002C000F0829FB7F8940B8FEA89FB898081806266
:1002D0000AC09FB7F894EE89FF896083E889F9899D
:1002E00080818370806480839FBF81E090E0DF9194
:1002F000CF911F910F91FF90EF900895CF93DF93CF
:10030000EC01888D8823C9F0EA89FB89808185FD0D
:1003100005C0A889B9898C9186FD0FC00FB607FC6E
:10032000F5CF808185FFF2CFA889B9898C9185FFAF
:10033000EDCFCE010E940F01E7CFDF91CF9108955D
:1003400080E090E0892B29F00E94050181110C9436
:1003500000000895833081F028F4813099F08230D4
:10036000A1F008958730A9F08830B9F08430D1F435
:10037000809180008F7D03C0809180008F77809373
:100380008000089584B58F7702C084B58F7D84BDC9
:1003900008958091B0008F7703C08091B0008F7D69
:1003A0008093B0000895CF93DF9347705527662759
:1003B0007727FA013197EC01A881B981E730F1057F
:1003C00020F4EC5CFF4F0C94A1191496ED91FC9174
:1003D000159761E029C01496ED91FC91159765E0A1
:1003E00023C01496ED91FC91159764E01DC01496FE
:1003F000ED91FC91159766E017C01496ED91FC9174
:10040000159762E011C01496ED91FC9115976AE082
:100410000BC01496ED91FC91159768E005C01496F9
:10042000ED91FC91159769E0DF91CF910994CF93FD
:10043000DF93EC01CB01BA0126E030E040E050E070
:100440000E948219623071058105910559F18CF481
:100450006115710581059105F1F061307105810526
:100460009105C1F5E881F9810480F581E02D65E011
:100470002DC0643071058105910511F1D4F065300E
:1004800071058105910531F5E881F9810480F581D7
:10049000E02D66E01BC0E881F9810480F581E02D44
:1004A00064E014C0E881F9810480F581E02D61E009
:1004B0000DC0E881F9810480F581E02D63E006C07C
:1004C000E881F9810480F581E02D62E0CE01DF91C1
:1004D000CF910994DF91CF910895437055276627F6
:1004E0007727DC01ED91FC910480F581E02D42300D
:1004F00051056105710571F04330510561057105C4
:1005000059F0413051056105710511F065E005C0F4
:1005100066E003C06AE001C069E00994CF93DF930D
:10052000EC01CB01BA0123E030E040E050E00E9452
:100530008219613071058105910581F06230710584
:100540008105910591F0672B682B692BC1F4E88137
:10055000F9810480F581E02D64E00DC0E881F98126
:100560000480F581E02D61E006C0E881F981048016
:10057000F581E02D62E0CE01DF91CF910994DF910A
:10058000CF9108954370552766277727DC01ED91B9
:10059000FC910480F581E02D423051056105710523
:1005A00071F0433051056105710559F04130510535
:1005B0006105710511F062E005C063E003C061E010
:1005C00001C060E00994CF93DF93EC01E881F981E9
:1005D0000480F581E02D8A81811102C060E001C0B4
:1005E00062E0CE010995E881F9810480F581E02D72
:1005F0008A81811102C061E001C063E0CE010995EA
:100600008CA59DA58230910538F0880F991F880F21
:10061000991F05970197F1F7E881F9810480F58129
:10062000E02D8A81811102C060E001C062E0CE014C
:10063000DF91CF910994CF93DF93EC0120E030E07C
:10064000A9016C897D898E899F890E9400191816DD
:100650001CF4E8A9F9A902C0EAA9FBA9DF91CF918E
:1006600009940F931F93DC011396EC910E2F10E069
:1006700009301105C0F5F801E55CFF4F0C94A11994
:10068000DC01ED91FC910084F185E02D29C0DC01B5
:10069000ED91FC910284F385E02D22C0DC01ED9107
:1006A000FC910484F585E02D1BC0DC01ED91FC91EB
:1006B0000684F785E02D14C0DC01ED91FC910088E3
:1006C000F189E02D0DC0DC01ED91FC910288F389E8
:1006D000E02D06C0DC01ED91FC910488F589E02D48
:1006E0001F910F9109941F910F91089585ED8093AB
:1006F000BC008091BC0084FDFCCF10924E03089595
:100700004091EA02262F30E0240F311D21323105BD
:10071000DCF420914E032430C9F4FC0180E090E029
:10072000861758F43091EA022191DC01A653BD4F9F
:10073000A30FB11D2C930196F3CF8091EA02680FAD
:100740006093EA0280E0089581E0089582E00895D0
:10075000089508950895E091270380912603E817EE
:1007600030F4F0E0E655FD4F808190E008958FEF82
:100770009FEF08959091270380912603981750F4D6
:10078000E92FF0E0E655FD4F208130E09F5F909328
:10079000270302C02FEF3FEFC90108958091260380
:1007A00090E020912703821B91090895CF92DF9258
:1007B000EF92FF920F931F93CF93DF937C01CB01B6
:1007C0008A0120914F03222389F0EB016B01C40EB3
:1007D000D51ECC15DD0569F06991D701ED91FC912D
:1007E0000190F081E02DC7010995F3CF642F0E949D
:1007F0008003C801DF91CF911F910F91FF90EF907F
:10080000DF90CF900895CF93DF931F92CDB7DEB7DF
:10081000698320914F032223D1F02091720320326B
:1008200040F021E030E0FC013383228380E090E05F
:1008300015C080915003E82FF0E0EF5AFC4F9981EA
:1008400090838F5F809350038093720305C061E0B3
:10085000CE0101960E94800381E090E00F90DF912D
:10086000CF91089580E090E008950E948E1BFC01D6
:1008700080819181009711F00C94541660E070E033
:10088000CB010895FC0124813581232B31F421E033
:1008900061157105A1F0FB0108C0FC018081918107
:1008A0006115710531F421E0FC018081882339F064
:1008B00005C00E949C1B21E0892B09F020E0822FBB
:1008C0000895CF93DF93DC01ED91FC91EB01A881BA
:1008D000B981309711F01097C9F4109759F0EB01D6
:1008E0002C813D81232B31F08C9190E09195819565
:1008F000910914C0309781F0DC0114968D919C9180
:100900001597892B49F0808190E008C0BD01CF0187
:10091000DF91CF910C949C1B80E090E0DF91CF9110
:1009200008950F931F93CF93DF938C01EB01FC018C
:1009300080819181009739F0688179816115710515
:10094000A1F40E943F1A88819981F80191838083E4
:100950008A819B81938382838C819D81958384830B
:10096000198218821B821A820FC0F80142815381BA
:100970002C813D814217530720F30E94A51B8C81D7
:100980009D81F801958384831D821C82DF91CF9124
:100990001F910F9108950F931F93CF93DF93EC0155
:1009A00088819981009729F02A813B812617370792
:1009B00088F48B016F5F7F4F0E94C81A009761F027
:1009C000998388831B830A832C813D81232B11F417
:1009D000FC01108281E001C080E0DF91CF911F9186
:1009E0000F910895EF92FF920F931F93CF93DF9390
:1009F000EC017B018A01BA010E94CB042881398174
:100A000081110DC02115310519F0C9010E943F1A4D
:100A1000198218821D821C821B821A8206C01D83C5
:100A20000C83B701C9010E94A51BCE01DF91CF91B4
:100A30001F910F91FF90EF900895FC0180819181AB
:100A40000C943F1AFC0111821082138212821582CB
:100A500014826115710551F0FB0101900020E9F746
:100A60003197AF01461B570B0C94F2040895BF92C7
:100A7000CF92DF92EF92FF920F931F93CF93DF936A
:100A80007C016B01EA0189012417350720F48D2FC1
:100A9000E901042F182F6AEA71E0C7010E942205BC
:100AA000D60114968D919C911597C817D907C0F55A
:100AB0008017910708F48C01D601ED91FC911197F4
:100AC000E00FF11FB08010826D917C916C0F7D1F43
:100AD0006115710561F0FB0101900020E9F7319784
:100AE000AF01461B570BC7010E94F20413C0F70168
:100AF00080819181009711F00E943F1AD7011196D1
:100B00001C921E9215961C921E92149713961C927C
:100B10001E921297D601ED91FC91E00FF11FB08269
:100B2000C701DF91CF911F910F91FF90EF90DF9060
:100B3000CF90BF9008951F920F920FB60F9211247D
:100B40002F933F934F935F936F937F938F939F93D5
:100B5000AF93BF93EF93FF9383E793E00E940F015E
:100B6000FF91EF91BF91AF919F918F917F916F9185
:100B70005F914F913F912F910F900FBE0F901F905B
:100B800018951F920F920FB60F9211242F938F93E7
:100B90009F93EF93FF93E0918303F091840380810F
:100BA000E0918903F0918A0382FD12C090818091C7
:100BB0008C038F5F8F7320918D03821751F0E0912A
:100BC0008C03F0E0ED58FC4F958F80938C0301C0AF
:100BD0008081FF91EF919F918F912F910F900FBE88
:100BE0000F901F901895CF93DF93282F30E0F901D5
:100BF000E253FF4F8491F901E654FF4FD491F9017C
:100C0000EA55FF4FC491CC2391F081110E94AA01B3
:100C1000EC2FF0E0EE0FFF1FE456FF4FA591B491CB
:100C2000EC91ED2381E090E021F480E002C080E0CF
:100C300090E0DF91CF9108951F93CF93DF93282FFA
:100C400030E0F901E253FF4F8491F901E654FF4F80
:100C5000D491F901EA55FF4FC491CC23C1F0162F6E
:100C600081110E94AA01EC2FF0E0EE0FFF1FEE565B
:100C7000FF4FA591B4919FB7F894111104C08C91C6
:100C8000D095D82302C0EC91DE2BDC939FBFDF917F
:100C9000CF911F910895CF92DF92EF92FF920F9321
:100CA0001F93CF93DF93EC019B81943041F09830F8
:100CB00031F0933031F0963021F012E003C014E0AF
:100CC00001C013E02496E12CF12CC62ED12C01E0BA
:100CD000C6010E2C02C0959587950A94E2F76C81A7
:100CE00080FD602789910E941C068FEFE81AF80AA0
:100CF000E11670F3DF91CF911F910F91FF90EF906C
:100D0000DF90CF900895CF93DF9390E0FC01E654FD
:100D1000FF4F2491FC01EA55FF4F8491882361F134
:100D200090E0880F991FFC01E857FF4FC591D491BF
:100D3000FC01EE56FF4FA591B491611109C09FB718
:100D4000F8948881209582238883EC912E230BC010
:100D5000623061F49FB7F8948881322F30958323F5
:100D60008883EC912E2B2C939FBF06C08FB7F894ED
:100D7000E8812E2B28838FBFDF91CF910895CF93E9
:100D8000DF93FC012381222359F1EC0161E084818E
:100D90000E94830661E08D810E9483068B818430EE
:100DA00011F0883039F461E08E810E94830661E0A1
:100DB0008F8106C0833011F0863021F461E08E818E
:100DC0000E9483068FA58F3F59F061E00E94830641
:100DD0006EA581E068278FA5DF91CF910C941C064A
:100DE000DF91CF910895CF93DF93FC0123812223DC
:100DF000A9F0EC010190F081E02D0480F581E02D57
:100E000060E009958FA58F3F49F061E00E9483065D
:100E10006EA58FA5DF91CF910C941C06DF91CF9129
:100E200008953FB7F8948091100390911103A09119
:100E30001203B091130326B5A89B05C02F3F19F0EC
:100E40000196A11DB11D3FBFBA2FA92F982F88274A
:100E5000820F911DA11DB11DBC01CD0142E0660FA5
:100E6000771F881F991F4A95D1F708958F929F92F7
:100E7000AF92BF92CF92DF92EF92FF926B017C0113
:100E80000E9411074B015C01C114D104E104F1047B
:100E9000F1F00E941107DC01CB0188199909AA0918
:100EA000BB09883E9340A105B10570F321E0C21A49
:100EB000D108E108F10888EE880E83E0981EA11C95
:100EC000B11CC114D104E104F10419F7DDCFFF9086
:100ED000EF90DF90CF90BF90AF909F908F9008954C
:100EE0001F920F920FB60F9211242F933F938F935F
:100EF0009F93AF93BF9380911E0390911F03A09186
:100F00002003B091210330910F0323E0230F2D37ED
:100F100020F40196A11DB11D05C026E8230F0296FD
:100F2000A11DB11D20930F0380931E0390931F03F7
:100F3000A0932003B093210380911003909111039B
:100F4000A0911203B09113030196A11DB11D8093CE
:100F5000100390931103A0931203B0931303BF9156
:100F6000AF919F918F913F912F910F900FBE0F9056
:100F70001F90189534E0660F771F3A95E1F74111FD
:100F8000616021116460FC0126813781121613060D
:100F90000CF46860FC01848191E090934F0380938E
:100FA0007103109250031092720380E194E00E944A
:100FB00003040C94160EFF920F931F93CF93DF93AD
:100FC000EC018B01F42E21E00E94BA0720E04F2DA6
:100FD000B801CE010E94BA078FE890E00197F1F7BF
:100FE000DF91CF911F910F91FF900895FF920F9382
:100FF0001F93CF93DF938C01EB01F42E84E0759562
:1010000067958A95E1F76F707727C8010E94DB0723
:10101000BE016F7077274F2DC801DF91CF911F91CF
:101020000F91FF900C94DB0770E041E00E94F607FF
:1010300081E090E008954F925F926F927F928F923D
:101040009F92AF92BF92CF92DF92EF92FF920F9357
:101050001F93CF93DF93EC01C888D988EA88FB8877
:101060008C859D85AE85BF85C81AD90AEA0AFB0A18
:101070006C897D898E899F899B01AC010E94F6163F
:101080004B015C016C8D7D8D8E8D9F8D9B01AC0124
:101090000E94EC179B01AC01C501B4010E945818D5
:1010A0000E94CA18C114D104E104F10499F4623019
:1010B0007105810591050CF076C01CA21DA21EA22F
:1010C0001FA21C8A1D8A1E8A1F8A1CAA1DAA1EAA6C
:1010D0001FAAEDC00CA91DA92EA93FA91C141D040F
:1010E0001E041F04FCF410161106120613064CF41D
:1010F0006C157D058E059F054CF52A81211153C085
:1011000025C0011511052105310509F44CC06C15E8
:101110007D058E059F050CF046C08A81882309F461
:1011200042C036C01016110612061306ECF4002752
:10113000112798010C191D092E093F096017710725
:10114000820793071CF42A81222369F19B01AC01D9
:1011500088279927DC01821B930BA40BB50B8CAB62
:101160009DABAEABBFAB1FC001151105210531050D
:10117000D1F08824992454018C189D08AE08BF082A
:10118000681579058A059B0574F48A8181110BC065
:1011900030952095109501951F4F2F4F3F4F0CAB69
:1011A0001DAB2EAB3FAB8CA89DA8AEA8BFA88114E9
:1011B0009104A104B10489F488AD99ADAAADBBAD89
:1011C0008CAF9DAFAEAFBFAF81E01C141D041E04F9
:1011D0001F040CF080E08A833FC0CCACDDACEEACE9
:1011E000FFACA7019601C701B6010E94EC172B01C5
:1011F0003C01C501B4010E94971620E030E040E8B0
:1012000050E40E94F61620E030E040E85FE30E94E0
:10121000EC179B01AC01C301B2010E9458189B015D
:10122000AC01C701B6010E94EB173B016C01FE0146
:10123000E05CFF4FE080F180028113819701A801FB
:101240000E940019181614F473018601C701D80111
:101250008CAF9DAFAEAFBFAF3FEF831A930AA30A27
:10126000B30A8CAA9DAAAEAABFAACCACDDACEEACE8
:10127000FFACC701B6010E94D1186CA37DA38EA359
:101280009FA3A701960160E074E284E799E40E94BD
:1012900058186C8B7D8B8E8B9F8B2A81211107C0F8
:1012A000DC01CB01B0588C8B9D8BAE8BBF8BDF915B
:1012B000CF911F910F91FF90EF90DF90CF90BF9053
:1012C000AF909F908F907F906F905F904F90089518
:1012D0004F925F926F927F928F929F92AF92BF9246
:1012E000CF92DF92EF92FF92CF93DF93EC016A01EE
:1012F0007B0120E030E0A901C701B6010E949016F1
:1013000087FF04C0F7FAF094F7F8F0948C8C9D8C6A
:10131000AE8CBF8CA7019601C501B4010E94901646
:10132000882309F449C06CA97DA98EA99FA90E94B0
:1013300097162B013C01A7019601C501B4010E943B
:1013400058189B01AC01C301B2010E94F6160E941D
:10135000CA186CAB7DAB8EAB9FABA701960160E06A
:1013600070E080E090E40E9458180E940B1926E576
:101370003EE04DE25FE30E94F61620E034E244E7EF
:1013800059E40E94F61668AF79AF8AAF9BAFCC8E56
:10139000DD8EEE8EFF8ECE01DF91CF91FF90EF902C
:1013A000DF90CF90BF90AF909F908F907F906F9085
:1013B0005F904F900C941B08DF91CF91FF90EF90BE
:1013C000DF90CF90BF90AF909F908F907F906F9065
:1013D0005F904F9008951F920F920FB60F921124B5
:1013E0000F900FBE0F901F9018951F920F920FB67F
:1013F0000F9211242F933F934F935F936F937F939B
:101400008F939F93AF93BF93EF93FF938091B90016
:10141000887F803609F49CC068F5883209F45BC087
:1014200090F4803109F454C038F4882309F4F6C0EC
:10143000883009F44DC0F6C0883109F44CC08032C0
:1014400009F45DC0EFC0803409F468C048F480330B
:1014500009F455C0883309F0E5C080934C03D8C027
:10146000803509F44FC0883509F45DC0883409F02F
:10147000D9C0D6C0883909F4C7C0A8F4883709F4A0
:1014800067C038F4883609F463C0803709F460C057
:10149000C9C0883809F4B8C0803909F45FC0803801
:1014A00009F0C0C05BC0803B09F486C038F4803AC4
:1014B00009F466C0883A09F47FC0B4C0803C09F4DE
:1014C000A7C0883C09F4A4C0883B09F48AC0AAC01C
:1014D0008091290310C090914B0380914A03981783
:1014E00070F5E0914B0381E08E0F80934B03F0E0A9
:1014F000E65DFC4F80818093BB0085EC86C08093C5
:101500004C038EC0E0914B0381E08E0F80934B0320
:101510008091BB00F0E0E65DFC4F808390914B032F
:1015200080914A036EC0E0914B0381E08E0F80935F
:101530004B038091BB00F0E0E65DFC4F808380911F
:101540004D0381116DC081E08093280384EA61C05E
:1015500083E080934E0310920C03CFCF80910C0355
:10156000803208F051C0E0910C0381E08E0F80932F
:101570000C038091BB00F0E0E451FD4F8083BDCFB0
:1015800085EC8093BC0010924E0380910C03803256
:1015900030F4E0910C03F0E0E451FD4F10826091D3
:1015A0000C0370E0E0912203F09123038CEE92E0B3
:1015B000099510920C0336C084E080934E0310927C
:1015C000EB021092EA02E0912403F09125030995C1
:1015D0008091EA02811105C081E08093EA021092B5
:1015E000CA02E091EB0281E08E0F8093EB02F0E003
:1015F000E653FD4F80818093BB009091EB02809178
:10160000EA02981708F479CF85E88093BC000AC0F5
:1016100085EC8093BC0010924E0304C010924C03E2
:101620000E947603FF91EF91BF91AF919F918F91AF
:101630007F916F915F914F913F912F910F900FBECE
:101640000F901F9018954F925F926F927F92AF927A
:10165000BF92CF92DF92EF92FF920F931F93CF939F
:10166000DF93EC015A018B019A01AB016C897D89F2
:101670008E899F890E949016882309F44CC0C88CDB
:10168000D98CEA8CFB8C2601370177FA709477F8B5
:101690007094A3019201B501C8010E94901687FDC4
:1016A0000BC0A7019601B501C8010E9400191816C8
:1016B0002CF06501780102C07301620120E030E086
:1016C000A901C701B6010E949016811105C01CA294
:1016D0001DA21EA21FA21BC0A701960160E074E21A
:1016E00084E799E40E9458189F770E94D1186CA350
:1016F0007DA38EA39FA311E020E030E0A901C701E4
:10170000B6010E94001918160CF010E01A83CC8A5A
:10171000DD8AEE8AFF8ADF91CF911F910F91FF90B2
:10172000EF90DF90CF90BF90AF907F906F905F90E1
:101730004F900895CF92DF92EF92FF92CF93DF9375
:10174000EC010E9411076B017C0188A599A5AAA54F
:10175000BBA5B701A601481B590B6A0B7B0B8CA1DB
:101760009DA1AEA1BFA1481759076A077B07F8F0F2
:101770002A818C859D85AE85BF85222321F0019627
:10178000A11DB11D03C00197A109B1098C879D87D7
:10179000AE87BF874C855D856E857F85CE010E94B3
:1017A0003103C8A6D9A6EAA6FBA681E001C080E065
:1017B000DF91CF91FF90EF90DF90CF90089561E09F
:1017C000FC0180810C941C068F929F92AF92BF9275
:1017D000EF92FF920F931F93CF93DF93EC0161E0A1
:1017E00088810E94830660E08A810E9483068C8142
:1017F0009D818F3F2FEF920719F060E00E948306D2
:10180000CE010E94DF0B8E01055F1F4F20E030E00C
:1018100048EC53E46BA17CA18DA19EA10E9490167F
:10182000882309F443C080E090E0A8ECB3E48BA3E4
:101830009CA3ADA3BEA380E090E4ACE1B5E4FE01BF
:10184000E55BFF4F80839183A283B3837E018FE3A7
:10185000E80EF11CF70180819181A281B3811816F5
:1018600019061A061B0614F56F8D78A189A19AA195
:101870009B01AC010E94F6164B015C016FA178A59B
:1018800089A59AA59B01AC010E94EC179B01AC01B4
:10189000C501B4010E9458180E94CA18F70160835C
:1018A000718382839383C8010E941B0840E050E447
:1018B0006CE176E4C8010E9468091886DF91CF9137
:1018C0001F910F91FF90EF90BF90AF909F908F90DE
:1018D0000895009769F0FC0101900020E9F7319725
:1018E000AF01481B590BBC0183E793E00C949E00A9
:1018F00080E090E00895CF93DF930E94690CEC01A3
:1019000088EA91E00E94690C8C0F9D1FDF91CF91B6
:1019100008958F929F92AF92BF92CF92DF92EF92F3
:10192000FF920F931F93CF93DF93CDB7DEB7A197AD
:101930000FB6F894DEBF0FBECDBF6B017C0197FFE1
:101940002BC06DE283E793E00E9431018C012227D6
:101950003327A9012C193D094E095F0919A2CE01AF
:1019600081967C019AE0892E912CA12CB12CCA0180
:10197000B901A50194010E946019605DF7016293AD
:101980007F01211531054105510589F7CF010E94DD
:10199000690C800F911F1DC09B01AC0119A28E0123
:1019A0000F5D1F4F8AE0C82ED12CE12CF12CCA010B
:1019B000B901A70196010E946019605DF801629368
:1019C0008F01211531054105510589F7CF010E948D
:1019D000690CA1960FB6F894DEBF0FBECDBFDF91A4
:1019E000CF911F910F91FF90EF90DF90CF90BF901C
:1019F000AF909F908F9008950F931F93CF93DF9395
:101A0000EC0128858FA598A9A9A9BAA9222329F1B3
:101A1000892B8A2B8B2B59F08E01055F1F4FC80134
:101A20000E949A0B882319F0C8010E941B0889851F
:101A30009A85092E000CAA0BBB0B4F89588D698D16
:101A40007A8D84179507A607B70779F48EE492E09C
:101A50000E947B0C1A86198608C0892B8A2B8B2B37
:101A600021F0CE010B960E949A0B8E819F810097E8
:101A700009F457C0A4F18A810E94F305892B79F5F6
:101A8000CE010E94DF0B1F821E826F89788D898DA7
:101A90009A8D0E94890C88EA91E00E94690C1F8A45
:101AA000188E198E1A8E1B8E1C8E1D8E1E8EFE0198
:101AB000FF9610821182128213821FA618AA19AAF9
:101AC0001AAA1F8E18A219A21AA240E050E0BA0169
:101AD000CE010B960E94230B89E692E01CC08C81FC
:101AE0009D818F3F2FEF9207E1F02E813F8137FFDD
:101AF00018C00E94F305892BA1F4CE010E94DF0BD0
:101B00001F821E8240E050E0BA01CE010B960E9477
:101B1000230B8BE892E0DF91CF911F910F910C94F2
:101B20007B0CDF91CF911F910F9108950F931F931D
:101B3000CF93DF93EC018B0118867F836E8360E087
:101B400088810E941C06B801110F880B990B0E9416
:101B50009716AB01BC01CE010B96DF91CF911F917F
:101B60000F910C94230BCF92DF92EF92FF920F9381
:101B70001F93CF93DF93EC018B016A011F821E82BA
:101B800060E088810E941C0681E088871A870987A7
:101B90007E018BE0E80EF11CB601DD0C880B990B81
:101BA0000E949716AB01BC01C7010E94230BC8011C
:101BB000110FAA0BBB0B4B8D5C8D6D8D7E8D841729
:101BC0009507A607B70779F08B8F9C8FAD8FBE8FD7
:101BD000C701DF91CF911F910F91FF90EF90DF90A0
:101BE000CF900C941B08DF91CF911F910F91FF9024
:101BF000EF90DF90CF900895CF93DF93FC01248185
:101C00003581232B71F0FB01DC01CD91DC916081EA
:101C10007181CE010E94AC1B009719F08C1B9D0BAB
:101C200002C08FEF9FEFDF91CF9108953091720343
:101C3000313208F04BC080914E038111FCCF90915E
:101C4000710322E020934E0321E020934D032FEFF8
:101C500020934C0310924B0330934A03E1E5F3E0E9
:101C6000AAE2B3E020E0321721F041914D932F5FBB
:101C7000FACF1092290320912903990F922B909368
:101C8000290390912803913061F4109228039091D8
:101C900029039093BB009091BC0093FDF8CF95EC85
:101CA00001C095EE9093BC0090914E039230E1F309
:101CB00090914C039F3F79F080914C03803241F02A
:101CC00080914C03803331F084E005C081E003C093
:101CD00082E001C083E010925003109272031092D0
:101CE0004F03089510922703109226031092500379
:101CF0001092720310924E0381E080934D03109274
:101D0000280361E082E10E941C0661E083E10E94F9
:101D10001C06E9EBF0E080818E7F808380818D7FDF
:101D2000808388E48093B80085E48093BC0088EACF
:101D300093E0909325038093240389EA93E09093A2
:101D400023038093220308952FB7F89480911E03F4
:101D500090911F03A0912003B09121032FBF809386
:101D60007B0390937C03A0937D03B0937E0383E772
:101D700093E00E94D70097FF26C02FB7F894809178
:101D80001E0390911F03A0912003B09121032FBF48
:101D900040917B0350917C0360917D0370917E03A1
:101DA000841B950BA60BB70B4091770350917803DA
:101DB0006091790370917A0384179507A607B70796
:101DC000B0F28FEF9FEF089587E195E00E941D0527
:101DD0008DE195E00E941D0583E295E00C941D05C0
:101DE000CF93DF93CDB7DEB76E970FB6F894DEBF13
:101DF0000FBECDBF789484B5826084BD84B5816008
:101E000084BD85B5826085BD85B5816085BD8091C5
:101E10006E00816080936E0010928100809181003D
:101E20008260809381008091810081608093810035
:101E3000809180008160809380008091B1008460F7
:101E40008093B1008091B00081608093B000809158
:101E50007A00846080937A0080917A008260809317
:101E60007A0080917A00816080937A0080917A0074
:101E7000806880937A001092C100E0918303F09112
:101E8000840382E08083E0917F03F09180031082DD
:101E9000E0918103F09182038FEC808310928B0399
:101EA000E0918703F091880386E08083E0918503C9
:101EB000F0918603808180618083E0918503F091B9
:101EC0008603808188608083E0918503F09186039A
:101ED000808180688083E0918503F0918603808112
:101EE0008F7D808382E390E0A0E0B0E08093770371
:101EF00090937803A0937903B0937A0360E080E134
:101F00000E94830661E08DE00E94830661E08DE01F
:101F10000E941C0662E370E080E090E00E943607B9
:101F200060E08DE00E941C0664E670E080E090E0D6
:101F30000E94360761E08DE00E941C0662E370E0BB
:101F400080E090E00E94360760E08DE00E941C0671
:101F500088EC94E00E94E40B89E794E00E94E40B93
:101F60008AE294E00E94E40B0E94720E81E080936A
:101F70004F0387E280937103109250031092720313
:101F80000E94160E90E0909315038093140302E0D4
:101F900010E010932504009324040E94720E20E0A8
:101FA00040E060E070E08CE194E00E94BA078BE3CF
:101FB0009DE00197F1F784E090E0909329048093ED
:101FC0002804109327040093260440E063E070E0A7
:101FD0008CE194E00E94DB078BE496E40197F1F733
:101FE00040E063E070E08CE194E00E94DB070BE1ED
:101FF00013E0C8010197F1F740E063E070E08CE185
:1020000094E00E94DB07C8010197F1F740E062E02D
:1020100070E08CE194E00E94DB0740E068E270E051
:102020008CE194E00E94F6076091280470912904E5
:10203000CB01846090932904809328046C6040E075
:102040008CE194E00E94F60740E061E070E08CE1F2
:1020500094E00E94F6078BEF98E10197F1F7609109
:10206000260470912704CB0182609093270480930B
:102070002604666040E08CE194E00E94F6078BEF56
:10208000E82E88E1F82E88EC94E00E94FC0C8AE2AD
:1020900094E00E94FC0C89E794E00E94FC0C83E72A
:1020A00093E00E94F900892B09F4A6C26AEA71E064
:1020B000CE0101960E9422050E94A40E97FD1EC02B
:1020C0008A309105D9F08F8318860D811E810F5FAC
:1020D0001F4FB801CE0101960E94CB04882361F303
:1020E00029813A818D819E81BE01695F7F4F820F78
:1020F000931F0E94A51B1E830D83DECFBE016F5F61
:102100007F4F83E295E00E949104CE0101960E94E8
:102110001D056AEA71E083E295E00E9442048111A4
:102120006BC260E571E0CE0101960E942205BE01FE
:102130006F5F7F4F83E295E00E94FC0D9C0140E0C1
:1021400050E063E275E0CE0107960E943705BE01BC
:10215000695F7F4F8DE195E00E949104CE01079663
:102160000E941D05CE0101960E941D0500912705C4
:102170001091280560E571E0CE0101960E942205CC
:10218000BE016F5F7F4F83E295E00E94FC0DAC01C2
:102190004F5F5F4F980163E275E0CE0149960E9460
:1021A0003705CE0101960E941D052D8D3E8D809133
:1021B0002705909128052817390749F463E275E04F
:1021C000CE0149960E946104892B09F45BC060E549
:1021D00071E0CE0101960E942205BE016F5F7F4F24
:1021E000CE0149960E94FC0D9C0140E050E0BE01EA
:1021F000675E7F4FCE0107960E943705CE01079696
:102200000E94370470931D0360931C03CE01079650
:102210000E941D05CE0101960E941D050D8D1E8D8B
:1022200060E571E0CE0101960E942205BE016F5F5C
:102230007F4FCE0149960E94FC0DAC014F5F5F4F6E
:102240009801BE01675E7F4FCE0143960E9437051D
:10225000CE0101960E941D052F89388D8D8D9E8D92
:102260002817390709F0CBC1BE01675E7F4FCE0149
:1022700043960E946104892B09F0C1C1CE014396A7
:102280000E941D0562E571E08DE195E00E94420427
:10229000882389F010923104109230048AE294E08D
:1022A0000E94DF0B1092CF041092CE0488EC94E0D1
:1022B0000E94DF0BC7C067E571E08DE195E00E94E9
:1022C0004204882319F08CE591E07CC165E671E059
:1022D0008DE195E00E9442048823D9F060911C03AF
:1022E00070911D03072E000C880B990B0E94971606
:1022F0004B015C0120E030E0A9010E949016882388
:1023000009F462C1B501A40183ED94E00E9468095B
:102310005BC16AE671E08DE195E00E94420488238A
:1023200029F060911C0370911D030FC06CE771E0F0
:102330008DE195E00E944204882361F060911C03C6
:1023400070911D037195619571098AE294E00E9474
:10235000960D3AC16FE871E08DE195E00E9442046C
:102360008823C9F06091DF047091E004072E000C0F
:10237000880B990B0E94890C84EA91E00E94690CF9
:102380006091900470919104072E000C880B990BBA
:102390000E94890CA1C06BEA71E08DE195E00E947A
:1023A00042048823F9F04091180350911903411514
:1023B000510511F448EC50E080911C0390911D03ED
:1023C000909317038093160360911A0370911B0377
:1023D000892B19F488EC94E002C089E794E00E940C
:1023E000B30DF2C06AEB71E08DE195E00E9442040A
:1023F000882379F100911C0310911D03109317039A
:102400000093160360911A0370911B0301151105C7
:1024100019F488EC94E002C089E794E00E94960DDC
:1024200080911A0390911B03892B09F0CDC0012BD9
:1024300049F41092CF041092CE0488EC94E00E94EC
:10244000DF0BC2C01092800410927F0489E794E0F1
:10245000F6CF6DEC71E08DE195E00E944204882397
:1024600009F43FC081ED91E00E94690C60911C036A
:1024700070911D03072E000C880B990B0E94890C8C
:1024800087ED91E00E94690C60911A0370911B0323
:10249000072E000C880B990B0E94890C87ED91E0A8
:1024A0000E94690C6091180370911903072E000CAB
:1024B000880B990B0E94890C87ED91E00E94690CB2
:1024C00040911B0550911C056091170570911805EE
:1024D00083E793E00E949E0088EA91E00E94690CE5
:1024E00073C06AED71E08DE195E00E94420488239B
:1024F00089F080911C0390911D0390932304809395
:10250000220420E041E060E070E08CE194E00E9471
:10251000BA075AC068EE71E08DE195E00E9442046E
:10252000882359F040E061E070E08CE194E00E9483
:10253000F607C7010197F1F747C062EF71E08DE13F
:1025400095E00E944204882359F040E062E070E088
:102550008CE194E00E94F607C7010197F1F70FC0E4
:102560006CEF71E08DE195E00E9442048823A1F0B8
:1025700040E060EC70E08CE194E00E94F60740914E
:102580001B0550911C0560911705709118058CE191
:1025900094E00E949E0018C067E072E08DE195E033
:1025A0000E944204882361F08091140390911503E6
:1025B000892B19F481E192E005C082E292E002C029
:1025C00087E392E00E947B0C10921D0310921C0383
:1025D00010921B0310921A03109219031092180301
:1025E00040E050E06AEA71E087E195E00E94F20481
:1025F000CE0149960E941D050E94A00144CD60E5D0
:1026000071E0CE0101960E942205BE016F5F7F4FEF
:10261000CE0143960E94FC0D8C01CE0101960E94D2
:102620001D050F3F1F4F09F4BFC060E571E0CE01EB
:1026300001960E942205BE016F5F7F4FCE01439637
:102640000E94FC0D9C0140E050E0BE016D5E7F4F9A
:10265000CE0107960E943705CE0107960E943704E7
:1026600070931B0360931A03CE0107960E941D0509
:10267000CE0101960E941D050F89188D60E571E05D
:10268000CE0101960E942205BE016F5F7F4FCE01F1
:1026900043960E94FC0DAC014F5F5F4F9801BE0155
:1026A0006D5E7F4FCE010D960E943705CE010196DB
:1026B0000E941D0529893A898F89988D2817390725
:1026C00051F4BE016D5E7F4FCE010D960E946104F4
:1026D000892B09F466C060E571E0CE0101960E9485
:1026E0002205BE016F5F7F4FCE010D960E94FC0D4B
:1026F0008C01CE0101960E941D050F3F1F4F09F46A
:102700006BC060E571E0CE0101960E942205BE011A
:102710006F5F7F4FCE010D960E94FC0D9C0140E043
:1027200050E0BE01635F7F4FCE0107960E943705E0
:10273000CE0107960E943704709319036093180323
:10274000CE0107960E941D05CE0101960E941D052F
:1027500009891A8960E571E0CE0101960E9422057F
:10276000BE016F5F7F4FCE010D960E94FC0DAC0144
:102770004F5F5F4F9801BE01635F7F4FCE010796A9
:102780000E943705BE01695F7F4F87E195E00E9497
:102790009104CE0107960E941D05CE0101960E946C
:1027A0001D05CE010D9615C02F89388D40E050E0F3
:1027B000BE016D5E7F4FCE0101960E943705CE01AE
:1027C00001960E94370470931B0360931A03CE0195
:1027D00001960E941D0552CD29893A8940E050E0BA
:1027E000BE01635F7F4FCE0101960E943705CE0187
:1027F00001960E9437047093190360931803CDCF9C
:102800002F923F924F925F926F927F928F929F9200
:10281000AF92BF92CF92DF92EF92FF920F931F93EE
:10282000CF93DF93CDB7DEB7C255D1090FB6F89479
:10283000DEBF0FBECDBF6C0162966FAF629763962D
:102840004FAF63972F963FAF2EAF2F976196FFAE96
:10285000EEAE61977C018BE0E80EF11C8AE0282E39
:1028600081E0382EF6013486238694E0592E568670
:10287000178A108E118E128E138E148E158E168E50
:10288000178E10A211A212A2812C912C20E8A22E48
:102890002FE3B22E83A294A2A5A2B6A217A210A6DD
:1028A00011A612A683A694A6A5A6B6A617A610AA38
:1028B00011AA12AA66246394712C70AE67AA8FEFD6
:1028C00082AF13AA14AA15AA16AA82E0878783E00A
:1028D000808B518A45E0442E428A11AEC601CF96C4
:1028E00027969FAF8EAF2797FC011082118212822C
:1028F0001382049629969FAF8EAF2997FC01108210
:1029000011821282138204962B969FAF8EAF2B9763
:10291000FC01108211821282138204962D969FAFC1
:102920008EAF2D97FC0180829182A282B382F60144
:102930001586138A148A158A168AC7010E94BF0653
:10294000B501A401C7010E946809F6011782168229
:102950002F968EAD9FAD2F97918380831383028333
:1029600061968EAD9FAD6197958384833A8229826B
:1029700011E01C831D861E861F86188A198A1A8AF2
:102980001B8A1C8A1D8A1E8A1F8A188E898E9A8E1F
:10299000AB8EBC8E1D8E1E8E1F8E18A289A29AA28F
:1029A000ABA2BCA21DA21EA21FA218A67EA66DA647
:1029B0009FEF98AB19A61AA61BA61CA66396EFADAF
:1029C0006397ED836296FFAD6297FE835F824886D0
:1029D0001FA61DAA1EAA1FAA18AE19AE1AAE1BAEBC
:1029E0001CAE21961CAE1DAE1EAE1FAE21972596C5
:1029F0008CAE9DAEAEAEBFAE25971B8219861A86F1
:102A00001B861C86CE0101960E94BF06B501A4015B
:102A1000CE0101960E9468098B81F60185878C8121
:102A200086878D8187878E81808B8F81818B88853A
:102A3000828B8985838B8A85848B8B85858B8C851E
:102A4000868B8D859E85AF85B889878B908FA18F6A
:102A5000B28F89899A89AB89BC89838F948FA58F1E
:102A6000B68F8D899E89AF89B88D878F90A3A1A3DA
:102A7000B2A3898D9A8DAB8DBC8D83A394A3A5A39E
:102A8000B6A38D8D9E8DAF8DB8A187A390A7A1A76A
:102A9000B2A789A19AA1ABA1BCA183A794A7A5A71E
:102AA000B6A78DA19EA1AFA1B8A587A790ABA1ABFA
:102AB000B2AB89A59AA5ABA5BCA583AB94ABA5ABDE
:102AC000B6AB8DA59EA590AF87AB8FA581AF88A92A
:102AD00082AF89A99AA994AF83AF8BA99CA996AF1D
:102AE00085AF8DA99EA9AFA9B8AD2796EEADFFAD74
:102AF000279780839183A283B38389AD9AADABADD1
:102B0000BCAD2996EEADFFAD299780839183A2835A
:102B1000B38321968CAD9DADAEADBFAD21972B9605
:102B2000EEADFFAD2B9780839183A283B38325966F
:102B30008CAD9DADAEADBFAD25972D96EEADFFAD85
:102B40002D9780839183A283B383F6011087CE5A99
:102B5000DF4F0FB6F894DEBF0FBECDBFDF91CF9130
:102B60001F910F91FF90EF90DF90CF90BF90AF90AB
:102B70009F908F907F906F905F904F903F902F909D
:102B80000895EF92FF920F931F93E3E7F3E0138210
:102B9000128288EE93E0A0E0B0E084839583A68360
:102BA000B78324E231E03183208325EC30E03587A0
:102BB000248724EC30E03787268720EC30E0318B07
:102BC000208B21EC30E0338B228B22EC30E0358BF4
:102BD000248B26EC30E0378B268B118E128E138ED1
:102BE000148EE0E1F4E01382128284839583A6833D
:102BF000B78386E391E0918380836AEA71E083E2A0
:102C000095E00E9422056AEA71E08DE195E00E945C
:102C100022056AEA71E087E195E00E942205EE2430
:102C2000EA94FE2C08E010E027E030E046E050E0B7
:102C300062E070E088EC94E00E94001409E010E08B
:102C400023E030E044E050E065E070E089E794E0A4
:102C50000E9400149FE0E92EF12C0EE010E02AE023
:102C600030E04BE050E06CE070E08AE294E00E94DB
:102C70000014ECE1F4E01382128288E491E0918385
:102C8000808387E290E0958384831782168282E0B6
:102C900090E09387828784E090E0958784871F91F6
:102CA0000F91FF90EF9008951F93FC0199278827BB
:102CB000BC01E89411911032E9F3193010F01E3084
:102CC000C8F31B3251F01D3249F4689406C00E94CB
:102CD0007B16610F711D811D911D119110531A30CA
:102CE000B0F33EF490958095709561957F4F8F4F2E
:102CF0009F4F1F910895592F482F372F262F660F6A
:102D0000771F881F991F660F771F881F991F620FF3
:102D1000731F841F951F660F771F881F991F0895C3
:102D20000E94D21608F481E00895E89409C097FB48
:102D30003EF490958095709561957F4F8F4F9F4F92
:102D40009923A9F0F92F96E9BB279395F6958795D6
:102D500077956795B795F111F8CFFAF4BB0F11F499
:102D600060FF1BC06F5F7F4F8F4F9F4F16C0882340
:102D700011F096E911C0772321F09EE8872F762F76
:102D800005C0662371F096E8862F70E060E02AF0B7
:102D90009A95660F771F881FDAF7880F96958795A3
:102DA00097F90895990F0008550FAA0BE0E8FEEF78
:102DB00016161706E807F907C0F012161306E407FF
:102DC000F50798F0621B730B840B950B39F40A26F8
:102DD00061F0232B242B252B21F408950A2609F4D6
:102DE000A140A6958FEF811D811D08950E940917AE
:102DF0000C947A170E946C1738F00E94731720F019
:102E0000952311F00C9463170C94691711240C94FA
:102E1000AE170E948B1770F3959FC1F3950F50E08A
:102E2000551F629FF001729FBB27F00DB11D639F7C
:102E3000AA27F00DB11DAA1F649F6627B00DA11D22
:102E4000661F829F2227B00DA11D621F739FB00DC8
:102E5000A11D621F839FA00D611D221F749F332738
:102E6000A00D611D231F849F600D211D822F762FD1
:102E70006A2F11249F5750409AF0F1F088234AF0AE
:102E8000EE0FFF1FBB1F661F771F881F915050401A
:102E9000A9F79E3F510580F00C9463170C94AE1770
:102EA0005F3FE4F3983ED4F3869577956795B795A1
:102EB000F795E7959F5FC1F7FE2B880F911D9695BB
:102EC000879597F9089597F99F6780E870E060E02B
:102ED00008959FEF80EC089500240A9416161706B3
:102EE00018060906089500240A94121613061406FB
:102EF00005060895092E0394000C11F4882352F05E
:102F0000BB0F40F4BF2B11F460FF04C06F5F7F4F15
:102F10008F4F9F4F089557FD9058440F551F59F0FC
:102F20005F3F71F04795880F97FB991F61F09F3FB6
:102F300079F087950895121613061406551FF2CFDF
:102F40004695F1DF08C0161617061806991FF1CF2F
:102F500086957105610508940895E894BB27662756
:102F60007727CB0197F908952F923F924F925F9266
:102F70006F927F928F929F92AF92BF92CF92DF9289
:102F8000EF92FF920F931F93CF93DF93CDB7DEB7EE
:102F9000CA1BDB0B0FB6F894DEBF0FBECDBF099482
:102FA0002A88398848885F846E847D848C849B84D9
:102FB000AA84B984C884DF80EE80FD800C811B81E7
:102FC000AA81B981CE0FD11D0FB6F894DEBF0FBE16
:102FD000CDBFED0108955058BB27AA270E940318C2
:102FE0000C947A170E946C1738F00E94731720F027
:102FF00039F49F3F19F426F40C9469170EF4E09508
:10300000E7FB0C946317E92F0E948B1758F3BA174C
:10301000620773078407950720F079F4A6F50C94EE
:10302000AD170EF4E0950B2EBA2FA02D0B01B901B0
:1030300090010C01CA01A0011124FF27591B99F02E
:10304000593F50F4503E68F11A16F040A22F232F3A
:10305000342F4427585FF3CF469537952795A7958A
:10306000F0405395C9F77EF41F16BA0B620B730B31
:10307000840BBAF09150A1F0FF0FBB1F661F771FA2
:10308000881FC2F70EC0BA0F621F731F841F48F457
:10309000879577956795B795F7959E3F08F0B0CFE0
:1030A0009395880F08F09927EE0F979587950895C7
:1030B0000E946C180C947A170E94731758F00E94A3
:1030C0006C1740F029F45F3F29F00C9463175111FD
:1030D0000C94AE170C9469170E948B1768F3992310
:1030E000B1F3552391F3951B550BBB27AA27621704
:1030F0007307840738F09F5F5F4F220F331F441F11
:10310000AA1FA9F335D00E2E3AF0E0E832D0915044
:103110005040E695001CCAF72BD0FE2F29D0660F31
:10312000771F881FBB1F261737074807AB07B0E874
:1031300009F0BB0B802DBF01FF2793585F4F3AF07A
:103140009E3F510578F00C9463170C94AE175F3FC7
:10315000E4F3983ED4F3869577956795B795F79500
:103160009F5FC9F7880F911D9695879597F90895E8
:10317000E1E0660F771F881FBB1F62177307840784
:10318000BA0720F0621B730B840BBA0BEE1F88F793
:10319000E09508950E94D1186894B1110C94AE176F
:1031A00008950E94931788F09F5798F0B92F992798
:1031B000B751B0F0E1F0660F771F881F991F1AF022
:1031C000BA95C9F714C0B13091F00E94AD17B1E0C3
:1031D00008950C94AD17672F782F8827B85F39F0C2
:1031E000B93FCCF3869577956795B395D9F73EF4BB
:1031F00090958095709561957F4F8F4F9F4F089563
:103200000E94D21608F48FEF089519F416F40C9466
:1032100069170C944B190E949317B8F39923C9F3BB
:10322000B6F39F57550B87FF0E9459190024A0E65B
:1032300040EA900180585695979528F4805C660F77
:10324000771F881F20F026173707480730F4621BC6
:10325000730B840B202931294A2BA69517940794C8
:10326000202531254A2758F7660F771F881F20F041
:1032700026173707480730F4620B730B840B200DB9
:10328000311D411DA09581F7B901842F9158880FF8
:103290009695879508959F3F31F0915020F487953A
:1032A00077956795B795880F911D9695879597F9AE
:1032B000089591505040660F771F881FD2F70895E8
:1032C000A1E21A2EAA1BBB1BFD010DC0AA1FBB1F2A
:1032D000EE1FFF1FA217B307E407F50720F0A21B9C
:1032E000B30BE40BF50B661F771F881F991F1A9409
:1032F00069F760957095809590959B01AC01BD0133
:10330000CF010895052E97FB1EF400940E94991991
:1033100057FD07D00E94601907FC03D04EF40C94AF
:10332000991950954095309521953F4F4F4F5F4FDC
:10333000089590958095709561957F4F8F4F9F4F21
:103340000895EE0FFF1F0590F491E02D09940F935F
:103350001F93CF93DF938230910510F482E090E0C9
:10336000E0912B05F0912C0520E030E0A0E0B0E0EA
:10337000309719F140815181028113814817590713
:10338000C8F08417950769F4109731F012960C93E2
:10339000129713961C9327C000932B0510932C05AE
:1033A00022C02115310519F04217530718F49A016C
:1033B000BD01EF01DF01F801DBCF21153105F9F087
:1033C000281B390B2430310580F48A819B816115DB
:1033D000710521F0FB019383828304C090932C0537
:1033E00080932B05FE01329644C0FE01E20FF31FCD
:1033F0008193919322503109398328833AC02091D7
:10340000290530912A05232B41F4209102013091A6
:10341000030130932A052093290520910001309162
:1034200001012115310541F42DB73EB7409104014A
:1034300050910501241B350BE0912905F0912A05D7
:10344000E217F307A0F42E1B3F0B2817390778F07B
:10345000AC014E5F5F4F2417350748F04E0F5F1FDA
:1034600050932A05409329058193919302C0E0E08F
:10347000F0E0CF01DF91CF911F910F910895CF938D
:10348000DF93009709F481C0FC0132971382128206
:10349000A0912B05B0912C05109781F420813181EA
:1034A000820F931F2091290530912A05281739078B
:1034B00051F5F0932A05E093290567C0ED0120E05E
:1034C00030E0CE17DF0740F44A815B819E01411551
:1034D0005105F1F0EA01F5CFD383C28340815181D8
:1034E000840F951FC817D90759F488819981840FD3
:1034F000951F0296918380838A819B819383828327
:103500002115310529F4F0932C05E0932B053DC0DE
:10351000E901FB83EA8349915991C40FD51FEC1748
:10352000FD0761F480819181840F951F0296E90166
:1035300099838883828193819B838A83E0E0F0E092
:1035400012968D919C911397009719F0FD01DC0163
:10355000F7CF8D919C9111979D012E5F3F4F820F68
:10356000931F2091290530912A052817390769F4FE
:10357000309729F410922C0510922B0502C013826B
:103580001282B0932A05A0932905DF91CF91089567
:10359000A0E0B0E0EEECFAE10C94B817EC01009773
:1035A00021F4CB010E94A719B4C0FC01E60FF71F5C
:1035B0009C0122503109E217F30708F4A8C0D90191
:1035C0000D911C91119706171707B0F005301105E2
:1035D00008F49BC0C80104978617970708F495C0A4
:1035E00002501109061B170B019311936D937C93E5
:1035F000CF010E943F1A89C05B01A01AB10A4C0199
:10360000800E911EA0912B05B0912C05612C712C80
:10361000E12CF12C109709F446C08D919C911197E3
:10362000A815B905B1F56C0142E0C40ED11CCA144D
:10363000DB0478F14C018A189B08640142E0C40E57
:10364000D11C1296BC9012971396AC91B5E0CB1694
:10365000D10440F0B282A38391828082D9016D931C
:103660007C9309C00E5F1F4F800F911FF90191835A
:103670008083EB2DFA2FE114F10431F0D70113967A
:10368000FC93EE93129741C0F0932C05E0932B0529
:103690003CC06816790608F43C017D0112960D9035
:1036A000BC91A02DB7CF8091290590912A0588164D
:1036B0009906E1F466167706C8F4809100019091AE
:1036C0000101009741F48DB79EB7409104015091DC
:1036D0000501841B950BE817F907C8F4F0932A0538
:1036E000E0932905F901718360830FC0CB010E942B
:1036F000A7197C01009759F0A801BE010E94931BF5
:10370000CE010E943F1AC70104C0CE0102C080E072
:1037100090E0CDB7DEB7EEE00C94D41781E090E0F6
:10372000F8940C94C61BFB01DC0102C001900D92C1
:1037300041505040D8F70895FB01DC018D91019074
:1037400080190110D9F3990B0895FB01DC01019058
:103750000D920020E1F70895FB0151915523A9F046
:10376000BF01DC014D9145174111E1F759F4CD013D
:103770000190002049F04D9140154111C9F3FB0122
:103780004111EFCF81E090E00197089510E0C2E78A
:10379000D0E004C0FE010E94A1192196C337D107D1
:0637A000C9F7F894FFCF09
:1037A60000002D05800000000000F306BF064B0652
:1037B60031031B03E302C2028E026D021702D3011C
:1037C6000000000031019E00C8007E01F900D7000C
:1037D600EB00000000000304D6033204AA03CE0364
:1037E600BA03AB030000000014089E0032049D00DB
:1037F600230053544F500050494E47004C3A205036
:103806006F6E6721004143434C0044524157455275
:103816005F474F5F544F5F4241434B00445241570D
:1038260045525F474F5F544F5F46524F4E540047D5
:1038360045545F43555252454E545F504F53495479
:10384600494F4E00202D20000D0A00454C4556419B
:10385600544F525F474F5F544F00454C45564154B5
:103866004F525F5345545F535045454400434D44C2
:1038760000434D443A20002020004C43445F42411F
:10388600434B4C49474854004C43445F434C4541E5
:1038960052004C43445F4649525354004C43445FE4
:1038A6005345434F4E44004C43445F455849535497
:1038B600004C43445F45584953543A20464F554EB1
:1038C60044004C43445F45584953543A204E4F54A4
:1038D6005F464F554E4400453A20696E76616C69E5
:1038E6006420636F6D6D616E644E616D6500435556
:1038F60053544F4D5F535445505045523A20476FED
:1039060020746F20646F6E6500435553544F4D5FAE
:10391600535445505045523A20476F20746F206FDC
:10392600726967696E20646F6E6500435553544F24
:103936004D5F535445505045523A20476F20746F9F
:0A39460020656E6420646F6E65005A
:00000001FF
