:100000000C9473000C949B000C949B000C94580768
:100010000C9458070C9458070C949B000C949B006C
:100020000C949B000C949B000C949B000C949B00E4
:100030000C949B000C949B000C949B000C949B00D4
:100040000C940E070C949B000C945F050C943905DE
:100050000C949B000C949B000C949B000C949B00B4
:100060000C9462070C949B00EB01F101F701FD0178
:10007000030209020F02400347034E0355035C03CA
:100080007303630373036A03000000002400270066
:100090002A0000000000250028002B0000000000BE
:1000A00023002600290004040404040404040202BA
:1000B00002020202030303030303010204081020E7
:1000C00040800102040810200102040810200000F2
:1000D0000008000201000003040700000000000007
:1000E00000004F12480D11241FBECFEFD8E0DEBF35
:1000F000CDBF24E0A2E2B2E001C01D92A932B20756
:10010000E1F712E0A0E0B1E0EEE8FFE202C0059006
:100110000D92A232B107D9F710E0C2E7D0E004C0D7
:100120002197FE010E949A15C137D107C9F70E9495
:10013000500D0C94BA170C9400000895CF92DF92E2
:10014000EF92FF920F931F93CF93DF936C017A018D
:100150008B01C0E0D0E0CE15DF0581F0D8016D91B4
:100160008D01D601ED91FC910190F081E02DC60149
:100170000995892B11F02196EECF7E01C701DF9101
:10018000CF911F910F91FF90EF90DF90CF90089546
:10019000FC01538D448D252F30E0842F90E0821B8D
:1001A000930B541710F0CF96089501970895FC0112
:1001B000918D828D981761F0828DDF01A80FB11D9E
:1001C0005D968C91928D9F5F9F73928F90E00895C2
:1001D0008FEF9FEF0895FC01918D828D981731F07C
:1001E000828DE80FF11D858D90E008958FEF9FEFD0
:1001F0000895FC01918D228D892F90E0805C9F4FA6
:10020000821B91098F739927089584EA92E00E94D6
:10021000F90021E0892B09F420E0822F0895FC01E8
:10022000848DDF01A80FB11DA35ABF4F2C91848D7F
:1002300090E001968F739927848FA689B7892C93B4
:10024000A089B1898C91837080648C93938D848D07
:10025000981306C00288F389E02D80818F7D80830A
:100260000895EF92FF920F931F93CF93DF93EC01CA
:1002700081E0888F9B8D8C8D981305C0E889F98962
:10028000808185FD26C0F62E0B8D10E00F5F1F4F7D
:100290000F731127E02E8C8DE8120CC00FB607FCEF
:1002A000FACFE889F989808185FFF5CFCE010E94D8
:1002B0000F01F1CF8B8DFE01E80FF11DE35AFF4FC7
:1002C000F0829FB7F8940B8FEA89FB898081806266
:1002D0000AC09FB7F894EE89FF896083E889F9899D
:1002E00080818370806480839FBF81E090E0DF9194
:1002F000CF911F910F91FF90EF900895CF93DF93CF
:10030000EC01888D8823C9F0EA89FB89808185FD0D
:1003100005C0A889B9898C9186FD0FC00FB607FC6E
:10032000F5CF808185FFF2CFA889B9898C9185FFAF
:10033000EDCFCE010E940F01E7CFDF91CF9108955D
:1003400080E090E0892B29F00E94050181110C9436
:1003500000000895833081F028F4813099F08230D4
:10036000A1F008958730A9F08830B9F08430D1F435
:10037000809180008F7D03C0809180008F77809373
:100380008000089584B58F7702C084B58F7D84BDC9
:1003900008958091B0008F7703C08091B0008F7D69
:1003A0008093B0000895CF93DF9347705527662759
:1003B0007727FA013197EC01A881B981E730F1057F
:1003C00020F4EC5CFF4F0C949A151496ED91FC917F
:1003D000159761E029C01496ED91FC91159765E0A1
:1003E00023C01496ED91FC91159764E01DC01496FE
:1003F000ED91FC91159766E017C01496ED91FC9174
:10040000159762E011C01496ED91FC9115976AE082
:100410000BC01496ED91FC91159768E005C01496F9
:10042000ED91FC91159769E0DF91CF910994CF93FD
:10043000DF93EC01CB01BA0126E030E040E050E070
:100440000E947B15623071058105910559F18CF48C
:100450006115710581059105F1F061307105810526
:100460009105C1F5E881F9810480F581E02D65E011
:100470002DC0643071058105910511F1D4F065300E
:1004800071058105910531F5E881F9810480F581D7
:10049000E02D66E01BC0E881F9810480F581E02D44
:1004A00064E014C0E881F9810480F581E02D61E009
:1004B0000DC0E881F9810480F581E02D63E006C07C
:1004C000E881F9810480F581E02D62E0CE01DF91C1
:1004D000CF910994DF91CF910895437055276627F6
:1004E0007727DC01ED91FC910480F581E02D42300D
:1004F00051056105710571F04330510561057105C4
:1005000059F0413051056105710511F065E005C0F4
:1005100066E003C06AE001C069E00994CF93DF930D
:10052000EC01CB01BA0123E030E040E050E00E9452
:100530007B15613071058105910581F0623071058F
:100540008105910591F0672B682B692BC1F4E88137
:10055000F9810480F581E02D64E00DC0E881F98126
:100560000480F581E02D61E006C0E881F981048016
:10057000F581E02D62E0CE01DF91CF910994DF910A
:10058000CF9108954370552766277727DC01ED91B9
:10059000FC910480F581E02D423051056105710523
:1005A00071F0433051056105710559F04130510535
:1005B0006105710511F062E005C063E003C061E010
:1005C00001C060E00994CF93DF93EC01E881F981E9
:1005D0000480F581E02D8A81811102C060E001C0B4
:1005E00062E0CE010995E881F9810480F581E02D72
:1005F0008A81811102C061E001C063E0CE010995EA
:100600008CA59DA58230910538F0880F991F880F21
:10061000991F05970197F1F7E881F9810480F58129
:10062000E02D8A81811102C060E001C062E0CE014C
:10063000DF91CF910994CF93DF93EC0120E030E07C
:10064000A9016C897D898E899F890E94541518168D
:100650001CF4E8A9F9A902C0EAA9FBA9DF91CF918E
:1006600009940F931F93DC011396EC910E2F10E069
:1006700009301105C0F5F801E55CFF4F0C949A159F
:10068000DC01ED91FC910084F185E02D29C0DC01B5
:10069000ED91FC910284F385E02D22C0DC01ED9107
:1006A000FC910484F585E02D1BC0DC01ED91FC91EB
:1006B0000684F785E02D14C0DC01ED91FC910088E3
:1006C000F189E02D0DC0DC01ED91FC910288F389E8
:1006D000E02D06C0DC01ED91FC910488F589E02D48
:1006E0001F910F9109941F910F91089585ED8093AB
:1006F000BC008091BC0084FDFCCF1092670208957D
:1007000040914302262F30E0240F311D2132310564
:10071000DCF4209167022430C9F4FC0180E090E011
:10072000861758F4309143022191DC01AD5DBD4F35
:10073000A30FB11D2C930196F3CF80914302680F54
:100740006093430280E0089581E0089582E0089577
:1007500008958FEF9FEF08958FEF9FEF0895809199
:10076000220290E09195819591090895CF93DF93AE
:10077000CB01EA01642F0E948003CE01DF91CF916B
:100780000895CF93DF931F92CDB7DEB7698361E001
:10079000CE0101960E94800381E090E00F90DF91EE
:1007A000CF91089580E090E00895FC0180819181CF
:1007B000009711F00C94A81260E070E0CB0108954E
:1007C000FC0124813581232B31F421E06115710571
:1007D000A1F0FB0108C0FC018081918161157105C8
:1007E00031F421E0FC018081882339F005C00E94AA
:1007F000901721E0892B09F020E0822F0895CF93F4
:10080000DF93DC01ED91FC91EB01A881B981309778
:1008100011F01097C9F4109759F0EB012C813D812C
:10082000232B31F08C9190E091958195910914C022
:10083000309781F0DC0114968D919C911597892B4E
:1008400049F0808190E008C0BD01CF01DF91CF91D8
:100850000C94901780E090E0DF91CF9108950F9372
:100860001F93CF93DF938C01EB01FC018081918179
:10087000009739F06881798161157105A1F40E94B2
:10088000381688819981F801918380838A819B81C0
:10089000938382838C819D819583848319821882BE
:1008A0001B821A820FC0F801428153812C813D8145
:1008B0004217530720F30E9499178C819D81F801FC
:1008C000958384831D821C82DF91CF911F910F91AC
:1008D00008950F931F93CF93DF93EC018881998143
:1008E000009729F02A813B812617370788F48B016E
:1008F0006F5F7F4F0E94C116009761F099838883D4
:100900001B830A832C813D81232B11F4FC0110826F
:1009100081E001C080E0DF91CF911F910F91089598
:10092000EF92FF920F931F93CF93DF93EC017B0124
:100930008A01BA010E9469042881398181110DC0A0
:100940002115310519F0C9010E9438161982188243
:100950001D821C821B821A8206C01D830C83B70174
:10096000C9010E949917CE01DF91CF911F910F917C
:10097000FF90EF900895FC01808191810C943816CE
:10098000FC01118210821382128215821482611579
:10099000710551F0FB0101900020E9F73197AF019B
:1009A000461B570B0C9490040895BF92CF92DF9290
:1009B000EF92FF920F931F93CF93DF937C016B0114
:1009C000EA0189012417350720F48D2FE901042F4E
:1009D000182F6AE072E0C7010E94C004D601149685
:1009E0008D919C911597C817D907C0F5801791076D
:1009F00008F48C01D601ED91FC911197E00FF11FE5
:100A0000B08010826D917C916C0F7D1F6115710516
:100A100061F0FB0101900020E9F73197AF01461B1F
:100A2000570BC7010E94900413C0F7018081918188
:100A3000009711F00E943816D70111961C921E9251
:100A400015961C921E92149713961C921E92129742
:100A5000D601ED91FC91E00FF11FB082C701DF914B
:100A6000CF911F910F91FF90EF90DF90CF90BF90AB
:100A700008951F920F920FB60F9211242F933F9358
:100A80004F935F936F937F938F939F93AF93BF9396
:100A9000EF93FF9384EA92E00E940F01FF91EF91A0
:100AA000BF91AF919F918F917F916F915F914F9186
:100AB0003F912F910F900FBE0F901F9018951F928E
:100AC0000F920FB60F9211242F938F939F93EF9352
:100AD000FF93E091B402F091B5028081E091BA02F7
:100AE000F091BB0282FD12C090818091BD028F5FA8
:100AF0008F732091BE02821751F0E091BD02F0E0A9
:100B0000EC55FD4F958F8093BD0201C08081FF9110
:100B1000EF919F918F912F910F900FBE0F901F908B
:100B20001895CF93DF93282F30E0F901E253FF4F60
:100B30008491F901E654FF4FD491F901EA55FF4F32
:100B4000C491CC2391F081110E94AA01EC2FF0E016
:100B5000EE0FFF1FE456FF4FA591B491EC91ED23EA
:100B600081E090E021F480E002C080E090E0DF913D
:100B7000CF9108951F93CF93DF93282F30E0F90191
:100B8000E253FF4F8491F901E654FF4FD491F901EC
:100B9000EA55FF4FC491CC23C1F0162F81110E945A
:100BA000AA01EC2FF0E0EE0FFF1FEE56FF4FA591CC
:100BB000B4919FB7F894111104C08C91D095D823AB
:100BC00002C0EC91DE2BDC939FBFDF91CF911F9190
:100BD0000895CF92DF92EF92FF920F931F93CF93DE
:100BE000DF93EC019B81943041F0983031F09330E9
:100BF00031F0963021F012E003C014E001C013E0A0
:100C00002496E12CF12CC62ED12C01E0C6010E2C2D
:100C100002C0959587950A94E2F76C8180FD602764
:100C200089910E94BA058FEFE81AF80AE11670F36D
:100C3000DF91CF911F910F91FF90EF90DF90CF90B8
:100C40000895CF93DF9390E0FC01E654FF4F249189
:100C5000FC01EA55FF4F8491882361F190E0880FF1
:100C6000991FFC01E857FF4FC591D491FC01EE5646
:100C7000FF4FA591B491611109C09FB7F894888185
:100C8000209582238883EC912E230BC0623061F47F
:100C90009FB7F8948881322F309583238883EC9115
:100CA0002E2B2C939FBF06C08FB7F894E8812E2B74
:100CB00028838FBFDF91CF910895CF93DF93FC01FD
:100CC0002381222359F1EC0161E084810E942106F5
:100CD00061E08D810E9421068B81843011F0883083
:100CE00039F461E08E810E94210661E08F8106C0A7
:100CF000833011F0863021F461E08E810E9421065C
:100D00008FA58F3F59F061E00E9421066EA581E01A
:100D100068278FA5DF91CF910C94BA05DF91CF9111
:100D20000895CF93DF93FC0123812223A9F0EC01E6
:100D30000190F081E02D0480F581E02D60E00995BF
:100D40008FA58F3F49F061E00E9421066EA58FA517
:100D5000DF91CF910C94BA05DF91CF9108953FB701
:100D6000F8948091900290919102A0919202B0919A
:100D7000930226B5A89B05C02F3F19F00196A11D2F
:100D8000B11D3FBFBA2FA92F982F8827820F911D21
:100D9000A11DB11DBC01CD0142E0660F771F881F68
:100DA000991F4A95D1F708958F929F92AF92BF9263
:100DB000CF92DF92EF92FF926B017C010E94AF060F
:100DC0004B015C01C114D104E104F104F1F00E9473
:100DD000AF06DC01CB0188199909AA09BB09883E35
:100DE0009340A105B10570F321E0C21AD108E108D2
:100DF000F10888EE880E83E0981EA11CB11CC11476
:100E0000D104E104F10419F7DDCFFF90EF90DF90FA
:100E1000CF90BF90AF909F908F9008951F920F92A8
:100E20000FB60F9211242F933F938F939F93AF93FD
:100E3000BF938091A0029091A102A091A202B091D3
:100E4000A30230918F0223E0230F2D3720F4019667
:100E5000A11DB11D05C026E8230F0296A11DB11DDD
:100E600020938F028093A0029093A102A093A202EC
:100E7000B093A3028091900290919102A09192026E
:100E8000B09193020196A11DB11D809390029093A1
:100E90009102A0939202B0939302BF91AF919F9160
:100EA0008F913F912F910F900FBE0F901F9018952B
:100EB0001F920F920FB60F9211240F900FBE0F903A
:100EC0001F9018951F920F920FB60F9211242F9317
:100ED0003F934F935F936F937F938F939F93AF93C2
:100EE000BF93EF93FF938091B900887F803609F418
:100EF0009CC068F5883209F45BC090F4803109F435
:100F000054C038F4882309F4F2C0883009F44DC085
:100F1000F2C0883109F44CC0803209F45DC0EBC0E6
:100F2000803409F468C048F4803309F455C088332C
:100F300009F0E1C080936602D4C0803509F44FC047
:100F4000883509F45DC0883409F0D5C0D2C088392D
:100F500009F4C3C0A8F4883709F467C038F48836A8
:100F600009F463C0803709F460C0C5C0883809F44B
:100F7000B4C0803909F45FC0803809F0BCC05BC0E0
:100F8000803B09F484C038F4803A09F466C0883A9A
:100F900009F47DC0B0C0803C09F4A3C0883C09F4CA
:100FA000A0C0883B09F486C0A6C080918C0210C006
:100FB00090918B0280918A02981770F5E0918B02D4
:100FC00081E08E0F80938B02F0E0E659FD4F808127
:100FD0008093BB0085EC82C0809366028AC0E0915A
:100FE0008B0281E08E0F80938B028091BB00F0E03A
:100FF000E659FD4F808390918B0280918A026AC0EE
:10100000E0918B0281E08E0F80938B028091BB0078
:10101000F0E0E659FD4F808380916902811169C03B
:1010200081E08093680284EA5DC083E08093670278
:1010300010926502CFCF80916502803208F04DC0DA
:10104000E091650281E08E0F809365028091BB0084
:10105000F0E0EB5BFD4F8083BDCF85EC8093BC005F
:101060001092670280916502803230F4E09165024F
:10107000F0E0EB5BFD4F10826091650270E085E46B
:1010800092E0E0E0F0E009951092650234C084E05F
:10109000809367021092440210924302E0E0F0E075
:1010A000099580914302811105C081E0809343023C
:1010B00010922302E091440281E08E0F809344025B
:1010C000F0E0ED5DFD4F80818093BB009091440284
:1010D00080914302981708F47DCF85E88093BC0087
:1010E0000AC085EC8093BC001092670204C0109285
:1010F00066020E947603FF91EF91BF91AF919F919D
:101100008F917F916F915F914F913F912F910F90B0
:101110000FBE0F901F9018954F925F926F927F9223
:101120008F929F92AF92BF92CF92DF92EF92FF92F7
:101130000F931F93CF93DF93EC01C888D988EA8877
:10114000FB888C859D85AE85BF85C81AD90AEA0AB9
:10115000FB0A6C897D898E899F899B01AC010E9465
:101160004A134B015C016C8D7D8D8E8D9F8D9B0193
:10117000AC010E9440149B01AC01C501B4010E9466
:10118000AC140E941E15C114D104E104F10499F4B9
:1011900062307105810591050CF076C01CA21DA27C
:1011A0001EA21FA21C8A1D8A1E8A1F8A1CAA1DAA93
:1011B0001EAA1FAAEDC00CA91DA92EA93FA91C1487
:1011C0001D041E041F04FCF410161106120613065B
:1011D0004CF46C157D058E059F054CF52A81211177
:1011E00053C025C0011511052105310509F44CC076
:1011F0006C157D058E059F050CF046C08A818823FD
:1012000009F442C036C01016110612061306ECF49B
:101210000027112798010C191D092E093F09601795
:101220007107820793071CF42A81222369F19B012D
:10123000AC0188279927DC01821B930BA40BB50B0B
:101240008CAB9DABAEABBFAB1FC00115110521052B
:101250003105D1F08824992454018C189D08AE08DA
:10126000BF08681579058A059B0574F48A81811188
:101270000BC030952095109501951F4F2F4F3F4F74
:101280000CAB1DAB2EAB3FAB8CA89DA8AEA8BFA8E6
:1012900081149104A104B10489F488AD99ADAAAD7B
:1012A000BBAD8CAF9DAFAEAFBFAF81E01C141D04D2
:1012B0001E041F040CF080E08A833FC0CCACDDAC80
:1012C000EEACFFACA7019601C701B6010E94401425
:1012D0002B013C01C501B4010E94EB1220E030E07B
:1012E00040E850E40E944A1320E030E040E85FE329
:1012F0000E9440149B01AC01C301B2010E94AC14D6
:101300009B01AC01C701B6010E943F143B016C0177
:10131000FE01E05CFF4FE080F180028113819701C4
:10132000A8010E945415181614F473018601C70110
:10133000D8018CAF9DAFAEAFBFAF3FEF831A930A1A
:10134000A30AB30A8CAA9DAAAEAABFAACCACDDACF4
:10135000EEACFFACC701B6010E9425156CA37DA3BE
:101360008EA39FA3A701960160E074E284E799E44D
:101370000E94AC146C8B7D8B8E8B9F8B2A812111EC
:1013800007C0DC01CB01B0588C8B9D8BAE8BBF8B23
:10139000DF91CF911F910F91FF90EF90DF90CF9051
:1013A000BF90AF909F908F907F906F905F904F9085
:1013B00008958F929F92AF92BF92CF92DF92EF9259
:1013C000FF92CF93DF93EC018AE091E099838883C9
:1013D0006B831C861D861E861F86188A198A1A8AA8
:1013E0001B8A1C8A1D8A1E8A1F8AC12CD12C80E868
:1013F000E82E8FE3F82EC88ED98EEA8EFB8E1C8ED7
:101400001D8E1E8E1F8EC8A2D9A2EAA2FBA21CA20C
:101410001DA21EA21FA281E090E09DA78CA78FEFC6
:101420008FA718A619A61AA61BA64C832D8384E0A5
:101430008E8385E08F831EA61CAA1DAA1EAA1FAA42
:1014400018AE19AE1AAE1BAE1CAE1DAE1EAE1FAE50
:10145000FE01E05CFF4FC082D182E282F3821A82F9
:10146000188619861A861B86CE010E945D068C8C12
:101470009D8CAE8CBF8CA7019601C501B4010E9462
:10148000E412882349F16CA97DA98EA99FA90E9425
:10149000EB12A50194010E944A130E941E156CAB29
:1014A0007DAB8EAB9FAB86E896E6A9E6B9E488AF44
:1014B00099AFAAAFBBAFCC8EDD8EEE8EFF8ECE0184
:1014C000DF91CF91FF90EF90DF90CF90BF90AF90E2
:1014D0009F908F900C948C08DF91CF91FF90EF90AC
:1014E000DF90CF90BF90AF909F908F900895CF9254
:1014F000DF92EF92FF92CF93DF93FC0144A155A1BD
:1015000066A177A1452B462B472B11F480E036C00E
:10151000EC010E94AF066B017C0188A599A5AAA5E4
:10152000BBA5B701A601481B590B6A0B7B0B8CA10D
:101530009DA1AEA1BFA1481759076A077B0730F3E9
:101540002A818C859D85AE85BF85222321F0019659
:10155000A11DB11D03C00197A109B1098C879D8709
:10156000AE87BF874C855D856E857F85CE010E94E5
:101570003103C8A6D9A6EAA6FBA681E0DF91CF91E8
:10158000FF90EF90DF90CF9008954F925F926F920F
:101590007F92AF92BF92CF92DF92EF92FF920F9322
:1015A0001F93CF93DF93EC015A018B019A01AB019A
:1015B0006C897D898E899F890E94E412882309F4B1
:1015C0004CC0C88CD98CEA8CFB8C2601370177FA89
:1015D000709477F87094A3019201B501C8010E943C
:1015E000E41287FD0BC0A7019601B501C8010E9456
:1015F000541518162CF06501780102C073016201C0
:1016000020E030E0A901C701B6010E94E412811177
:1016100005C01CA21DA21EA21FA21BC0A7019601ED
:1016200060E074E284E799E40E94AC149F770E9422
:1016300025156CA37DA38EA39FA311E020E030E0CD
:10164000A901C701B6010E94541518160CF010E04C
:101650001A83CC8ADD8AEE8AFF8ADF91CF911F91AF
:101660000F91FF90EF90DF90CF90BF90AF907F9061
:101670006F905F904F900895009769F0FC01019082
:101680000020E9F73197AF01481B590BBC0184EAF0
:1016900092E00C949E0080E090E00895CF93DF9359
:1016A0000E943C0BEC0188E092E00E943C0B8C0F06
:1016B0009D1FDF91CF910895CF92DF92EF92FF921D
:1016C000CF93DF93EC0120E030E04AE754E4688DEB
:1016D000798D8A8D9B8D0E94E412882309F43FC086
:1016E00080E090E0AAE7B4E4888F998FAA8FBB8F3F
:1016F000FE01E05CFF4F80839183A283B3838CA9BA
:101700009DA9AEA9BFA9181619061A061B063CF515
:101710006C897D898E899F899B01AC010E944A1347
:101720006B017C016C8D7D8D8E8D9F8D9B01AC013D
:101730000E9440149B01AC01C701B6010E94AC1489
:101740000E941E156CAB7DAB8EAB9FABCE01DF91C3
:10175000CF91FF90EF90DF90CF900C948C08DF91A9
:10176000CF91FF90EF90DF90CF900895CF93DF93CC
:10177000FC01DB0112968C911297828313968C9157
:1017800013978383BF016C5F7F4FCD0104969F0148
:10179000285F3F4FEC014991CE01EB014993BE0117
:1017A000C217D307B9F7CD0108969F01245F3F4FB9
:1017B000EC014991CE01EB014993BE012C173D0785
:1017C000B9F71C964D915D916D917C911F9744875F
:1017D00055876687778750964D915D916D917C9185
:1017E0005397408B518B628B738B54964D915D91C7
:1017F0006D917C915797448B558B668B778B589660
:101800004D915D916D917C915B97408F518F628F6F
:10181000738F5C964D915D916D917C915F97448F34
:10182000558F668F778F90964D915D916D917C91DC
:10183000939740A351A362A373A394964D915D9196
:101840006D917C91979744A355A366A377A398962F
:101850004D915D916D917C919B9740A751A762A797
:1018600073A79C968D919C919D9795A784A79E9612
:101870008C919E9786A79F968C919F9787A7D096CD
:101880008D919C91D19791AB80ABD2968D919C918B
:10189000D39793AB82ABD4964D915D916D917C9132
:1018A000D79744AB55AB66AB77ABD8964D915D916E
:1018B0006D917C91DB9740AF51AF62AF73AFDC9617
:1018C0004D915D916D917C91DF9744AF55AF66AFBF
:1018D00077AFA05CBF4F4D915D916D917C91DF0121
:1018E000A05CBF4F4D935D936D937C931397CF0195
:1018F000DF91CF910895CF93DF93FC01248135814F
:10190000232B71F0FB01DC01CD91DC9160817181B1
:10191000CE010E94A017009719F08C1B9D0B02C0EE
:101920008FEF9FEFDF91CF9108958F929F92AF92AB
:10193000BF92CF92DF92EF92FF920F931F93CF93BC
:10194000DF93CDB7DEB7A1970FB6F894DEBF0FBE19
:10195000CDBF6B017C0197FF2BC06DE284EA92E062
:101960000E9431018C0122273327A9012C193D093E
:101970004E095F0919A2CE0181967C019AE0892E59
:10198000912CA12CB12CCA01B901A50194010E948E
:101990005915605DF70162937F01211531054105FD
:1019A000510589F7CF010E943C0B800F911F1DC08C
:1019B0009B01AC0119A28E010F5D1F4F8AE0C82E5A
:1019C000D12CE12CF12CCA01B901A70196010E948A
:1019D0005915605DF80162938F01211531054105AC
:1019E000510589F7CF010E943C0BA1960FB6F894E0
:1019F000DEBF0FBECDBFDF91CF911F910F91FF9042
:101A0000EF90DF90CF90BF90AF909F908F90089510
:101A10002FB7F8948091A0029091A102A091A20208
:101A2000B091A3022FBF8093AC029093AD02A0931C
:101A3000AE02B093AF0284EA92E00E94D70097FF13
:101A400026C02FB7F8948091A0029091A102A09196
:101A5000A202B091A3022FBF4091AC025091AD02FF
:101A60006091AE027091AF02841B950BA60BB70B71
:101A70004091A8025091A9026091AA027091AB0214
:101A800084179507A607B707B0F28FEF9FEF089569
:101A90008DE094E00E94BB0483E194E00C94BB04CD
:101AA000CF93DF93CDB7DEB7CC55D1090FB6F894FD
:101AB000DEBF0FBECDBF789484B5826084BD84B58F
:101AC000816084BD85B5826085BD85B5816085BD39
:101AD00080916E00816080936E00109281008091F1
:101AE0008100826080938100809181008160809379
:101AF0008100809180008160809380008091B1009E
:101B000084608093B1008091B00081608093B000C8
:101B100080917A00846080937A0080917A0082605C
:101B200080937A0080917A00816080937A0080911E
:101B30007A00806880937A001092C100E091B4022C
:101B4000F091B50282E08083E091B002F091B102A1
:101B50001082E091B202F091B3028FEC8083109278
:101B6000BC02E091B802F091B90286E08083E09176
:101B7000B602F091B702808180618083E091B60265
:101B8000F091B702808188608083E091B602F09185
:101B9000B702808180688083E091B602F091B7023D
:101BA00080818F7D808382E390E0A0E0B0E080932D
:101BB000A8029093A902A093AA02B093AB0260E09E
:101BC00080E10E94210661E08DE00E94210661E033
:101BD0008DE00E94BA0562E370E080E090E00E9430
:101BE000D40660E08DE00E94BA0564E670E080E013
:101BF00090E00E94D40661E08DE00E94BA0562E3A5
:101C000070E080E090E00E94D40660E08DE00E94E9
:101C1000BA0560E08EE00E94210660E08FE00E943D
:101C2000210660E088E00E94210660E089E00E94D1
:101C3000210661E08AE00E94210661E087E00E94BF
:101C4000210661E083E00E94210661E08AE00E94B3
:101C5000BA0561E087E00E94BA0561E083E00E9476
:101C6000BA0585E893E00E945C0B81E493E00E9452
:101C70005C0B89EC93E00E945C0B84E491E00E9491
:101C80004E0B80E10E949105019711F461E001C0C3
:101C900060E08DE00E94BA0584EA92E00E94F900BB
:101CA000892B09F4D9C26AE072E0CE0101960E9444
:101CB000C0040E94080D97FD22C08A309105F9F0FA
:101CC00026968FAF269727961FAE27970D811E81E8
:101CD0000F5F1F4FB801CE0101960E94690488234F
:101CE00041F329813A818D819E81BE016B5B7F4FDB
:101CF000820F931F0E9499171E830D83DACFBE01B6
:101D00006F5F7F4F83E194E00E942F04CE01019624
:101D10000E94BB046AE072E083E194E00E94E00369
:101D200081119AC261E571E0CE0101960E94C00462
:101D3000BE016F5F7F4F83E194E00E947B0C9C01AA
:101D400040E050E063E174E0CE018B5B9F4F0E9466
:101D5000D504BE016B5B7F4F8DE094E00E942F04A1
:101D6000CE018B5B9F4F0E94BB04CE0101960E9467
:101D7000BB04009117041091180461E571E0CE01D5
:101D800001960E94C004BE016F5F7F4F83E194E023
:101D90000E947B0CAC014F5F5F4F980163E174E0E0
:101DA000CE01895A9F4F0E94D504CE0101960E9410
:101DB000BB046D962EAD3FAD6D9780911704909149
:101DC00018042817390751F463E174E0CE01895AE9
:101DD0009F4F0E94FF03892B09F469C061E571E000
:101DE000CE0101960E94C004BE016F5F7F4FCE01FD
:101DF000895A9F4F0E947B0C9C0140E050E0BE013D
:101E0000695A7F4FCE018B5B9F4F0E94D504CE0154
:101E10008B5B9F4F0E94D50370939F0260939E023D
:101E2000CE018B5B9F4F0E94BB04CE0101960E94A6
:101E3000BB046D960EAD1FAD6D9761E571E0CE01EF
:101E400001960E94C004BE016F5F7F4FCE01895A88
:101E50009F4F0E947B0CAC014F5F5F4F9801BE010A
:101E6000695A7F4FCE018F5A9F4F0E94D504CE01F1
:101E700001960E94BB0467962EAD3FAD67976D96A5
:101E80008EAD9FAD6D972817390709F0E8C1BE01E7
:101E9000695A7F4FCE018F5A9F4F0E94FF03892BB3
:101EA00009F0DDC1CE018F5A9F4F0E94BB0463E54C
:101EB00071E08DE094E00E94E003882319F089E549
:101EC00091E0B3C163E671E08DE094E00E94E0032D
:101ED000882319F088E691E0A8C161E771E08DE000
:101EE00094E00E94E003882309F445C060E08AE0A2
:101EF0000E94BA058EE00E949105019769F440E0C6
:101F000050E068E473E489EC93E00E94C50A89EC30
:101F100093E00E94770AEECF61E08AE00E94BA0562
:101F20001092D5031092D6031092D7031092D803C3
:101F30001092D9031092DA031092DB031092DC03A3
:101F40001092FD031092FE031092FF031092000402
:101F50001092ED031092EE031092EF031092F00333
:101F60001092DD031092DE031092DF031092E00363
:101F700083E891E05AC16BE971E08DE094E00E9442
:101F8000E0038823E9F060E08AE00E94BA058FE070
:101F90000E949105019769F440E050E068E473EC19
:101FA00089EC93E00E94C50A89EC93E00E94770ACD
:101FB000EECF61E08AE00E94BA058EEA91E035C179
:101FC00067EC71E08DE094E00E94E003882309F45F
:101FD000E5C0E0909E02F0909F0223E042E064E0C2
:101FE000CE0101960E94D909E114F10419F565E8C2
:101FF00073E0CE0101960E94B60B809196029091FB
:102000009702092E000CAA0BBB0B8D879E87AF870A
:10201000B88B898B9A8BAB8BBC8B1DAA1EAA1FAA6F
:1020200018AE1DA21EA21FA218A61D8A1E8A1F8AF4
:10203000188E2BC081E0E816F10439F561E473E0F5
:10204000CE0101960E94B60B809194029091950268
:10205000092E000CAA0BBB0B8D879E87AF87B88B10
:10206000898B9A8BAB8BBC8B1DAA1EAA1FAA18AE9C
:102070001DA21EA21FA218A61D8A1E8A1F8A188EC4
:1020800023E0D22E39E0B32E04C087E0D82E98E0AA
:10209000B92E00919A0210919B020115110511F4BD
:1020A0000CE211E060E08D2D0E94BA0580909C0248
:1020B00090909D028114910469F52801110F660822
:1020C00077088B2D0E949105019779F4C301B20125
:1020D0000E94EB12AB01BC01CE0101960E94C50A21
:1020E000CE0101960E94770AECCF1D861E861F86C0
:1020F000188A198A1A8A1B8A1C8A1DAA1EAA1FAA54
:1021000018AE1DA21EA21FA218A61D8A1E8A1F8A13
:10211000188E20C0092C000CAA08BB082801110F3A
:10212000660877088D859E85AF85B88988169906DB
:10213000AA06BB0679F0C301B2010E94EB12AB0103
:10214000BC01CE0101960E94C50ACE0101960E94F3
:10215000770AE8CF61E08D2D0E94BA05E114F10401
:1021600039F48D859E85909397028093960209C0DD
:10217000EA94EF2831F48D859E85909395028093A3
:10218000940286ED91E00E943C0B6D857E858F85E3
:1021900098890E94950C81EF91E047C06BEF71E048
:1021A0008DE094E00E94E0038823E9F18FEF91E055
:1021B0000E943C0B60919E0270919F02072E000CC2
:1021C000880B990B0E94950C85E092E00E943C0BD5
:1021D00060919C0270919D02072E000C880B990B58
:1021E0000E94950C85E092E00E943C0B60919A025F
:1021F00070919B02072E000C880B990B0E94950C86
:1022000085E092E00E943C0B6091980270919902E7
:10221000072E000C880B990B0E94950C88E092E029
:102220000E943C0B04C08BE092E00E944E0B109287
:102230009F0210929E0210929D0210929C02109298
:102240009B0210929A021092990210929802CE016B
:10225000895A9F4F0E94BB040E94A00112CD61E5E4
:1022600071E0CE0101960E94C004BE016F5F7F4FF6
:10227000CE018F5A9F4F0E947B0C8C01CE0101969C
:102280000E94BB040F3F1F4F09F4D9C061E571E004
:10229000CE0101960E94C004BE016F5F7F4FCE0148
:1022A0008F5A9F4F0E947B0C9C0140E050E0BE0182
:1022B0006F5A7F4FCE018B5B9F4F0E94D504CE019A
:1022C0008B5B9F4F0E94D50370939D0260939C028D
:1022D000CE018B5B9F4F0E94BB04CE0101960E94F2
:1022E000BB0467960EAD1FAD679761E571E0CE0147
:1022F00001960E94C004BE016F5F7F4FCE018F5ACE
:102300009F4F0E947B0CAC014F5F5F4F9801BE0155
:102310006F5A7F4FCE01855B9F4F0E94D504CE013F
:1023200001960E94BB0461962EAD3FAD6197679602
:102330008EAD9FAD67972817390759F4BE016F5AC4
:102340007F4FCE01855B9F4F0E94FF03892B09F4CD
:1023500072C061E571E0CE0101960E94C004BE0129
:102360006F5F7F4FCE01855B9F4F0E947B0C8C017E
:10237000CE0101960E94BB040F3F1F4F09F479C0A4
:1023800061E571E0CE0101960E94C004BE016F5F5D
:102390007F4FCE01855B9F4F0E947B0C9C0140E0EC
:1023A00050E0BE01655B7F4FCE018B5B9F4F0E946B
:1023B000D504CE018B5B9F4F0E94D50370939B0287
:1023C00060939A02CE018B5B9F4F0E94BB04CE01AB
:1023D00001960E94BB0461960EAD1FAD619761E549
:1023E00071E0CE0101960E94C004BE016F5F7F4F75
:1023F000CE01855B9F4F0E947B0CAC014F5F5F4F0E
:102400009801BE01655B7F4FCE018B5B9F4F0E94A1
:10241000D504CE018B5B9F4F0E94D5037093990228
:1024200060939802CE018B5B9F4F0E94BB04CE014C
:1024300001960E94BB04CE01855B9F4F17C0679633
:102440002EAD3FAD679740E050E0BE016F5A7F4F21
:10245000CE0101960E94D504CE0101960E94D503BB
:1024600070939D0260939C02CE0101960E94BB0472
:1024700019CD61962EAD3FAD619740E050E0BE01B1
:10248000655B7F4FCE0101960E94D504CE01019677
:102490000E94D50370939B0260939A02C8CFE4EA2E
:1024A000F2E01382128288EE93E0A0E0B0E0848331
:1024B0009583A683B78324E231E03183208325EC22
:1024C00030E03587248724EC30E03787268720ECFE
:1024D00030E0318B208B21EC30E0338B228B22ECEF
:1024E00030E0358B248B26EC30E0378B268B118E39
:1024F000128E138E148EE9E1F4E01382128284832B
:102500009583A683B78386E391E0918380836AE015
:1025100072E083E194E00E94C0046AE072E08DE022
:1025200094E00E94C0042CE04BE061E089EC93E071
:102530000E94D90922E046E061E085E893E00E942C
:10254000D90925E044E061E081E493E00C94D909E5
:102550001F93FC0199278827BC01E8941191103240
:10256000E9F3193010F01E30C8F31B3251F01D3260
:1025700049F4689406C00E94CF12610F711D811D3D
:10258000911D119110531A30B0F33EF4909580953F
:10259000709561957F4F8F4F9F4F1F910895592FD1
:1025A000482F372F262F660F771F881F991F660F1A
:1025B000771F881F991F620F731F841F951F660F57
:1025C000771F881F991F08950E94261308F481E041
:1025D0000895E89409C097FB3EF490958095709516
:1025E00061957F4F8F4F9F4F9923A9F0F92F96E95F
:1025F000BB279395F695879577956795B795F111D4
:10260000F8CFFAF4BB0F11F460FF1BC06F5F7F4F70
:102610008F4F9F4F16C0882311F096E911C0772382
:1026200021F09EE8872F762F05C0662371F096E88B
:10263000862F70E060E02AF09A95660F771F881F5A
:10264000DAF7880F9695879597F90895990F0008FE
:10265000550FAA0BE0E8FEEF16161706E807F90774
:10266000C0F012161306E407F50798F0621B730B0F
:10267000840B950B39F40A2661F0232B242B252B90
:1026800021F408950A2609F4A140A6958FEF811D33
:10269000811D08950E945D130C94CE130E94C013F7
:1026A00038F00E94C71320F0952311F00C94B71353
:1026B0000C94BD1311240C9402140E94DF1370F3C8
:1026C000959FC1F3950F50E0551F629FF001729FD7
:1026D000BB27F00DB11D639FAA27F00DB11DAA1FE6
:1026E000649F6627B00DA11D661F829F2227B00D33
:1026F000A11D621F739FB00DA11D621F839FA00DBE
:10270000611D221F749F3327A00D611D231F849F0D
:10271000600D211D822F762F6A2F11249F57504064
:102720009AF0F1F088234AF0EE0FFF1FBB1F661FDF
:10273000771F881F91505040A9F79E3F510580F0A8
:102740000C94B7130C9402145F3FE4F3983ED4F357
:10275000869577956795B795F795E7959F5FC1F74C
:10276000FE2B880F911D9695879597F9089597F9F7
:102770009F6780E870E060E008959FEF80EC089527
:1027800000240A9416161706180609060895002450
:102790000A9412161306140605060895092E0394CA
:1027A000000C11F4882352F0BB0F40F4BF2B11F43E
:1027B00060FF04C06F5F7F4F8F4F9F4F089557FD9D
:1027C0009058440F551F59F05F3F71F04795880F9F
:1027D00097FB991F61F09F3F79F087950895121636
:1027E00013061406551FF2CF4695F1DF08C01616E2
:1027F00017061806991FF1CF869571056105089493
:102800000895E894BB2766277727CB0197F90895A9
:102810002F923F924F925F926F927F928F929F92F0
:10282000AF92BF92CF92DF92EF92FF920F931F93DE
:10283000CF93DF93CDB7DEB7CA1BDB0B0FB6F8948F
:10284000DEBF0FBECDBF09942A88398848885F84CF
:102850006E847D848C849B84AA84B984C884DF8040
:10286000EE80FD800C811B81AA81B981CE0FD11D24
:102870000FB6F894DEBF0FBECDBFED0108955058DE
:10288000BB27AA270E9457140C94CE130E94C01392
:1028900038F00E94C71320F039F49F3F19F426F452
:1028A0000C94BD130EF4E095E7FB0C94B713E92FDD
:1028B0000E94DF1358F3BA1762077307840795075E
:1028C00020F079F4A6F50C9401140EF4E0950B2E8B
:1028D000BA2FA02D0B01B90190010C01CA01A00172
:1028E0001124FF27591B99F0593F50F4503E68F1CD
:1028F0001A16F040A22F232F342F4427585FF3CF0E
:10290000469537952795A795F0405395C9F77EF4DE
:102910001F16BA0B620B730B840BBAF09150A1F027
:10292000FF0FBB1F661F771F881FC2F70EC0BA0FAD
:10293000621F731F841F48F4879577956795B79535
:10294000F7959E3F08F0B0CF9395880F08F0992730
:10295000EE0F9795879508950E94C0140C94CE139E
:102960000E94C71358F00E94C01340F029F45F3F43
:1029700029F00C94B71351110C9402140C94BD134C
:102980000E94DF1368F39923B1F3552391F3951B4C
:10299000550BBB27AA2762177307840738F09F5F80
:1029A0005F4F220F331F441FAA1FA9F335D00E2EED
:1029B0003AF0E0E832D091505040E695001CCAF75A
:1029C0002BD0FE2F29D0660F771F881FBB1F26171D
:1029D00037074807AB07B0E809F0BB0B802DBF01F4
:1029E000FF2793585F4F3AF09E3F510578F00C94C3
:1029F000B7130C9402145F3FE4F3983ED4F386952A
:102A000077956795B795F7959F5FC9F7880F911DE3
:102A10009695879597F90895E1E0660F771F881FCF
:102A2000BB1F621773078407BA0720F0621B730B82
:102A3000840BBA0BEE1F88F7E09508950E942515C8
:102A40006894B1110C94021408950E94E71388F061
:102A50009F5798F0B92F9927B751B0F0E1F0660F62
:102A6000771F881F991F1AF0BA95C9F714C0B130A3
:102A700091F00E940114B1E008950C940114672FA5
:102A8000782F8827B85F39F0B93FCCF386957795D2
:102A90006795B395D9F73EF49095809570956195BB
:102AA0007F4F8F4F9F4F08950E94261308F48FEF9A
:102AB0000895A1E21A2EAA1BBB1BFD010DC0AA1F7F
:102AC000BB1FEE1FFF1FA217B307E407F50720F097
:102AD000A21BB30BE40BF50B661F771F881F991F12
:102AE0001A9469F760957095809590959B01AC015B
:102AF000BD01CF010895052E97FB1EF400940E949E
:102B0000921557FD07D00E94591507FC03D04EF4CB
:102B10000C94921550954095309521953F4F4F4F0D
:102B20005F4F089590958095709561957F4F8F4F79
:102B30009F4F0895EE0FFF1F0590F491E02D09942B
:102B40000F931F93CF93DF938230910510F482E0AF
:102B500090E0E0912704F091280420E030E0A0E02C
:102B6000B0E0309719F140815181028113814817FB
:102B70005907C8F08417950769F4109731F0129639
:102B80000C93129713961C9327C00093270410935D
:102B9000280422C02115310519F04217530718F4F3
:102BA0009A01BD01EF01DF01F801DBCF21153105ED
:102BB000F9F0281B390B2430310580F48A819B8180
:102BC0006115710521F0FB019383828304C090930A
:102BD000280480932704FE01329644C0FE01E20FD0
:102BE000F31F8193919322503109398328833AC08E
:102BF0002091250430912604232B41F420910201D9
:102C00003091030130932604209325042091000184
:102C1000309101012115310541F42DB73EB74091A6
:102C2000040150910501241B350BE0912504F0911E
:102C30002604E217F307A0F42E1B3F0B28173907D1
:102C400078F0AC014E5F5F4F2417350748F04E0F08
:102C50005F1F50932604409325048193919302C0F3
:102C6000E0E0F0E0CF01DF91CF911F910F91089547
:102C7000CF93DF93009709F481C0FC013297138250
:102C80001282A0912704B0912804109781F420812A
:102C90003181820F931F209125043091260428173B
:102CA000390751F5F0932604E093250467C0ED0140
:102CB00020E030E0CE17DF0740F44A815B819E01BF
:102CC00041155105F1F0EA01F5CFD383C28340816C
:102CD0005181840F951FC817D90759F488819981AC
:102CE000840F951F0296918380838A819B819383B1
:102CF00082832115310529F4F0932804E0932704F9
:102D00003DC0E901FB83EA8349915991C40FD51F66
:102D1000EC17FD0761F480819181840F951F029665
:102D2000E90199838883828193819B838A83E0E090
:102D3000F0E012968D919C911397009719F0FD0188
:102D4000DC01F7CF8D919C9111979D012E5F3F4F34
:102D5000820F931F209125043091260428173907EC
:102D600069F4309729F4109228041092270402C0C5
:102D700013821282B0932604A0932504DF91CF9191
:102D80000895A0E0B0E0E7ECF6E10C940C14EC013F
:102D9000009721F4CB010E94A015B4C0FC01E60FFE
:102DA000F71F9C0122503109E217F30708F4A8C06D
:102DB000D9010D911C91119706171707B0F0053036
:102DC000110508F49BC0C80104978617970708F4FB
:102DD00095C002501109061B170B019311936D93B7
:102DE0007C93CF010E94381689C05B01A01AB10AFA
:102DF0004C01800E911EA0912704B0912804612CF3
:102E0000712CE12CF12C109709F446C08D919C9106
:102E10001197A815B905B1F56C0142E0C40ED11C9B
:102E2000CA14DB0478F14C018A189B08640142E063
:102E3000C40ED11C1296BC9012971396AC91B5E0BB
:102E4000CB16D10440F0B282A38391828082D90153
:102E50006D937C9309C00E5F1F4F800F911FF90186
:102E600091838083EB2DFA2FE114F10431F0D70127
:102E70001396FC93EE93129741C0F0932804E093CD
:102E800027043CC06816790608F43C017D011296BF
:102E90000D90BC91A02DB7CF809125049091260470
:102EA00088169906E1F466167706C8F48091000149
:102EB00090910101009741F48DB79EB740910401B4
:102EC00050910501841B950BE817F907C8F4F0939E
:102ED0002604E0932504F901718360830FC0CB01C0
:102EE0000E94A0157C01009759F0A801BE010E9424
:102EF0008717CE010E943816C70104C0CE0102C058
:102F000080E090E0CDB7DEB7EEE00C942814FB0132
:102F1000DC0102C001900D9241505040D8F7089555
:102F2000FB01DC018D91019080190110D9F3990BFF
:102F30000895FB01DC0101900D920020E1F7089556
:102F4000FB0151915523A9F0BF01DC014D914517BB
:102F50004111E1F759F4CD010190002049F04D9164
:102F600040154111C9F3FB014111EFCF81E090E021
:102F70000197089510E0C2E7D0E004C0FE010E946E
:0E2F80009A152196C337D107C9F7F894FFCFF1
:102F8E000000290480000000000091065D06E9059E
:102F9E0031031B03E302C2028E026D021702D3013C
:102FAE000000000031019E00C8007E01F900D7002C
:102FBE00EB0000000000C103B603D203A803AF0369
:102FCE00AC03A90353455455503A205265616479B8
:102FDE000023005245534554004C3A205265736508
:102FEE0074210050494E47004C3A20506F6E6721B5
:102FFE00004452415745525F474F5F544F5F424125
:10300E00434B004452415745525F474F5F544F5F09
:10301E004241434B3A20446F6E650044524157453E
:10302E00525F474F5F544F5F46524F4E54004452CB
:10303E00415745525F474F5F544F5F46524F4E5474
:10304E003A20446F6E6500454C455641544F525FD1
:10305E00474F5F544F00454C455641544F525F47C2
:10306E004F5F544F3A20446F6E6520776974682025
:10307E000020706F736974696F6E00434D44004396
:10308E004D443A20002020000D0A00453A20696E7A
:10309E0076616C696420636F6D6D616E644E616DF7
:0230AE006500BB
:00000001FF
