:100000000C9473000C949B000C949B000C94360988
:100010000C9436090C9436090C949B000C949B00AC
:100020000C949B000C949B000C949B000C949B00E4
:100030000C949B000C949B000C949B000C949B00D4
:100040000C943E070C949B000C948F050C9469054E
:100050000C949B000C949B000C949B000C949B00B4
:100060000C9440090C949B00EB01F101F701FD0198
:10007000030209020F02400347034E0355035C03CA
:100080007303630373036A03000000002400270066
:100090002A0000000000250028002B0000000000BE
:1000A00023002600290004040404040404040202BA
:1000B00002020202030303030303010204081020E7
:1000C00040800102040810200102040810200000F2
:1000D0000008000201000003040700000000000007
:1000E00000002314D90D11241FBECFEFD8E0DEBFCE
:1000F000CDBF24E0A2E7B2E001C01D92AC3EB20742
:10010000E1F712E0A0E0B1E0EAEAF3E302C0059013
:100110000D92A237B107D9F710E0C2E7D0E004C0D2
:100120002197FE010E94A817C137D107C9F70E9485
:10013000E50D0C94C8190C9400000895CF92DF923D
:10014000EF92FF920F931F93CF93DF936C017A018D
:100150008B01C0E0D0E0CE15DF0581F0D8016D91B4
:100160008D01D601ED91FC910190F081E02DC60149
:100170000995892B11F02196EECF7E01C701DF9101
:10018000CF911F910F91FF90EF90DF90CF90089546
:10019000FC01538D448D252F30E0842F90E0821B8D
:1001A000930B541710F0CF96089501970895FC0112
:1001B000918D828D981761F0828DDF01A80FB11D9E
:1001C0005D968C91928D9F5F9F73928F90E00895C2
:1001D0008FEF9FEF0895FC01918D828D981731F07C
:1001E000828DE80FF11D858D90E008958FEF9FEFD0
:1001F0000895FC01918D228D892F90E0805C9F4FA6
:10020000821B91098F73992708958AEE92E00E94CC
:10021000F90021E0892B09F420E0822F0895FC01E8
:10022000848DDF01A80FB11DA35ABF4F2C91848D7F
:1002300090E001968F739927848FA689B7892C93B4
:10024000A089B1898C91837080648C93938D848D07
:10025000981306C00288F389E02D80818F7D80830A
:100260000895EF92FF920F931F93CF93DF93EC01CA
:1002700081E0888F9B8D8C8D981305C0E889F98962
:10028000808185FD26C0F62E0B8D10E00F5F1F4F7D
:100290000F731127E02E8C8DE8120CC00FB607FCEF
:1002A000FACFE889F989808185FFF5CFCE010E94D8
:1002B0000F01F1CF8B8DFE01E80FF11DE35AFF4FC7
:1002C000F0829FB7F8940B8FEA89FB898081806266
:1002D0000AC09FB7F894EE89FF896083E889F9899D
:1002E00080818370806480839FBF81E090E0DF9194
:1002F000CF911F910F91FF90EF900895CF93DF93CF
:10030000EC01888D8823C9F0EA89FB89808185FD0D
:1003100005C0A889B9898C9186FD0FC00FB607FC6E
:10032000F5CF808185FFF2CFA889B9898C9185FFAF
:10033000EDCFCE010E940F01E7CFDF91CF9108955D
:1003400080E090E0892B29F00E94050181110C9436
:1003500000000895833081F028F4813099F08230D4
:10036000A1F008958730A9F08830B9F08430D1F435
:10037000809180008F7D03C0809180008F77809373
:100380008000089584B58F7702C084B58F7D84BDC9
:1003900008958091B0008F7703C08091B0008F7D69
:1003A0008093B0000895CF93DF9347705527662759
:1003B0007727FA013197EC01A881B981E730F1057F
:1003C00020F4EC5CFF4F0C94A8171496ED91FC916F
:1003D000159761E029C01496ED91FC91159765E0A1
:1003E00023C01496ED91FC91159764E01DC01496FE
:1003F000ED91FC91159766E017C01496ED91FC9174
:10040000159762E011C01496ED91FC9115976AE082
:100410000BC01496ED91FC91159768E005C01496F9
:10042000ED91FC91159769E0DF91CF910994CF93FD
:10043000DF93EC01CB01BA0126E030E040E050E070
:100440000E948917623071058105910559F18CF47C
:100450006115710581059105F1F061307105810526
:100460009105C1F5E881F9810480F581E02D65E011
:100470002DC0643071058105910511F1D4F065300E
:1004800071058105910531F5E881F9810480F581D7
:10049000E02D66E01BC0E881F9810480F581E02D44
:1004A00064E014C0E881F9810480F581E02D61E009
:1004B0000DC0E881F9810480F581E02D63E006C07C
:1004C000E881F9810480F581E02D62E0CE01DF91C1
:1004D000CF910994DF91CF910895437055276627F6
:1004E0007727DC01ED91FC910480F581E02D42300D
:1004F00051056105710571F04330510561057105C4
:1005000059F0413051056105710511F065E005C0F4
:1005100066E003C06AE001C069E00994CF93DF930D
:10052000EC01CB01BA0123E030E040E050E00E9452
:100530008917613071058105910581F0623071057F
:100540008105910591F0672B682B692BC1F4E88137
:10055000F9810480F581E02D64E00DC0E881F98126
:100560000480F581E02D61E006C0E881F981048016
:10057000F581E02D62E0CE01DF91CF910994DF910A
:10058000CF9108954370552766277727DC01ED91B9
:10059000FC910480F581E02D423051056105710523
:1005A00071F0433051056105710559F04130510535
:1005B0006105710511F062E005C063E003C061E010
:1005C00001C060E00994CF93DF93EC01E881F981E9
:1005D0000480F581E02D8A81811102C060E001C0B4
:1005E00062E0CE010995E881F9810480F581E02D72
:1005F0008A81811102C061E001C063E0CE010995EA
:100600008CA59DA58230910538F0880F991F880F21
:10061000991F05970197F1F7E881F9810480F58129
:10062000E02D8A81811102C060E001C062E0CE014C
:10063000DF91CF910994CF93DF93EC0120E030E07C
:10064000A9016C897D898E899F890E94621718167D
:100650001CF4E8A9F9A902C0EAA9FBA9DF91CF918E
:1006600009940F931F93DC011396EC910E2F10E069
:1006700009301105C0F5F801E55CFF4F0C94A8178F
:10068000DC01ED91FC910084F185E02D29C0DC01B5
:10069000ED91FC910284F385E02D22C0DC01ED9107
:1006A000FC910484F585E02D1BC0DC01ED91FC91EB
:1006B0000684F785E02D14C0DC01ED91FC910088E3
:1006C000F189E02D0DC0DC01ED91FC910288F389E8
:1006D000E02D06C0DC01ED91FC910488F589E02D48
:1006E0001F910F9109941F910F91089585ED8093AB
:1006F000BC008091BC0084FDFCCF1092C30408951F
:100700004091B202262F30E0240F311D21323105F5
:10071000DCF42091C3042430C9F4FC0180E090E0B3
:10072000861758F43091B2022191DC01AE56BD4FCC
:10073000A30FB11D2C930196F3CF8091B202680FE5
:100740006093B20280E0089581E0089582E0089508
:10075000089508950895E0919C0480919B04E81702
:1007600030F4F0E0EE58FD4F808190E008958FEF77
:100770009FEF089590919C0480919B04981750F4EA
:10078000E92FF0E0EE58FD4F208130E09F5F90931D
:100790009C0402C02FEF3FEFC901089580919B0494
:1007A00090E020919C04821B91090895CF92DF92E2
:1007B000EF92FF920F931F93CF93DF937C01CB01B6
:1007C0008A012091C404222389F0EB016B01C40E3D
:1007D000D51ECC15DD0569F06991D701ED91FC912D
:1007E0000190F081E02DC7010995F3CF642F0E949D
:1007F0008003C801DF91CF911F910F91FF90EF907F
:10080000DF90CF900895CF93DF931F92CDB7DEB7DF
:1008100069832091C4042223D1F02091E70420327F
:1008200040F021E030E0FC013383228380E090E05F
:1008300015C08091C504E82FF0E0EA53FB4F998181
:1008400090838F5F8093C5048093E70405C061E0C7
:10085000CE0101960E94800381E090E00F90DF912D
:10086000CF91089580E090E00895FC01808191810E
:10087000009711F00C94B61460E070E0CB0108957D
:10088000FC0124813581232B31F421E061157105B0
:10089000A1F0FB0108C0FC01808191816115710507
:1008A00031F421E0FC018081882339F005C00E94E9
:1008B0009E1921E0892B09F020E0822F08950F93E3
:1008C0001F93CF93DF938C01EB01FC018081918119
:1008D000009739F06881798161157105A1F40E9452
:1008E000461888819981F801918380838A819B8150
:1008F000938382838C819D8195838483198218825E
:100900001B821A820FC0F801428153812C813D81E4
:100910004217530720F30E94A7198C819D81F8018B
:10092000958384831D821C82DF91CF911F910F914B
:1009300008950F931F93CF93DF93EC0188819981E2
:10094000009729F02A813B812617370788F48B010D
:100950006F5F7F4F0E94CF18009761F09983888363
:100960001B830A832C813D81232B11F4FC0110820F
:1009700081E001C080E0DF91CF911F910F91089538
:10098000EF92FF920F931F93CF93DF93EC017B01C4
:100990008A01BA010E9499042881398181110DC010
:1009A0002115310519F0C9010E94461819821882D3
:1009B0001D821C821B821A8206C01D830C83B70114
:1009C000C9010E94A719CE01DF91CF911F910F910C
:1009D000FF90EF900895FC01808191810C9446185E
:1009E000FC01118210821382128215821482611519
:1009F000710551F0FB0101900020E9F73197AF013B
:100A0000461B570B0C94C0040895BF92CF92DF92FF
:100A1000EF92FF920F931F93CF93DF937C016B01B3
:100A2000EA0189012417350720F48D2FE901042FED
:100A3000182F6BEB71E0C7010E94F004D6011496E9
:100A40008D919C911597C817D907C0F5801791070C
:100A500008F48C01D601ED91FC911197E00FF11F84
:100A6000B08010826D917C916C0F7D1F61157105B6
:100A700061F0FB0101900020E9F73197AF01461BBF
:100A8000570BC7010E94C00413C0F70180819181F8
:100A9000009711F00E944618D70111961C921E92E1
:100AA00015961C921E92149713961C921E921297E2
:100AB000D601ED91FC91E00FF11FB082C701DF91EB
:100AC000CF911F910F91FF90EF90DF90CF90BF904B
:100AD00008951F920F920FB60F9211242F933F93F8
:100AE0004F935F936F937F938F939F93AF93BF9336
:100AF000EF93FF938AEE92E00E940F01FF91EF9136
:100B0000BF91AF919F918F917F916F915F914F9125
:100B10003F912F910F900FBE0F901F9018951F922D
:100B20000F920FB60F9211242F938F939F93EF93F1
:100B3000FF93E091FA02F091FB028081E0910003C3
:100B4000F091010382FD12C09081809103038F5FB9
:100B50008F7320910403821751F0E0910303F0E0BA
:100B6000E651FD4F958F8093030301C08081FF9173
:100B7000EF919F918F912F910F900FBE0F901F902B
:100B80001895CF93DF93282F30E0F901E253FF4F00
:100B90008491F901E654FF4FD491F901EA55FF4FD2
:100BA000C491CC2391F081110E94AA01EC2FF0E0B6
:100BB000EE0FFF1FE456FF4FA591B491EC91ED238A
:100BC00081E090E021F480E002C080E090E0DF91DD
:100BD000CF9108951F93CF93DF93282F30E0F90131
:100BE000E253FF4F8491F901E654FF4FD491F9018C
:100BF000EA55FF4FC491CC23C1F0162F81110E94FA
:100C0000AA01EC2FF0E0EE0FFF1FEE56FF4FA5916B
:100C1000B4919FB7F894111104C08C91D095D8234A
:100C200002C0EC91DE2BDC939FBFDF91CF911F912F
:100C30000895CF92DF92EF92FF920F931F93CF937D
:100C4000DF93EC019B81943041F0983031F0933088
:100C500031F0963021F012E003C014E001C013E03F
:100C60002496E12CF12CC62ED12C01E0C6010E2CCD
:100C700002C0959587950A94E2F76C8180FD602704
:100C800089910E94EA058FEFE81AF80AE11670F3DD
:100C9000DF91CF911F910F91FF90EF90DF90CF9058
:100CA0000895CF93DF9390E0FC01E654FF4F249129
:100CB000FC01EA55FF4F8491882361F190E0880F91
:100CC000991FFC01E857FF4FC591D491FC01EE56E6
:100CD000FF4FA591B491611109C09FB7F894888125
:100CE000209582238883EC912E230BC0623061F41F
:100CF0009FB7F8948881322F309583238883EC91B5
:100D00002E2B2C939FBF06C08FB7F894E8812E2B13
:100D100028838FBFDF91CF910895CF93DF93FC019C
:100D20002381222359F1EC0161E084810E94510664
:100D300061E08D810E9451068B81843011F08830F2
:100D400039F461E08E810E94510661E08F8106C016
:100D5000833011F0863021F461E08E810E945106CB
:100D60008FA58F3F59F061E00E9451066EA581E08A
:100D700068278FA5DF91CF910C94EA05DF91CF9181
:100D80000895CF93DF93FC0123812223A9F0EC0186
:100D90000190F081E02D0480F581E02D60E009955F
:100DA0008FA58F3F49F061E00E9451066EA58FA587
:100DB000DF91CF910C94EA05DF91CF9108953FB771
:100DC000F8948091D8029091D902A091DA02B09162
:100DD000DB0226B5A89B05C02F3F19F00196A11D87
:100DE000B11D3FBFBA2FA92F982F8827820F911DC1
:100DF000A11DB11DBC01CD0142E0660F771F881F08
:100E0000991F4A95D1F708958F929F92AF92BF9202
:100E1000CF92DF92EF92FF926B017C010E94DF067E
:100E20004B015C01C114D104E104F104F1F00E9412
:100E3000DF06DC01CB0188199909AA09BB09883EA4
:100E40009340A105B10570F321E0C21AD108E10871
:100E5000F10888EE880E83E0981EA11CB11CC11415
:100E6000D104E104F10419F7DDCFFF90EF90DF909A
:100E7000CF90BF90AF909F908F9008951F920F9248
:100E80000FB60F9211242F933F938F939F93AF939D
:100E9000BF938091E6029091E702A091E802B091A1
:100EA000E9023091D70223E0230F2D3720F4019679
:100EB000A11DB11D05C026E8230F0296A11DB11D7D
:100EC0002093D7028093E6029093E702A093E80272
:100ED000B093E9028091D8029091D902A091DA02F0
:100EE000B091DB020196A11DB11D8093D8029093B1
:100EF000D902A093DA02B093DB02BF91AF919F9128
:100F00008F913F912F910F900FBE0F901F901895CA
:100F100034E0660F771F3A95E1F7411161602111C6
:100F20006460FC0126813781121613060CF4686098
:100F3000FC01848191E09093C4048093E6041092B4
:100F4000C5041092E70487E893E00E9403040C9420
:100F50004B0DFF920F931F93CF93DF93EC018B0107
:100F6000F42E21E00E94880720E04F2DB801CE0129
:100F70000E9488078FE890E00197F1F7DF91CF9109
:100F80001F910F91FF900895FF920F931F93CF939E
:100F9000DF938C01EB01F42E84E0759567958A95BB
:100FA000E1F76F707727C8010E94A907BE016F7033
:100FB00077274F2DC801DF91CF911F910F91FF909F
:100FC0000C94A90770E041E00E94C40781E090E022
:100FD00008954F925F926F927F928F929F92AF92FD
:100FE000BF92CF92DF92EF92FF920F931F93CF9316
:100FF000DF93EC01C888D988EA88FB888C859D85B9
:10100000AE85BF85C81AD90AEA0AFB0A6C897D89B0
:101010008E899F899B01AC010E9458154B015C0190
:101020006C8D7D8D8E8D9F8D9B01AC010E944E1627
:101030009B01AC01C501B4010E94BA160E942C1795
:10104000C114D104E104F10499F462307105810501
:1010500091050CF076C01CA21DA21EA21FA21C8A24
:101060001D8A1E8A1F8A1CAA1DAA1EAA1FAAEDC0BD
:101070000CA91DA92EA93FA91C141D041E041F04A0
:10108000FCF410161106120613064CF46C157D05BF
:101090008E059F054CF52A81211153C025C00115ED
:1010A00011052105310509F44CC06C157D058E052F
:1010B0009F050CF046C08A81882309F442C036C0DF
:1010C0001016110612061306ECF4002711279801DA
:1010D0000C191D092E093F09601771078207930734
:1010E0001CF42A81222369F19B01AC0188279927EE
:1010F000DC01821B930BA40BB50B8CAB9DABAEAB91
:10110000BFAB1FC00115110521053105D1F08824A1
:10111000992454018C189D08AE08BF0868157905FC
:101120008A059B0574F48A8181110BC03095209546
:10113000109501951F4F2F4F3F4F0CAB1DAB2EABA2
:101140003FAB8CA89DA8AEA8BFA881149104A104B0
:10115000B10489F488AD99ADAAADBBAD8CAF9DAF9C
:10116000AEAFBFAF81E01C141D041E041F040CF0C1
:1011700080E08A833FC0CCACDDACEEACFFACA70115
:101180009601C701B6010E944E162B013C01C50114
:10119000B4010E94F91420E030E040E850E40E94DD
:1011A000581520E030E040E85FE30E944E169B01B6
:1011B000AC01C301B2010E94BA169B01AC01C70188
:1011C000B6010E944D163B016C01FE01E05CFF4F31
:1011D000E080F180028113819701A8010E946217CB
:1011E000181614F473018601C701D8018CAF9DAFA6
:1011F000AEAFBFAF3FEF831A930AA30AB30A8CAA1C
:101200009DAAAEAABFAACCACDDACEEACFFACC701C8
:10121000B6010E9433176CA37DA38EA39FA3A701E1
:10122000960160E074E284E799E40E94BA166C8B40
:101230007D8B8E8B9F8B2A81211107C0DC01CB0116
:10124000B0588C8B9D8BAE8BBF8BDF91CF911F9154
:101250000F91FF90EF90DF90CF90BF90AF909F9055
:101260008F907F906F905F904F9008951F920F9294
:101270000FB60F9211240F900FBE0F901F9018956C
:101280001F920F920FB60F9211242F933F934F93FB
:101290005F936F937F938F939F93AF93BF93EF93DE
:1012A000FF938091B900887F803609F49CC068F56F
:1012B000883209F45BC090F4803109F454C038F4EA
:1012C000882309F4F6C0883009F44DC0F6C088318F
:1012D00009F44CC0803209F45DC0EFC0803409F4D9
:1012E00068C048F4803309F455C0883309F0E5C07C
:1012F0008093C104D8C0803509F44FC0883509F403
:101300005DC0883409F0D9C0D6C0883909F4C7C097
:10131000A8F4883709F467C038F4883609F463C044
:10132000803709F460C0C9C0883809F4B8C0803972
:1013300009F45FC0803809F0C0C05BC0803B09F48D
:1013400086C038F4803A09F466C0883A09F47FC050
:10135000B4C0803C09F4A7C0883C09F4A4C0883B11
:1013600009F48AC0AAC080919E0410C09091C00464
:101370008091BF04981770F5E091C00481E08E0F52
:101380008093C004F0E0E156FB4F80818093BB0066
:1013900085EC86C08093C1048EC0E091C00481E0DA
:1013A0008E0F8093C0048091BB00F0E0E156FB4FAC
:1013B00080839091C0048091BF046EC0E091C0040E
:1013C00081E08E0F8093C0048091BB00F0E0E15675
:1013D000FB4F80838091C20481116DC081E08093B6
:1013E0009D0484EA61C083E08093C3041092D40218
:1013F000CFCF8091D402803208F051C0E091D40266
:1014000081E08E0F8093D4028091BB00F0E0EC5419
:10141000FD4F8083BDCF85EC8093BC001092C30448
:101420008091D402803230F4E091D402F0E0EC54A8
:10143000FD4F10826091D40270E0E0919704F0912A
:10144000980484EB92E009951092D40236C084E0AF
:101450008093C3041092B3021092B202E0919904F7
:10146000F0919A0409958091B202811105C081E042
:101470008093B20210929202E091B30281E08E0F4B
:101480008093B302F0E0EE56FD4F80818093BB0065
:101490009091B3028091B202981708F479CF85E851
:1014A0008093BC000AC085EC8093BC001092C304FA
:1014B00004C01092C1040E947603FF91EF91BF9186
:1014C000AF919F918F917F916F915F914F913F91DC
:1014D0002F910F900FBE0F901F901895FC01248143
:1014E0003581FB01448155812417350721F5FC0125
:1014F00080819181FB0160817181009719F06115F4
:101500007105A1F46115710549F0232BB1F0FB01C0
:10151000808190E09195819591090AC0009769F0CA
:10152000232B59F0FC01808190E002C00E949E199B
:1015300021E0892B19F020E001C021E081E0822721
:101540000895CF92DF92EF92FF92CF93DF93EC0159
:10155000CC8CDD8CEE8CFF8C20E030E040E85FE34B
:10156000C701B6010E94F214882349F16CA97DA934
:101570008EA99FA90E94F914A70196010E945815EF
:101580000E942C176CAB7DAB8EAB9FAB86E896E6CA
:10159000A9E6B9E488AF99AFAAAFBBAF80E090E00D
:1015A000A0E8BFE38C8F9D8FAE8FBF8FCE01DF9100
:1015B000CF91FF90EF90DF90CF900C94E907DF91EF
:1015C000CF91FF90EF90DF90CF90089561E0FC0104
:1015D00080810C94EA05CF92DF92EF92FF92CF9335
:1015E000DF93EC0161E088810E94510660E08A810E
:1015F0000E9451068C819D818F3F2FEF920719F039
:1016000060E00E945106CE010E94E60A20E030E030
:101610004AE754E468A179A18AA19BA10E94F2142F
:10162000882309F440C080E090E0AAE7B4E488A3EE
:1016300099A3AAA3BBA3FE01E85BFF4F808391831C
:10164000A283B3838CAD9DADAEADBFAD18161906A8
:101650001A061B0644F56C8D7D8D8E8D9F8D9B012A
:10166000AC010E9458156B017C016CA17DA18EA17B
:101670009FA19B01AC010E944E169B01AC01C701CA
:10168000B6010E94BA160E942C176CAF7DAF8EAFC8
:101690009FAFCE010896DF91CF91FF90EF90DF9042
:1016A000CF900C94E907DF91CF91FF90EF90DF90FE
:1016B000CF900895009769F0FC0101900020E9F7B0
:1016C0003197AF01481B590BBC018AEE92E00C9494
:1016D0009E0080E090E00895CF93DF930E945A0B24
:1016E000EC0189EB91E00E945A0B8C0F9D1FDF915A
:1016F000CF910895CF92DF92EF92FF92CF93DF9335
:10170000FC0126813781232B09F46DC0EC0184A5EF
:1017100095A5A6A5B7A5892B8A2B8B2BA9F10E948D
:10172000DF066B017C0188A999A9AAA9BBA9B70109
:10173000A601481B590B6A0B7B0B8CA59DA5AEA57A
:10174000BFA5481759076A077B07F0F02A858C89DF
:101750009D89AE89BF89222321F00196A11DB11D6B
:1017600003C00197A109B1098C8B9D8BAE8BBF8BF8
:101770004C895D896E897F89CE0108960E9431036C
:10178000C8AAD9AAEAAAFBAA8E819F8118161906AF
:101790006CF48A810E94C105892B41F4CE010E941C
:1017A000E60A1F821E8280E392E015C08C819D8133
:1017B0008F3FFFEF9F07B9F02E813F8137FF13C0A6
:1017C0000E94C105892B79F4CE010E94E60A1F828E
:1017D0001E8282E592E0DF91CF91FF90EF90DF9043
:1017E000CF900C946C0BDF91CF91FF90EF90DF9036
:1017F000CF9008954F925F926F927F92AF92BF9277
:10180000CF92DF92EF92FF920F931F93CF93DF93CC
:10181000EC018B017F836E8360E088810E94EA0582
:10182000B801110F880B990B0E94F9145B018C0110
:101830002C8D3D8D4E8D5F8D0E94F214882309F40E
:101840004CC0C8A0D9A0EAA0FBA02601370177FAB6
:10185000709477F87094A3019201B501C8010E94B9
:10186000F21487FD0BC0A7019601B501C8010E94C3
:10187000621718162CF06501780102C0730162012D
:1018800020E030E0A901C701B6010E94F2148111E5
:1018900005C01CA61DA61EA61FA61BC0A70196015B
:1018A00060E074E284E799E40E94BA169F770E9490
:1018B00033176CA77DA78EA79FA711E020E030E02B
:1018C000A901C701B6010E94621718160CF010E0BA
:1018D0001A87CC8EDD8EEE8EFF8EDF91CF911F9119
:1018E0000F91FF90EF90DF90CF90BF90AF907F90DF
:1018F0006F905F904F9008952FB7F8948091E60213
:101900009091E702A091E802B091E9022FBF809385
:10191000F2029093F302A093F402B093F5028AEEE0
:1019200092E00E94D70097FF26C02FB7F8948091CD
:10193000E6029091E702A091E802B091E9022FBF80
:101940004091F2025091F3026091F4027091F5021D
:10195000841B950BA60BB70B4091EE025091EF0242
:101960006091F0027091F10284179507A607B707FE
:10197000B0F28FEF9FEF0895CF93DF93FC012481A6
:101980003581232B71F0FB01DC01CD91DC9160816D
:101990007181CE010E94AE19009719F08C1B9D0B2E
:1019A00002C08FEF9FEFDF91CF9108958F929F92AA
:1019B000AF92BF92CF92DF92EF92FF920F931F935D
:1019C000CF93DF93CDB7DEB7A1970FB6F894DEBF04
:1019D0000FBECDBF6C01990FEE08FF08F7FE2BC0BC
:1019E0006DE28AEE92E00E9431018C0122273327BA
:1019F000A9012C193D094E095F0919A2CE01819652
:101A00007C019AE0892E912CA12CB12CCA01B9013C
:101A1000A50194010E946717605DF70162937F0141
:101A2000211531054105510589F7CF010E945A0B57
:101A3000800F911F1DC0A701960119A28E010F5D95
:101A40001F4F8AE0C82ED12CE12CF12CCA01B9011C
:101A5000A70196010E946717605DF80162938F01EC
:101A6000211531054105510589F7CF010E945A0B17
:101A7000A1960FB6F894DEBF0FBECDBFDF91CF9118
:101A80001F910F91FF90EF90DF90CF90BF90AF909C
:101A90009F908F9008953091E704313208F04BC049
:101AA0008091C3048111FCCF9091E60422E0209341
:101AB000C30421E02093C2042FEF2093C1041092AD
:101AC000C0043093BF04E6ECF4E0AFE9B4E020E0FA
:101AD000321721F041914D932F5FFACF10929E045F
:101AE00020919E04990F922B90939E0490919D04B7
:101AF000913061F410929D0490919E049093BB00EC
:101B00009091BC0093FDF8CF95EC01C095EE9093B9
:101B1000BC009091C3049230E1F39091C1049F3FC7
:101B200079F08091C104803241F08091C10480330A
:101B300031F084E005C081E003C082E001C083E0B1
:101B40001092C5041092E7041092C40408951092F4
:101B50009C0410929B041092C5041092E70410920A
:101B6000C30481E08093C20410929D0461E082E18D
:101B70000E94EA0561E083E10E94EA05E9EBF0E0FA
:101B800080818E7F808380818D7F808388E48093B5
:101B9000B80085E48093BC0088EA93E090939A04AF
:101BA0008093990489EA93E0909398048093970432
:101BB000089585E894E00E94EB048BE894E00E948D
:101BC000EB0481E994E00C94EB04CF93DF93CDB761
:101BD000DEB76E970FB6F894DEBF0FBECDBF789418
:101BE00084B5826084BD84B5816084BD85B5826022
:101BF00085BD85B5816085BD80916E0081608093D3
:101C00006E0010928100809181008260809381003B
:101C1000809181008160809381008091800081604B
:101C2000809380008091B10084608093B1008091A6
:101C3000B00081608093B00080917A0084608093CE
:101C40007A0080917A00826080937A0080917A0095
:101C5000816080937A0080917A00806880937A0016
:101C60001092C100E091FA02F091FB0282E08083C1
:101C7000E091F602F091F7021082E091F802F09103
:101C8000F9028FEC808310920203E091FE02F09142
:101C9000FF0286E08083E091FC02F091FD028081EA
:101CA00080618083E091FC02F091FD028081886078
:101CB0008083E091FC02F091FD0280818068808346
:101CC000E091FC02F091FD0280818F7D808382E3B0
:101CD00090E0A0E0B0E08093EE029093EF02A0933A
:101CE000F002B093F10260E080E10E94510661E0F1
:101CF0008DE00E94510661E08DE00E94EA0562E3FA
:101D000070E080E090E00E94040760E08DE00E94B7
:101D1000EA0564E670E080E090E00E94040761E07C
:101D20008DE00E94EA0562E370E080E090E00E94AE
:101D3000040760E08DE00E94EA0589E394E00E94D8
:101D4000EB0A8DEE93E00E94EB0A81EA93E00E9499
:101D5000EB0A0E94A70D81E08093C40487E2809380
:101D6000E6041092C5041092E7040E944B0D90E027
:101D70009093DD028093DC0202E010E010939C035C
:101D800000939B030E94A70D20E040E060E070E01C
:101D900083E993E00E9488078BE39DE00197F1F7C8
:101DA00084E090E09093A00380939F0310939E03A0
:101DB00000939D0340E063E070E083E993E00E94BC
:101DC000A9078BE496E40197F1F740E063E070E047
:101DD00083E993E00E94A9070BE113E0C801019792
:101DE000F1F740E063E070E083E993E00E94A90727
:101DF000C8010197F1F740E062E070E083E993E009
:101E00000E94A90740E068E270E083E993E00E9445
:101E1000C40760919F037091A003CB0184609093ED
:101E2000A00380939F036C6040E083E993E00E94ED
:101E3000C40740E061E070E083E993E00E94C407DA
:101E40008BEF98E10197F1F760919D0370919E03EC
:101E5000CB01826090939E0380939D03666040E077
:101E600083E993E00E94C4078BEFE82E88E1F82E07
:101E700080E10E94C105019711F461E001C060E0BA
:101E80008DE00E94EA0581EA93E00E947A0B89E3E3
:101E900094E00E947A0B8AEE92E00E94F900892B6E
:101EA00009F424C36BEB71E0CE0101960E94F004AB
:101EB0000E947C0C97FD1EC08A309105D9F08F835B
:101EC00018860D811E810F5F1F4FB801CE0101964C
:101ED0000E949904882361F329813A818D819E8132
:101EE000BE01695F7F4F820F931F0E94A7191E8357
:101EF0000D83DECFBE016F5F7F4F81E994E00E94CA
:101F00005F04CE0101960E94EB046BEB71E081E966
:101F100094E00E9440048111E9C260E571E0CE01C5
:101F200001960E94F004BE016F5F7F4F81E994E04B
:101F30000E94BC0C9C0140E050E061E974E0CE01DD
:101F400007960E940505BE01695F7F4F8BE894E00C
:101F50000E945F04CE0107960E94EB04CE01019619
:101F60000E94EB04009195041091960460E571E0E5
:101F7000CE0101960E94F004BE016F5F7F4F81E9A0
:101F800094E00E94BC0CAC014F5F5F4F980161E987
:101F900074E0CE0149960E940505CE0101960E948B
:101FA000EB0461E974E0CE0149960E946E0A882331
:101FB00009F44CC160E571E0CE0101960E94F00485
:101FC000BE016F5F7F4FCE0149960E94BC0C9C0101
:101FD00040E050E0BE01675E7F4FCE0107960E9451
:101FE0000505CE0107960E9435047093E5026093C3
:101FF000E402CE0107960E94EB04CE0101960E94F6
:10200000EB040D8D1E8D60E571E0CE0101960E94FE
:10201000F004BE016F5F7F4FCE0149960E94BC0C59
:10202000AC014F5F5F4F9801BE01675E7F4FCE01ED
:1020300043960E940505CE0101960E94EB04BE0165
:10204000675E7F4FCE0143960E946E0A882309F493
:10205000F9C060E571E0CE0101960E94F004BE0176
:102060006F5F7F4FCE0143960E94BC0C8C01CE0166
:1020700001960E94EB040F3F1F4F09F4CCC060E5AE
:1020800071E0CE0101960E94F004BE016F5F7F4FA8
:10209000CE0143960E94BC0C9C0140E050E0BE0182
:1020A0006D5E7F4FCE0107960E940505CE01079613
:1020B0000E9435047093E3026093E202CE0107961A
:1020C0000E94EB04CE0101960E94EB040F89188D4B
:1020D00060E571E0CE0101960E94F004BE016F5FE1
:1020E0007F4FCE0143960E94BC0CAC014F5F5F4F07
:1020F0009801BE016D5E7F4FCE010D960E940505D1
:10210000CE0101960E94EB04BE016D5E7F4FCE01B1
:102110000D960E946E0A882309F47AC060E571E08A
:10212000CE0101960E94F004BE016F5F7F4FCE0189
:102130000D960E94BC0C8C01CE0101960E94EB040E
:102140000F3F1F4F09F44DC060E571E0CE010196CD
:102150000E94F004BE016F5F7F4FCE010D960E947A
:10216000BC0C9C0140E050E0BE01635F7F4FCE019C
:1021700007960E940505CE0107960E9435047093CC
:10218000E1026093E002CE0107960E94EB04CE01CB
:1021900001960E94EB0409891A8960E571E0CE017D
:1021A00001960E94F004BE016F5F7F4FCE010D9635
:1021B0000E94BC0CAC014F5F5F4F9801BE01635F92
:1021C0007F4FCE0107960E940505BE01695F7F4FD4
:1021D00085E894E00E945F04CE0107960E94EB041C
:1021E00013C029893A8940E050E0BE01635F7F4F08
:1021F000CE0101960E940505CE0101960E9435048C
:102200007093E1026093E002CE0101960E94EB041C
:10221000CE010D9615C02F89388D40E050E0BE01EB
:102220006D5E7F4FCE0101960E940505CE0101969D
:102230000E9435047093E3026093E202CE0101969E
:102240000E94EB04CE0143960E94EB0462E571E02C
:102250008BE894E00E9440048823C9F01092A80300
:102260001092A70381EA93E00E94E60A10924004CC
:1022700010923F0489E394E00E94E60A1092F4036E
:102280001092F3038DEE93E00E94E60A17C167E512
:1022900071E08BE894E00E944004882319F08CE5FB
:1022A00091E00AC165E671E08BE894E00E94400489
:1022B000882329F06091E4027091E5020FC067E77E
:1022C00071E08BE894E00E944004882361F0609103
:1022D000E4027091E50271956195710981EA93E0DC
:1022E0000E94FA0BEBC06AE871E08BE894E00E9470
:1022F00040048111E3C069E971E08BE894E00E9439
:102300004004882369F18091E4029091E502909362
:10231000DF028093DE020091E2021091E3020115D8
:102320001105A1F4892B49F41092400410923F0446
:1023300089E394E00E94E60A0BC01092F403109225
:10234000F3038DEE93E00E94E60A06C0892B21F488
:10235000B80189E394E0C4CFB8018DEE93E0C0CF1B
:102360006CEA71E08BE894E00E944004882399F1C4
:1023700080EB91E00E945A0B8091E4029091E5027B
:102380000E94D60C86EB91E00E945A0B8091E202EB
:102390009091E3020E94D60C86EB91E00E945A0BCA
:1023A0008091E0029091E1020E94D60C86EB91E0D0
:1023B0000E945A0B4091890450918A0460918504CF
:1023C000709186048AEE92E00E949E0089EB91E073
:1023D0000E945A0B73C06CEB71E08BE894E00E9492
:1023E0004004882389F08091E4029091E502909363
:1023F0009A038093990320E041E060E070E083E974
:1024000093E00E9488075AC06AEC71E08BE894E080
:102410000E944004882359F040E061E070E083E9C5
:1024200093E00E94C407C7010197F1F747C064ED2C
:1024300071E08BE894E00E944004882359F040E06A
:1024400062E070E083E993E00E94C407C70101974E
:10245000F1F70FC06EED71E08BE894E00E9440044C
:102460008823A1F040E060EC70E083E993E00E94F3
:10247000C4074091890450918A0460918504709149
:10248000860483E993E00E949E0018C069EE71E023
:102490008BE894E00E944004882361F08091DC0284
:1024A0009091DD02892B19F483EF91E005C084E05F
:1024B00092E002C089E192E00E946C0B1092E5026A
:1024C0001092E4021092E3021092E2021092E102F2
:1024D0001092E00240E050E06BEB71E085E894E0A0
:1024E0000E94C004CE0149960E94EB040E94A00104
:1024F000BFCC2F923F924F925F926F927F928F92BA
:102500009F92AF92BF92CF92DF92EF92FF920F9382
:102510001F93CF93DF93CDB7DEB7CE54D1090FB65B
:10252000F894DEBF0FBECDBF6C012E966FAF2E9715
:102530002F964FAF2F972D963FAF2EAF2D975C0163
:1025400088E0A80EB11C8AE091E0F60191878087AF
:1025500084E0982E9386148A158A168A178A108E1C
:10256000118E128E138E148E158E168E178E412C90
:10257000512C90E8692E9FE3792E40A251A262A2CD
:1025800073A214A215A216A217A240A651A662A673
:1025900073A614A615A616A617A622242394312CDA
:1025A00035AA24AA8FEF87AB10AA11AA12AA13AAE0
:1025B00082E0848783E08587968635E0832E878650
:1025C00016AA14AE15AE16AE17AEC601805C9F4FAC
:1025D00027969FAF8EAF2797FC011082118212823F
:1025E0001382049629969FAF8EAF2997FC01108223
:1025F00011821282138204962B969FAF8EAF2B9777
:10260000FC014082518262827382F6011286108A36
:10261000118A128A138AC5010E948D06C5010E9483
:10262000A10AF601178216822D968EAD9FAD2D97C9
:102630009183808313830283F582E482EAE0F1E0F0
:10264000FA83E98381E08C831D861E861F86188AA3
:10265000198A1A8A1B8A1C8A1D8A1E8A1F8A188E4A
:10266000498E5A8E6B8E7C8E1D8E1E8E1F8E18A2EA
:1026700049A25AA26BA27CA21DA21EA21FA218A64A
:102680003EA62DA6FFEFF8AB19A61AA61BA61CA600
:102690002F968FAD2F978D832E969FAD2E979E836D
:1026A0009F8288861FA61DAA1EAA1FAA18AE19AE51
:1026B0001AAE1BAE1CAE21961CAE1DAE1EAE1FAEDA
:1026C000219725964CAE5DAE6EAE7FAE25971B82F0
:1026D00019861A861B861C86CE0101960E948D06DD
:1026E000CE0101960E94A10A8B81F60182878C811E
:1026F00083878D8184878E8185878F818687888572
:1027000087878985808B8A85818B8B85828B8C8559
:10271000838B8D859E85AF85B889848B958BA68BA1
:10272000B78B89899A89AB89BC89808F918FA28F59
:10273000B38F8D899E89AF89B88D848F958FA68F31
:10274000B78F898D9A8DAB8DBC8D80A391A3A2A3E9
:10275000B3A38D8D9E8DAF8DB8A184A395A3A6A3A1
:10276000B7A389A19AA1ABA1BCA180A791A7A2A759
:10277000B3A78DA19EA1AFA1B8A584A795A7A6A731
:10278000B7A789A59AA5ABA5BCA580AB91ABA2AB19
:10279000B3AB8DA59EA595AB84AB8FA586AB88A961
:1027A00087AB89A99AA991AF80AF8BA99CA993AF58
:1027B00082AF8DA99EA9AFA9B8AD84AF95AFA6AFE2
:1027C000B7AF89AD9AADABADBCAD2796EEADFFAD61
:1027D000279780839183A283B38321968CAD9DAD8F
:1027E000AEADBFAD21972996EEADFFAD29978083A1
:1027F0009183A283B38325968CAD9DADAEADBFAD65
:1028000025972B96EEADFFAD2B9780839183A28306
:10281000B383C25BDF4F0FB6F894DEBF0FBECDBFF0
:10282000DF91CF911F910F91FF90EF90DF90CF90AC
:10283000BF90AF909F908F907F906F905F904F90E0
:102840003F902F900895EF92FF920F931F93EAEE1F
:10285000F2E01382128288EE93E0A0E0B0E084837D
:102860009583A683B78324E231E03183208325EC6E
:1028700030E03587248724EC30E03787268720EC4A
:1028800030E0318B208B21EC30E0338B228B22EC3B
:1028900030E0358B248B26EC30E0378B268B118E85
:1028A000128E138E148EE7E8F3E013821282848373
:1028B0009583A683B78386E391E0918380836BEB56
:1028C00071E081E994E00E94F0046BEB71E08BE829
:1028D00094E00E94F0046BEB71E085E894E00E94C4
:1028E000F004EE24EA94FE2C08E010E027E030E04B
:1028F00046E050E062E070E089E394E00E947912E3
:1029000009E010E023E030E044E050E065E070E0F2
:102910008DEE93E00E9479129FE0E92EF12C0EE0FB
:1029200010E02AE030E04BE050E06CE070E081EA3B
:1029300093E00E947912E3E9F3E01382128288E4C3
:1029400091E09183808387E290E09583848317826E
:10295000168282E090E09387828784E090E09587FA
:1029600084871F910F91FF90EF9008951F93FC01B2
:1029700099278827BC01E89411911032E9F31930A6
:1029800010F01E30C8F31B3251F01D3249F4689428
:1029900006C00E94DD14610F711D811D911D1191F2
:1029A00010531A30B0F33EF4909580957095619570
:1029B0007F4F8F4F9F4F1F910895592F482F372FCB
:1029C000262F660F771F881F991F660F771F881F96
:1029D000991F620F731F841F951F660F771F881F33
:1029E000991F08950E94341508F481E00895E89431
:1029F00009C097FB3EF490958095709561957F4F47
:102A00008F4F9F4F9923A9F0F92F96E9BB279395F4
:102A1000F695879577956795B795F111F8CFFAF404
:102A2000BB0F11F460FF1BC06F5F7F4F8F4F9F4F35
:102A300016C0882311F096E911C0772321F09EE893
:102A4000872F762F05C0662371F096E8862F70E0F9
:102A500060E02AF09A95660F771F881FDAF7880FD3
:102A60009695879597F90895990F0008550FAA0B29
:102A7000E0E8FEEF16161706E807F907C0F0121691
:102A80001306E407F50798F0621B730B840B950B94
:102A900039F40A2661F0232B242B252B21F40895E9
:102AA0000A2609F4A140A6958FEF811D811D089586
:102AB0000E946B150C94DC150E94CE1538F00E9414
:102AC000D51520F0952311F00C94C5150C94CB1559
:102AD00011240C9410160E94ED1570F3959FC1F30C
:102AE000950F50E0551F629FF001729FBB27F00DBC
:102AF000B11D639FAA27F00DB11DAA1F649F662711
:102B0000B00DA11D661F829F2227B00DA11D621F5F
:102B1000739FB00DA11D621F839FA00D611D221F19
:102B2000749F3327A00D611D231F849F600D211DFD
:102B3000822F762F6A2F11249F5750409AF0F1F080
:102B400088234AF0EE0FFF1FBB1F661F771F881FE9
:102B500091505040A9F79E3F510580F00C94C51547
:102B60000C9410165F3FE4F3983ED4F38695779566
:102B70006795B795F795E7959F5FC1F7FE2B880F8F
:102B8000911D9695879597F9089597F99F6780E825
:102B900070E060E008959FEF80EC089500240A94AF
:102BA0001616170618060906089500240A94121628
:102BB0001306140605060895092E0394000C11F45B
:102BC000882352F0BB0F40F4BF2B11F460FF04C008
:102BD0006F5F7F4F8F4F9F4F089557FD9058440F61
:102BE000551F59F05F3F71F04795880F97FB991F6C
:102BF00061F09F3F79F08795089512161306140629
:102C0000551FF2CF4695F1DF08C0161617061806B5
:102C1000991FF1CF86957105610508940895E89490
:102C2000BB2766277727CB0197F908952F923F920C
:102C30004F925F926F927F928F929F92AF92BF92CC
:102C4000CF92DF92EF92FF920F931F93CF93DF9378
:102C5000CDB7DEB7CA1BDB0B0FB6F894DEBF0FBED5
:102C6000CDBF09942A88398848885F846E847D8422
:102C70008C849B84AA84B984C884DF80EE80FD8024
:102C80000C811B81AA81B981CE0FD11D0FB6F8949A
:102C9000DEBF0FBECDBFED0108955058BB27AA2758
:102CA0000E9465160C94DC150E94CE1538F00E9427
:102CB000D51520F039F49F3F19F426F40C94CB1568
:102CC0000EF4E095E7FB0C94C515E92F0E94ED1575
:102CD00058F3BA17620773078407950720F079F451
:102CE000A6F50C940F160EF4E0950B2EBA2FA02D1E
:102CF0000B01B90190010C01CA01A0011124FF27A9
:102D0000591B99F0593F50F4503E68F11A16F040A3
:102D1000A22F232F342F4427585FF3CF46953795A2
:102D20002795A795F0405395C9F77EF41F16BA0B67
:102D3000620B730B840BBAF09150A1F0FF0FBB1F15
:102D4000661F771F881FC2F70EC0BA0F621F731F5E
:102D5000841F48F4879577956795B795F7959E3FBB
:102D600008F0B0CF9395880F08F09927EE0F97954C
:102D7000879508950E94CE160C94DC150E94D515F7
:102D800058F00E94CE1540F029F45F3F29F00C94D2
:102D9000C51551110C9410160C94CB150E94ED150D
:102DA00068F39923B1F3552391F3951B550BBB277A
:102DB000AA2762177307840738F09F5F5F4F220FBF
:102DC000331F441FAA1FA9F335D00E2E3AF0E0E8B6
:102DD00032D091505040E695001CCAF72BD0FE2F00
:102DE00029D0660F771F881FBB1F26173707480794
:102DF000AB07B0E809F0BB0B802DBF01FF2793584C
:102E00005F4F3AF09E3F510578F00C94C5150C9435
:102E100010165F3FE4F3983ED4F386957795679557
:102E2000B795F7959F5FC9F7880F911D9695879580
:102E300097F90895E1E0660F771F881FBB1F62179F
:102E400073078407BA0720F0621B730B840BBA0B5D
:102E5000EE1F88F7E09508950E9433176894B1112A
:102E60000C94101608950E94F51588F09F5798F05D
:102E7000B92F9927B751B0F0E1F0660F771F881F7F
:102E8000991F1AF0BA95C9F714C0B13091F00E9499
:102E90000F16B1E008950C940F16672F782F88272E
:102EA000B85F39F0B93FCCF3869577956795B395C0
:102EB000D9F73EF490958095709561957F4F8F4F2F
:102EC0009F4F08950E94341508F48FEF0895A1E2F2
:102ED0001A2EAA1BBB1BFD010DC0AA1FBB1FEE1F94
:102EE000FF1FA217B307E407F50720F0A21BB30BDF
:102EF000E40BF50B661F771F881F991F1A9469F75B
:102F000060957095809590959B01AC01BD01CF01B6
:102F10000895052E97FB1EF400940E94A01757FDFC
:102F200007D00E94671707FC03D04EF40C94A0173B
:102F300050954095309521953F4F4F4F5F4F0895E5
:102F400090958095709561957F4F8F4F9F4F089515
:102F5000EE0FFF1F0590F491E02D09940F931F933E
:102F6000CF93DF938230910510F482E090E0E091FE
:102F7000EA04F091EB0420E030E0A0E0B0E030970C
:102F800019F1408151810281138148175907C8F016
:102F90008417950769F4109731F012960C931297E5
:102FA00013961C9327C00093EA041093EB0422C0ED
:102FB0002115310519F04217530718F49A01BD0184
:102FC000EF01DF01F801DBCF21153105F9F0281BF6
:102FD000390B2430310580F48A819B81611571059C
:102FE00021F0FB019383828304C09093EB048093D0
:102FF000EA04FE01329644C0FE01E20FF31F819302
:10300000919322503109398328833AC02091E804F2
:103010003091E904232B41F4209102013091030106
:103020003093E9042093E8042091000130910101DC
:103030002115310541F42DB73EB74091040150915F
:103040000501241B350BE091E804F091E904E21737
:10305000F307A0F42E1B3F0B2817390778F0AC01BB
:103060004E5F5F4F2417350748F04E0F5F1F509398
:10307000E9044093E8048193919302C0E0E0F0E01A
:10308000CF01DF91CF911F910F910895CF93DF93DF
:10309000009709F481C0FC01329713821282A0913B
:1030A000EA04B091EB04109781F420813181820F02
:1030B000931F2091E8043091E9042817390751F54E
:1030C000F093E904E093E80467C0ED0120E030E00C
:1030D000CE17DF0740F44A815B819E0141155105FF
:1030E000F1F0EA01F5CFD383C28340815181840F8F
:1030F000951FC817D90759F488819981840F951FA6
:103100000296918380838A819B8193838283211598
:10311000310529F4F093EB04E093EA043DC0E901A2
:10312000FB83EA8349915991C40FD51FEC17FD0722
:1031300061F480819181840F951F0296E901998342
:103140008883828193819B838A83E0E0F0E01296FA
:103150008D919C911397009719F0FD01DC01F7CF39
:103160008D919C9111979D012E5F3F4F820F931F70
:103170002091E8043091E9042817390769F4309761
:1031800029F41092EB041092EA0402C01382128216
:10319000B093E904A093E804DF91CF910895A0E0F3
:1031A000B0E0E5EDF8E10C941A16EC01009721F47B
:1031B000CB010E94AE17B4C0FC01E60FF71F9C01C3
:1031C00022503109E217F30708F4A8C0D9010D9184
:1031D0001C91119706171707B0F00530110508F478
:1031E0009BC0C80104978617970708F495C0025042
:1031F0001109061B170B019311936D937C93CF015B
:103200000E94461889C05B01A01AB10A4C01800EC9
:10321000911EA091EA04B091EB04612C712CE12C79
:10322000F12C109709F446C08D919C911197A81527
:10323000B905B1F56C0142E0C40ED11CCA14DB041F
:1032400078F14C018A189B08640142E0C40ED11C3D
:103250001296BC9012971396AC91B5E0CB16D104A0
:1032600040F0B282A38391828082D9016D937C93D6
:1032700009C00E5F1F4F800F911FF901918380835A
:10328000EB2DFA2FE114F10431F0D7011396FC93E2
:10329000EE93129741C0F093EB04E093EA043CC034
:1032A0006816790608F43C017D0112960D90BC91D8
:1032B000A02DB7CF8091E8049091E9048816990673
:1032C000E1F466167706C8F480910001909101013F
:1032D000009741F48DB79EB74091040150910501CC
:1032E000841B950BE817F907C8F4F093E904E09301
:1032F000E804F901718360830FC0CB010E94AE170F
:103300007C01009759F0A801BE010E949519CE01D9
:103310000E944618C70104C0CE0102C080E090E0C0
:10332000CDB7DEB7EEE00C943616FB01DC0102C02F
:1033300001900D9241505040D8F70895FB01DC01F7
:103340008D91019080190110D9F3990B0895FB011B
:10335000DC0101900D920020E1F70895FB015191ED
:103360005523A9F0BF01DC014D9145174111E1F74B
:1033700059F4CD010190002049F04D9140154111C3
:10338000C9F3FB014111EFCF81E090E0019708956F
:1033900010E0C2E7D0E004C0FE010E94A817219609
:0A33A000C337D107C9F7F894FFCF37
:1033AA000000EC04800000000000C1068D0619062A
:1033BA0031031B03E302C2028E026D021702D3011C
:1033CA000000000031019E00C8007E01F900D7000C
:1033DA00EB00000000000304D6033204AA03CE0364
:1033EA00BA03AB0300000000E2079E0032049D000E
:1033FA00230053544F500050494E47004C3A205036
:10340A006F6E6721004452415745525F474F5F54E0
:10341A004F5F4241434B004452415745525F474F29
:10342A005F544F5F46524F4E5400454C45564154E7
:10343A004F525F474F5F544F00454C455641544FDA
:10344A00525F5345545F535045454400434D440031
:10345A00434D443A20002020000D0A004C43445FAB
:10346A004241434B4C49474854004C43445F434C08
:10347A00454152004C43445F4649525354004C4321
:10348A00445F5345434F4E44004C43445F455849BB
:10349A005354004C43445F45584953543A20464FCD
:1034AA00554E44004C43445F45584953543A204EC4
:1034BA004F545F464F554E4400453A20696E766137
:1034CA006C696420636F6D6D616E644E616D650039
:1034DA00435553544F4D5F535445505045523A202B
:1034EA00476F20746F206F726967696E20646F6E10
:1034FA006500435553544F4D5F5354455050455200
:10350A003A20476F20746F20656E6420646F6E6581
:02351A000000AF
:00000001FF
