:100000000C9473000C949B000C949B000C94580768
:100010000C9458070C9458070C949B000C949B006C
:100020000C949B000C949B000C949B000C949B00E4
:100030000C949B000C949B000C949B000C949B00D4
:100040000C940E070C949B000C945F050C943905DE
:100050000C949B000C949B000C949B000C949B00B4
:100060000C9462070C949B00EB01F101F701FD0178
:10007000030209020F02400347034E0355035C03CA
:100080007303630373036A03000000002400270066
:100090002A0000000000250028002B0000000000BE
:1000A00023002600290004040404040404040202BA
:1000B00002020202030303030303010204081020E7
:1000C00040800102040810200102040810200000F2
:1000D0000008000201000003040700000000000007
:1000E00000004B12480D11241FBECFEFD8E0DEBF39
:1000F000CDBF24E0A6E1B2E001C01D92AD31B20750
:10010000E1F712E0A0E0B1E0E6E8FFE202C005900E
:100110000D92A631B107D9F710E0C2E7D0E004C0D4
:100120002197FE010E949615C137D107C9F70E9499
:10013000500D0C94B6170C9400000895CF92DF92E6
:10014000EF92FF920F931F93CF93DF936C017A018D
:100150008B01C0E0D0E0CE15DF0581F0D8016D91B4
:100160008D01D601ED91FC910190F081E02DC60149
:100170000995892B11F02196EECF7E01C701DF9101
:10018000CF911F910F91FF90EF90DF90CF90089546
:10019000FC01538D448D252F30E0842F90E0821B8D
:1001A000930B541710F0CF96089501970895FC0112
:1001B000918D828D981761F0828DDF01A80FB11D9E
:1001C0005D968C91928D9F5F9F73928F90E00895C2
:1001D0008FEF9FEF0895FC01918D828D981731F07C
:1001E000828DE80FF11D858D90E008958FEF9FEFD0
:1001F0000895FC01918D228D892F90E0805C9F4FA6
:10020000821B91098F739927089588E992E00E94D3
:10021000F90021E0892B09F420E0822F0895FC01E8
:10022000848DDF01A80FB11DA35ABF4F2C91848D7F
:1002300090E001968F739927848FA689B7892C93B4
:10024000A089B1898C91837080648C93938D848D07
:10025000981306C00288F389E02D80818F7D80830A
:100260000895EF92FF920F931F93CF93DF93EC01CA
:1002700081E0888F9B8D8C8D981305C0E889F98962
:10028000808185FD26C0F62E0B8D10E00F5F1F4F7D
:100290000F731127E02E8C8DE8120CC00FB607FCEF
:1002A000FACFE889F989808185FFF5CFCE010E94D8
:1002B0000F01F1CF8B8DFE01E80FF11DE35AFF4FC7
:1002C000F0829FB7F8940B8FEA89FB898081806266
:1002D0000AC09FB7F894EE89FF896083E889F9899D
:1002E00080818370806480839FBF81E090E0DF9194
:1002F000CF911F910F91FF90EF900895CF93DF93CF
:10030000EC01888D8823C9F0EA89FB89808185FD0D
:1003100005C0A889B9898C9186FD0FC00FB607FC6E
:10032000F5CF808185FFF2CFA889B9898C9185FFAF
:10033000EDCFCE010E940F01E7CFDF91CF9108955D
:1003400080E090E0892B29F00E94050181110C9436
:1003500000000895833081F028F4813099F08230D4
:10036000A1F008958730A9F08830B9F08430D1F435
:10037000809180008F7D03C0809180008F77809373
:100380008000089584B58F7702C084B58F7D84BDC9
:1003900008958091B0008F7703C08091B0008F7D69
:1003A0008093B0000895CF93DF9347705527662759
:1003B0007727FA013197EC01A881B981E730F1057F
:1003C00020F4EC5CFF4F0C9496151496ED91FC9183
:1003D000159761E029C01496ED91FC91159765E0A1
:1003E00023C01496ED91FC91159764E01DC01496FE
:1003F000ED91FC91159766E017C01496ED91FC9174
:10040000159762E011C01496ED91FC9115976AE082
:100410000BC01496ED91FC91159768E005C01496F9
:10042000ED91FC91159769E0DF91CF910994CF93FD
:10043000DF93EC01CB01BA0126E030E040E050E070
:100440000E947715623071058105910559F18CF490
:100450006115710581059105F1F061307105810526
:100460009105C1F5E881F9810480F581E02D65E011
:100470002DC0643071058105910511F1D4F065300E
:1004800071058105910531F5E881F9810480F581D7
:10049000E02D66E01BC0E881F9810480F581E02D44
:1004A00064E014C0E881F9810480F581E02D61E009
:1004B0000DC0E881F9810480F581E02D63E006C07C
:1004C000E881F9810480F581E02D62E0CE01DF91C1
:1004D000CF910994DF91CF910895437055276627F6
:1004E0007727DC01ED91FC910480F581E02D42300D
:1004F00051056105710571F04330510561057105C4
:1005000059F0413051056105710511F065E005C0F4
:1005100066E003C06AE001C069E00994CF93DF930D
:10052000EC01CB01BA0123E030E040E050E00E9452
:100530007715613071058105910581F06230710593
:100540008105910591F0672B682B692BC1F4E88137
:10055000F9810480F581E02D64E00DC0E881F98126
:100560000480F581E02D61E006C0E881F981048016
:10057000F581E02D62E0CE01DF91CF910994DF910A
:10058000CF9108954370552766277727DC01ED91B9
:10059000FC910480F581E02D423051056105710523
:1005A00071F0433051056105710559F04130510535
:1005B0006105710511F062E005C063E003C061E010
:1005C00001C060E00994CF93DF93EC01E881F981E9
:1005D0000480F581E02D8A81811102C060E001C0B4
:1005E00062E0CE010995E881F9810480F581E02D72
:1005F0008A81811102C061E001C063E0CE010995EA
:100600008CA59DA58230910538F0880F991F880F21
:10061000991F05970197F1F7E881F9810480F58129
:10062000E02D8A81811102C060E001C062E0CE014C
:10063000DF91CF910994CF93DF93EC0120E030E07C
:10064000A9016C897D898E899F890E945015181691
:100650001CF4E8A9F9A902C0EAA9FBA9DF91CF918E
:1006600009940F931F93DC011396EC910E2F10E069
:1006700009301105C0F5F801E55CFF4F0C949615A3
:10068000DC01ED91FC910084F185E02D29C0DC01B5
:10069000ED91FC910284F385E02D22C0DC01ED9107
:1006A000FC910484F585E02D1BC0DC01ED91FC91EB
:1006B0000684F785E02D14C0DC01ED91FC910088E3
:1006C000F189E02D0DC0DC01ED91FC910288F389E8
:1006D000E02D06C0DC01ED91FC910488F589E02D48
:1006E0001F910F9109941F910F91089585ED8093AB
:1006F000BC008091BC0084FDFCCF10925B02089589
:1007000040913702262F30E0240F311D2132310570
:10071000DCF420915B022430C9F4FC0180E090E01D
:10072000861758F4309137022191DC01A95EBD4F44
:10073000A30FB11D2C930196F3CF80913702680F60
:100740006093370280E0089581E0089582E0089583
:1007500008958FEF9FEF08958FEF9FEF0895809199
:10076000160290E09195819591090895CF93DF93BA
:10077000CB01EA01642F0E948003CE01DF91CF916B
:100780000895CF93DF931F92CDB7DEB7698361E001
:10079000CE0101960E94800381E090E00F90DF91EE
:1007A000CF91089580E090E00895FC0180819181CF
:1007B000009711F00C94A41260E070E0CB01089552
:1007C000FC0124813581232B31F421E06115710571
:1007D000A1F0FB0108C0FC018081918161157105C8
:1007E00031F421E0FC018081882339F005C00E94AA
:1007F0008C1721E0892B09F020E0822F0895CF93F8
:10080000DF93DC01ED91FC91EB01A881B981309778
:1008100011F01097C9F4109759F0EB012C813D812C
:10082000232B31F08C9190E091958195910914C022
:10083000309781F0DC0114968D919C911597892B4E
:1008400049F0808190E008C0BD01CF01DF91CF91D8
:100850000C948C1780E090E0DF91CF9108950F9376
:100860001F93CF93DF938C01EB01FC018081918179
:10087000009739F06881798161157105A1F40E94B2
:10088000341688819981F801918380838A819B81C4
:10089000938382838C819D819583848319821882BE
:1008A0001B821A820FC0F801428153812C813D8145
:1008B0004217530720F30E9495178C819D81F80100
:1008C000958384831D821C82DF91CF911F910F91AC
:1008D00008950F931F93CF93DF93EC018881998143
:1008E000009729F02A813B812617370788F48B016E
:1008F0006F5F7F4F0E94BD16009761F099838883D8
:100900001B830A832C813D81232B11F4FC0110826F
:1009100081E001C080E0DF91CF911F910F91089598
:10092000EF92FF920F931F93CF93DF93EC017B0124
:100930008A01BA010E9469042881398181110DC0A0
:100940002115310519F0C9010E9434161982188247
:100950001D821C821B821A8206C01D830C83B70174
:10096000C9010E949517CE01DF91CF911F910F9180
:10097000FF90EF900895FC01808191810C943416D2
:10098000FC01118210821382128215821482611579
:10099000710551F0FB0101900020E9F73197AF019B
:1009A000461B570B0C9490040895BF92CF92DF9290
:1009B000EF92FF920F931F93CF93DF937C016B0114
:1009C000EA0189012417350720F48D2FE901042F4E
:1009D000182F6DEF71E0C7010E94C004D601149674
:1009E0008D919C911597C817D907C0F5801791076D
:1009F00008F48C01D601ED91FC911197E00FF11FE5
:100A0000B08010826D917C916C0F7D1F6115710516
:100A100061F0FB0101900020E9F73197AF01461B1F
:100A2000570BC7010E94900413C0F7018081918188
:100A3000009711F00E943416D70111961C921E9255
:100A400015961C921E92149713961C921E92129742
:100A5000D601ED91FC91E00FF11FB082C701DF914B
:100A6000CF911F910F91FF90EF90DF90CF90BF90AB
:100A700008951F920F920FB60F9211242F933F9358
:100A80004F935F936F937F938F939F93AF93BF9396
:100A9000EF93FF9388E992E00E940F01FF91EF919D
:100AA000BF91AF919F918F917F916F915F914F9186
:100AB0003F912F910F900FBE0F901F9018951F928E
:100AC0000F920FB60F9211242F938F939F93EF9352
:100AD000FF93E091A802F091A9028081E091AE021B
:100AE000F091AF0282FD12C090818091B1028F5FC0
:100AF0008F732091B202821751F0E091B102F0E0C1
:100B0000E856FD4F958F8093B10201C08081FF911F
:100B1000EF919F918F912F910F900FBE0F901F908B
:100B20001895CF93DF93282F30E0F901E253FF4F60
:100B30008491F901E654FF4FD491F901EA55FF4F32
:100B4000C491CC2391F081110E94AA01EC2FF0E016
:100B5000EE0FFF1FE456FF4FA591B491EC91ED23EA
:100B600081E090E021F480E002C080E090E0DF913D
:100B7000CF9108951F93CF93DF93282F30E0F90191
:100B8000E253FF4F8491F901E654FF4FD491F901EC
:100B9000EA55FF4FC491CC23C1F0162F81110E945A
:100BA000AA01EC2FF0E0EE0FFF1FEE56FF4FA591CC
:100BB000B4919FB7F894111104C08C91D095D823AB
:100BC00002C0EC91DE2BDC939FBFDF91CF911F9190
:100BD0000895CF92DF92EF92FF920F931F93CF93DE
:100BE000DF93EC019B81943041F0983031F09330E9
:100BF00031F0963021F012E003C014E001C013E0A0
:100C00002496E12CF12CC62ED12C01E0C6010E2C2D
:100C100002C0959587950A94E2F76C8180FD602764
:100C200089910E94BA058FEFE81AF80AE11670F36D
:100C3000DF91CF911F910F91FF90EF90DF90CF90B8
:100C40000895CF93DF9390E0FC01E654FF4F249189
:100C5000FC01EA55FF4F8491882361F190E0880FF1
:100C6000991FFC01E857FF4FC591D491FC01EE5646
:100C7000FF4FA591B491611109C09FB7F894888185
:100C8000209582238883EC912E230BC0623061F47F
:100C90009FB7F8948881322F309583238883EC9115
:100CA0002E2B2C939FBF06C08FB7F894E8812E2B74
:100CB00028838FBFDF91CF910895CF93DF93FC01FD
:100CC0002381222359F1EC0161E084810E942106F5
:100CD00061E08D810E9421068B81843011F0883083
:100CE00039F461E08E810E94210661E08F8106C0A7
:100CF000833011F0863021F461E08E810E9421065C
:100D00008FA58F3F59F061E00E9421066EA581E01A
:100D100068278FA5DF91CF910C94BA05DF91CF9111
:100D20000895CF93DF93FC0123812223A9F0EC01E6
:100D30000190F081E02D0480F581E02D60E00995BF
:100D40008FA58F3F49F061E00E9421066EA58FA517
:100D5000DF91CF910C94BA05DF91CF9108953FB701
:100D6000F8948091840290918502A0918602B091BE
:100D7000870226B5A89B05C02F3F19F00196A11D3B
:100D8000B11D3FBFBA2FA92F982F8827820F911D21
:100D9000A11DB11DBC01CD0142E0660F771F881F68
:100DA000991F4A95D1F708958F929F92AF92BF9263
:100DB000CF92DF92EF92FF926B017C010E94AF060F
:100DC0004B015C01C114D104E104F104F1F00E9473
:100DD000AF06DC01CB0188199909AA09BB09883E35
:100DE0009340A105B10570F321E0C21AD108E108D2
:100DF000F10888EE880E83E0981EA11CB11CC11476
:100E0000D104E104F10419F7DDCFFF90EF90DF90FA
:100E1000CF90BF90AF909F908F9008951F920F92A8
:100E20000FB60F9211242F933F938F939F93AF93FD
:100E3000BF938091940290919502A0919602B091F7
:100E400097023091830223E0230F2D3720F401967F
:100E5000A11DB11D05C026E8230F0296A11DB11DDD
:100E6000209383028093940290939502A09396021C
:100E7000B09397028091840290918502A09186029E
:100E8000B09187020196A11DB11D809384029093B9
:100E90008502A0938602B0938702BF91AF919F9184
:100EA0008F913F912F910F900FBE0F901F9018952B
:100EB0001F920F920FB60F9211240F900FBE0F903A
:100EC0001F9018951F920F920FB60F9211242F9317
:100ED0003F934F935F936F937F938F939F93AF93C2
:100EE000BF93EF93FF938091B900887F803609F418
:100EF0009CC068F5883209F45BC090F4803109F435
:100F000054C038F4882309F4F2C0883009F44DC085
:100F1000F2C0883109F44CC0803209F45DC0EBC0E6
:100F2000803409F468C048F4803309F455C088332C
:100F300009F0E1C080935A02D4C0803509F44FC053
:100F4000883509F45DC0883409F0D5C0D2C088392D
:100F500009F4C3C0A8F4883709F467C038F48836A8
:100F600009F463C0803709F460C0C5C0883809F44B
:100F7000B4C0803909F45FC0803809F0BCC05BC0E0
:100F8000803B09F484C038F4803A09F466C0883A9A
:100F900009F47DC0B0C0803C09F4A3C0883C09F4CA
:100FA000A0C0883B09F486C0A6C08091800210C012
:100FB00090917F0280917E02981770F5E0917F02F8
:100FC00081E08E0F80937F02F0E0E25AFD4F808136
:100FD0008093BB0085EC82C080935A028AC0E09166
:100FE0007F0281E08E0F80937F028091BB00F0E052
:100FF000E25AFD4F808390917F0280917E026AC009
:10100000E0917F0281E08E0F80937F028091BB0090
:10101000F0E0E25AFD4F808380915D02811169C04A
:1010200081E080935C0284EA5DC083E080935B0290
:1010300010925902CFCF80915902803208F04DC0F2
:10104000E091590281E08E0F809359028091BB009C
:10105000F0E0E75CFD4F8083BDCF85EC8093BC0062
:1010600010925B0280915902803230F4E091590273
:10107000F0E0E75CFD4F10826091590270E089E377
:1010800092E0E0E0F0E009951092590234C084E06B
:1010900080935B021092380210923702E0E0F0E099
:1010A000099580913702811105C081E08093370254
:1010B00010921702E091380281E08E0F809338027F
:1010C000F0E0E95EFD4F80818093BB009091380293
:1010D00080913702981708F47DCF85E88093BC0093
:1010E0000AC085EC8093BC0010925B0204C0109291
:1010F0005A020E947603FF91EF91BF91AF919F91A9
:101100008F917F916F915F914F913F912F910F90B0
:101110000FBE0F901F9018954F925F926F927F9223
:101120008F929F92AF92BF92CF92DF92EF92FF92F7
:101130000F931F93CF93DF93EC01C888D988EA8877
:10114000FB888C859D85AE85BF85C81AD90AEA0AB9
:10115000FB0A6C897D898E899F899B01AC010E9465
:1011600046134B015C016C8D7D8D8E8D9F8D9B0197
:10117000AC010E943C149B01AC01C501B4010E946A
:10118000A8140E941A15C114D104E104F10499F4C1
:1011900062307105810591050CF076C01CA21DA27C
:1011A0001EA21FA21C8A1D8A1E8A1F8A1CAA1DAA93
:1011B0001EAA1FAAEDC00CA91DA92EA93FA91C1487
:1011C0001D041E041F04FCF410161106120613065B
:1011D0004CF46C157D058E059F054CF52A81211177
:1011E00053C025C0011511052105310509F44CC076
:1011F0006C157D058E059F050CF046C08A818823FD
:1012000009F442C036C01016110612061306ECF49B
:101210000027112798010C191D092E093F09601795
:101220007107820793071CF42A81222369F19B012D
:10123000AC0188279927DC01821B930BA40BB50B0B
:101240008CAB9DABAEABBFAB1FC00115110521052B
:101250003105D1F08824992454018C189D08AE08DA
:10126000BF08681579058A059B0574F48A81811188
:101270000BC030952095109501951F4F2F4F3F4F74
:101280000CAB1DAB2EAB3FAB8CA89DA8AEA8BFA8E6
:1012900081149104A104B10489F488AD99ADAAAD7B
:1012A000BBAD8CAF9DAFAEAFBFAF81E01C141D04D2
:1012B0001E041F040CF080E08A833FC0CCACDDAC80
:1012C000EEACFFACA7019601C701B6010E943C1429
:1012D0002B013C01C501B4010E94E71220E030E07F
:1012E00040E850E40E94461320E030E040E85FE32D
:1012F0000E943C149B01AC01C301B2010E94A814DE
:101300009B01AC01C701B6010E943B143B016C017B
:10131000FE01E05CFF4FE080F180028113819701C4
:10132000A8010E945015181614F473018601C70114
:10133000D8018CAF9DAFAEAFBFAF3FEF831A930A1A
:10134000A30AB30A8CAA9DAAAEAABFAACCACDDACF4
:10135000EEACFFACC701B6010E9421156CA37DA3C2
:101360008EA39FA3A701960160E074E284E799E44D
:101370000E94A8146C8B7D8B8E8B9F8B2A812111F0
:1013800007C0DC01CB01B0588C8B9D8BAE8BBF8B23
:10139000DF91CF911F910F91FF90EF90DF90CF9051
:1013A000BF90AF909F908F907F906F905F904F9085
:1013B00008958F929F92AF92BF92CF92DF92EF9259
:1013C000FF92CF93DF93EC018AE091E099838883C9
:1013D0006B831C861D861E861F86188A198A1A8AA8
:1013E0001B8A1C8A1D8A1E8A1F8AC12CD12C80E868
:1013F000E82E8FE3F82EC88ED98EEA8EFB8E1C8ED7
:101400001D8E1E8E1F8EC8A2D9A2EAA2FBA21CA20C
:101410001DA21EA21FA281E090E09DA78CA78FEFC6
:101420008FA718A619A61AA61BA64C832D8384E0A5
:101430008E8385E08F831EA61CAA1DAA1EAA1FAA42
:1014400018AE19AE1AAE1BAE1CAE1DAE1EAE1FAE50
:10145000FE01E05CFF4FC082D182E282F3821A82F9
:10146000188619861A861B86CE010E945D068C8C12
:101470009D8CAE8CBF8CA7019601C501B4010E9462
:10148000E012882349F16CA97DA98EA99FA90E9429
:10149000E712A50194010E9446130E941A156CAB35
:1014A0007DAB8EAB9FAB86E896E6A9E6B9E488AF44
:1014B00099AFAAAFBBAFCC8EDD8EEE8EFF8ECE0184
:1014C000DF91CF91FF90EF90DF90CF90BF90AF90E2
:1014D0009F908F900C948C08DF91CF91FF90EF90AC
:1014E000DF90CF90BF90AF909F908F900895CF9254
:1014F000DF92EF92FF92CF93DF93FC0144A155A1BD
:1015000066A177A1452B462B472B11F480E036C00E
:10151000EC010E94AF066B017C0188A599A5AAA5E4
:10152000BBA5B701A601481B590B6A0B7B0B8CA10D
:101530009DA1AEA1BFA1481759076A077B0730F3E9
:101540002A818C859D85AE85BF85222321F0019659
:10155000A11DB11D03C00197A109B1098C879D8709
:10156000AE87BF874C855D856E857F85CE010E94E5
:101570003103C8A6D9A6EAA6FBA681E0DF91CF91E8
:10158000FF90EF90DF90CF9008954F925F926F920F
:101590007F92AF92BF92CF92DF92EF92FF920F9322
:1015A0001F93CF93DF93EC015A018B019A01AB019A
:1015B0006C897D898E899F890E94E012882309F4B5
:1015C0004CC0C88CD98CEA8CFB8C2601370177FA89
:1015D000709477F87094A3019201B501C8010E943C
:1015E000E01287FD0BC0A7019601B501C8010E945A
:1015F000501518162CF06501780102C073016201C4
:1016000020E030E0A901C701B6010E94E01281117B
:1016100005C01CA21DA21EA21FA21BC0A7019601ED
:1016200060E074E284E799E40E94A8149F770E9426
:1016300021156CA37DA38EA39FA311E020E030E0D1
:10164000A901C701B6010E94501518160CF010E050
:101650001A83CC8ADD8AEE8AFF8ADF91CF911F91AF
:101660000F91FF90EF90DF90CF90BF90AF907F9061
:101670006F905F904F900895CF92DF92EF92FF921C
:10168000CF93DF93EC0120E030E04AE754E4688D2B
:10169000798D8A8D9B8D0E94E012882309F43FC0CA
:1016A00080E090E0AAE7B4E4888F998FAA8FBB8F7F
:1016B000FE01E05CFF4F80839183A283B3838CA9FA
:1016C0009DA9AEA9BFA9181619061A061B063CF556
:1016D0006C897D898E899F899B01AC010E9446138C
:1016E0006B017C016C8D7D8D8E8D9F8D9B01AC017E
:1016F0000E943C149B01AC01C701B6010E94A814D2
:101700000E941A156CAB7DAB8EAB9FABCE01DF9107
:10171000CF91FF90EF90DF90CF900C948C08DF91E9
:10172000CF91FF90EF90DF90CF900895CF93DF930C
:10173000FC01DB0112968C911297828313968C9197
:1017400013978383BF016C5F7F4FCD0104969F0188
:10175000285F3F4FEC014991CE01EB014993BE0157
:10176000C217D307B9F7CD0108969F01245F3F4FF9
:10177000EC014991CE01EB014993BE012C173D07C5
:10178000B9F71C964D915D916D917C911F9744879F
:1017900055876687778750964D915D916D917C91C5
:1017A0005397408B518B628B738B54964D915D9107
:1017B0006D917C915797448B558B668B778B5896A0
:1017C0004D915D916D917C915B97408F518F628FB0
:1017D000738F5C964D915D916D917C915F97448F75
:1017E000558F668F778F90964D915D916D917C911D
:1017F000939740A351A362A373A394964D915D91D7
:101800006D917C91979744A355A366A377A398966F
:101810004D915D916D917C919B9740A751A762A7D7
:1018200073A79C968D919C919D9795A784A79E9652
:101830008C919E9786A79F968C919F9787A7D0960D
:101840008D919C91D19791AB80ABD2968D919C91CB
:10185000D39793AB82ABD4964D915D916D917C9172
:10186000D79744AB55AB66AB77ABD8964D915D91AE
:101870006D917C91DB9740AF51AF62AF73AFDC9657
:101880004D915D916D917C91DF9744AF55AF66AFFF
:1018900077AFA05CBF4F4D915D916D917C91DF0161
:1018A000A05CBF4F4D935D936D937C931397CF01D5
:1018B000DF91CF910895CF93DF93FC01248135818F
:1018C000232B71F0FB01DC01CD91DC9160817181F2
:1018D000CE010E949C17009719F08C1B9D0B02C033
:1018E0008FEF9FEFDF91CF910895009769F0FC0192
:1018F00001900020E9F73197AF01481B590BBC015B
:1019000088E992E00C949E0080E090E00895CF93E7
:10191000DF930E94750CEC018BEF91E00E94750C37
:101920008C0F9D1FDF91CF9108958F929F92AF9260
:10193000BF92CF92DF92EF92FF920F931F93CF93BC
:10194000DF93CDB7DEB7A1970FB6F894DEBF0FBE19
:10195000CDBF6B017C0197FF2BC06DE288E992E05F
:101960000E9431018C0122273327A9012C193D093E
:101970004E095F0919A2CE0181967C019AE0892E59
:10198000912CA12CB12CCA01B901A50194010E948E
:101990005515605DF70162937F0121153105410501
:1019A000510589F7CF010E94750C800F911F1DC052
:1019B0009B01AC0119A28E010F5D1F4F8AE0C82E5A
:1019C000D12CE12CF12CCA01B901A70196010E948A
:1019D0005515605DF80162938F01211531054105B0
:1019E000510589F7CF010E94750CA1960FB6F894A6
:1019F000DEBF0FBECDBFDF91CF911F910F91FF9042
:101A0000EF90DF90CF90BF90AF909F908F90089510
:101A10002FB7F8948091940290919502A09196022C
:101A2000B09197022FBF8093A0029093A102A09340
:101A3000A202B093A30288E992E00E94D70097FF28
:101A400026C02FB7F8948091940290919502A091AE
:101A50009602B09197022FBF4091A0025091A1022F
:101A60006091A2027091A302841B950BA60BB70B89
:101A700040919C0250919D0260919E0270919F0244
:101A800084179507A607B707B0F28FEF9FEF089569
:101A900081E094E00E94BB0487E094E00C94BB04D6
:101AA000CF93DF93CDB7DEB7CC55D1090FB6F894FD
:101AB000DEBF0FBECDBF789484B5826084BD84B58F
:101AC000816084BD85B5826085BD85B5816085BD39
:101AD00080916E00816080936E00109281008091F1
:101AE0008100826080938100809181008160809379
:101AF0008100809180008160809380008091B1009E
:101B000084608093B1008091B00081608093B000C8
:101B100080917A00846080937A0080917A0082605C
:101B200080937A0080917A00816080937A0080911E
:101B30007A00806880937A001092C100E091A80238
:101B4000F091A90282E08083E091A402F091A502C5
:101B50001082E091A602F091A7028FEC8083109290
:101B6000B002E091AC02F091AD0286E08083E0919A
:101B7000AA02F091AB02808180618083E091AA0289
:101B8000F091AB02808188608083E091AA02F0919D
:101B9000AB02808180688083E091AA02F091AB0261
:101BA00080818F7D808382E390E0A0E0B0E080932D
:101BB0009C0290939D02A0939E02B0939F0260E0CE
:101BC00080E10E94210661E08DE00E94210661E033
:101BD0008DE00E94BA0562E370E080E090E00E9430
:101BE000D40660E08DE00E94BA0564E670E080E013
:101BF00090E00E94D40661E08DE00E94BA0562E3A5
:101C000070E080E090E00E94D40660E08DE00E94E9
:101C1000BA0560E08EE00E94210660E08FE00E943D
:101C2000210660E088E00E94210660E089E00E94D1
:101C3000210661E08AE00E94210661E087E00E94BF
:101C4000210661E083E00E94210661E08AE00E94B3
:101C5000BA0561E087E00E94BA0561E083E00E9476
:101C6000BA0589E793E00E943C0B85E393E00E946C
:101C70003C0B8DEB93E00E943C0B80E10E949105B0
:101C8000019711F461E001C060E08DE00E94BA05A7
:101C900088E992E00E94F900892B09F4D9C26DEF1E
:101CA00071E0CE0101960E94C0040E94080D97FDCC
:101CB00022C08A309105F9F026968FAF2697279695
:101CC0001FAE27970D811E810F5F1F4FB801CE01F8
:101CD00001960E946904882341F329813A818D810C
:101CE0009E81BE016B5B7F4F820F931F0E949517F1
:101CF0001E830D83DACFBE016F5F7F4F87E094E0D4
:101D00000E942F04CE0101960E94BB046DEF71E08A
:101D100087E094E00E94E00381119AC264E471E0DC
:101D2000CE0101960E94C004BE016F5F7F4F87E025
:101D300094E00E945B0C9C0140E050E067E074E09E
:101D4000CE018B5B9F4F0E94D504BE016B5B7F4F22
:101D500081E094E00E942F04CE018B5B9F4F0E9494
:101D6000BB04CE0101960E94BB0400910B041091AC
:101D70000C0464E471E0CE0101960E94C004BE012F
:101D80006F5F7F4F87E094E00E945B0CAC014F5F78
:101D90005F4F980167E074E0CE01895A9F4F0E941F
:101DA000D504CE0101960E94BB046D962EAD3FADC9
:101DB0006D9780910B0490910C042817390751F40A
:101DC00067E074E0CE01895A9F4F0E94FF03892B80
:101DD00009F469C064E471E0CE0101960E94C00478
:101DE000BE016F5F7F4FCE01895A9F4F0E945B0CEF
:101DF0009C0140E050E0BE01695A7F4FCE018B5BF1
:101E00009F4F0E94D504CE018B5B9F4F0E94D5034C
:101E10007093930260939202CE018B5B9F4F0E945E
:101E2000BB04CE0101960E94BB046D960EAD1FADA2
:101E30006D9764E471E0CE0101960E94C004BE017A
:101E40006F5F7F4FCE01895A9F4F0E945B0CAC01A0
:101E50004F5F5F4F9801BE01695A7F4FCE018F5A85
:101E60009F4F0E94D504CE0101960E94BB04679645
:101E70002EAD3FAD67976D968EAD9FAD6D972817D0
:101E8000390709F0E8C1BE01695A7F4FCE018F5A68
:101E90009F4F0E94FF03892B09F0DDC1CE018F5AAD
:101EA0009F4F0E94BB0466E471E081E094E00E94D1
:101EB000E003882319F08CE491E0B3C166E571E09A
:101EC00081E094E00E94E003882319F08BE591E023
:101ED000A8C164E671E081E094E00E94E0038823F9
:101EE00009F445C060E08AE00E94BA058EE00E94D5
:101EF0009105019769F440E050E068E473E48DEBEC
:101F000093E00E94C50A8DEB93E00E94770AEECF22
:101F100061E08AE00E94BA051092C9031092CA03D8
:101F20001092CB031092CC031092CD031092CE03EB
:101F30001092CF031092D0031092F1031092F2038B
:101F40001092F3031092F4031092E1031092E20353
:101F50001092E3031092E4031092D1031092D20383
:101F60001092D3031092D40386E791E05AC16EE831
:101F700071E081E094E00E94E0038823E9F060E0F2
:101F80008AE00E94BA058FE00E949105019769F4EA
:101F900040E050E068E473EC8DEB93E00E94C50AEA
:101FA0008DEB93E00E94770AEECF61E08AE00E9419
:101FB000BA0581EA91E035C16AEB71E081E094E015
:101FC0000E94E003882309F4E5C0E0909202F090BB
:101FD000930223E042E064E0CE0101960E94D90919
:101FE000E114F10419F569E773E0CE0101960E944E
:101FF000960B80918A0290918B02092E000CAA0BFD
:10200000BB0B8D879E87AF87B88B898B9A8BAB8BE9
:10201000BC8B1DAA1EAA1FAA18AE1DA21EA21FA21B
:1020200018A61D8A1E8A1F8A188E2BC081E0E8160A
:10203000F10439F565E373E0CE0101960E94960B39
:102040008091880290918902092E000CAA0BBB0B8B
:102050008D879E87AF87B88B898B9A8BAB8BBC8B18
:102060001DAA1EAA1FAA18AE1DA21EA21FA218A654
:102070001D8A1E8A1F8A188E23E0D22E39E0B32EC5
:1020800004C087E0D82E98E0B92E00918E021091FE
:102090008F020115110511F40CE211E060E08D2DA5
:1020A0000E94BA0580909002909091028114910450
:1020B00069F52801110F660877088B2D0E9491059C
:1020C000019779F4C301B2010E94E712AB01BC0190
:1020D000CE0101960E94C50ACE0101960E94770AA0
:1020E000ECCF1D861E861F86188A198A1A8A1B8ABB
:1020F0001C8A1DAA1EAA1FAA18AE1DA21EA21FA2DC
:1021000018A61D8A1E8A1F8A188E20C0092C000C52
:10211000AA08BB082801110F660877088D859E85DF
:10212000AF85B88988169906AA06BB0679F0C3015F
:10213000B2010E94E712AB01BC01CE0101960E94E0
:10214000C50ACE0101960E94770AE8CF61E08D2D85
:102150000E94BA05E114F10439F48D859E859093AF
:102160008B0280938A0209C0EA94EF2831F48D85AE
:102170009E85909389028093880289EC91E00E9469
:10218000750C6D857E858F8598890E94950C84EEEF
:1021900091E047C06EEE71E081E094E00E94E003C0
:1021A0008823E9F182EF91E00E94750C6091920220
:1021B00070919302072E000C880B990B0E94950CCE
:1021C00088EF91E00E94750C6091900270919102ED
:1021D000072E000C880B990B0E94950C88EF91E05C
:1021E0000E94750C60918E0270918F02072E000C78
:1021F000880B990B0E94950C88EF91E00E94750C5A
:1022000060918C0270918D02072E000C880B990B47
:102210000E94950C8BEF91E00E94750C04C08EEF2C
:1022200091E00E94870C10929302109292021092F9
:1022300091021092900210928F0210928E021092D0
:102240008D0210928C02CE01895A9F4F0E94BB04CE
:102250000E94A00112CD64E471E0CE0101960E94BB
:10226000C004BE016F5F7F4FCE018F5A9F4F0E9407
:102270005B0C8C01CE0101960E94BB040F3F1F4FE7
:1022800009F4D9C064E471E0CE0101960E94C00453
:10229000BE016F5F7F4FCE018F5A9F4F0E945B0C34
:1022A0009C0140E050E0BE016F5A7F4FCE018B5B36
:1022B0009F4F0E94D504CE018B5B9F4F0E94D50398
:1022C0007093910260939002CE018B5B9F4F0E94AE
:1022D000BB04CE0101960E94BB0467960EAD1FADF4
:1022E000679764E471E0CE0101960E94C004BE01CC
:1022F0006F5F7F4FCE018F5A9F4F0E945B0CAC01E6
:102300004F5F5F4F9801BE016F5A7F4FCE01855BD3
:102310009F4F0E94D504CE0101960E94BB04619696
:102320002EAD3FAD619767968EAD9FAD679728172D
:10233000390759F4BE016F5A7F4FCE01855B9F4F1D
:102340000E94FF03892B09F472C064E471E0CE019E
:1023500001960E94C004BE016F5F7F4FCE01855B76
:102360009F4F0E945B0C8C01CE0101960E94BB0422
:102370000F3F1F4F09F479C064E471E0CE0101966C
:102380000E94C004BE016F5F7F4FCE01855B9F4FEF
:102390000E945B0C9C0140E050E0BE01655B7F4FFA
:1023A000CE018B5B9F4F0E94D504CE018B5B9F4F6C
:1023B0000E94D50370938F0260938E02CE018B5BD7
:1023C0009F4F0E94BB04CE0101960E94BB04619600
:1023D0000EAD1FAD619764E471E0CE0101960E94DD
:1023E000C004BE016F5F7F4FCE01855B9F4F0E948F
:1023F0005B0CAC014F5F5F4F9801BE01655B7F4F87
:10240000CE018B5B9F4F0E94D504CE018B5B9F4F0B
:102410000E94D50370938D0260938C02CE018B5B7A
:102420009F4F0E94BB04CE0101960E94BB04CE01C7
:10243000855B9F4F17C067962EAD3FAD679740E015
:1024400050E0BE016F5A7F4FCE0101960E94D50425
:10245000CE0101960E94D503709391026093900281
:10246000CE0101960E94BB0419CD61962EAD3FAD01
:10247000619740E050E0BE01655B7F4FCE01019661
:102480000E94D504CE0101960E94D50370938F025D
:1024900060938E02C8CFE8E9F2E01382128288EEE0
:1024A00093E0A0E0B0E084839583A683B78324E221
:1024B00031E03183208325EC30E03587248724EC1C
:1024C00030E03787268720EC30E0318B208B21EC01
:1024D00030E0338B228B22EC30E0358B248B26ECE2
:1024E00030E0378B268B118E128E138E148EEDE01A
:1024F000F4E01382128284839583A683B78386E3F4
:1025000091E0918380836DEF71E087E094E00E9419
:10251000C0046DEF71E081E094E00E94C0042CE003
:102520004BE061E08DEB93E00E94D90922E046E0A8
:1025300061E089E793E00E94D90925E044E061E089
:1025400085E393E00C94D9091F93FC019927882710
:10255000BC01E89411911032E9F3193010F01E30EB
:10256000C8F31B3251F01D3249F4689406C00E9432
:10257000CB12610F711D811D911D119110531A30E5
:10258000B0F33EF490958095709561957F4F8F4F95
:102590009F4F1F910895592F482F372F262F660FD1
:1025A000771F881F991F660F771F881F991F620F5B
:1025B000731F841F951F660F771F881F991F08952B
:1025C0000E94221308F481E00895E89409C097FB63
:1025D0003EF490958095709561957F4F8F4F9F4FFA
:1025E0009923A9F0F92F96E9BB279395F69587953E
:1025F00077956795B795F111F8CFFAF4BB0F11F401
:1026000060FF1BC06F5F7F4F8F4F9F4F16C08823A7
:1026100011F096E911C0772321F09EE8872F762FDD
:1026200005C0662371F096E8862F70E060E02AF01E
:102630009A95660F771F881FDAF7880F969587950A
:1026400097F90895990F0008550FAA0BE0E8FEEFDF
:1026500016161706E807F907C0F012161306E40766
:10266000F50798F0621B730B840B950B39F40A265F
:1026700061F0232B242B252B21F408950A2609F43D
:10268000A140A6958FEF811D811D08950E945913C9
:102690000C94CA130E94BC1338F00E94C31320F09C
:1026A000952311F00C94B3130C94B91311240C94CA
:1026B000FE130E94DB1370F3959FC1F3950F50E05A
:1026C000551F629FF001729FBB27F00DB11D639FE4
:1026D000AA27F00DB11DAA1F649F6627B00DA11D8A
:1026E000661F829F2227B00DA11D621F739FB00D30
:1026F000A11D621F839FA00D611D221F749F3327A0
:10270000A00D611D231F849F600D211D822F762F38
:102710006A2F11249F5750409AF0F1F088234AF015
:10272000EE0FFF1FBB1F661F771F881F9150504081
:10273000A9F79E3F510580F00C94B3130C94FE133F
:102740005F3FE4F3983ED4F3869577956795B79508
:10275000F795E7959F5FC1F7FE2B880F911D969522
:10276000879597F9089597F99F6780E870E060E092
:1027700008959FEF80EC089500240A94161617061A
:1027800018060906089500240A9412161306140662
:1027900005060895092E0394000C11F4882352F0C5
:1027A000BB0F40F4BF2B11F460FF04C06F5F7F4F7D
:1027B0008F4F9F4F089557FD9058440F551F59F064
:1027C0005F3F71F04795880F97FB991F61F09F3F1E
:1027D00079F087950895121613061406551FF2CF47
:1027E0004695F1DF08C0161617061806991FF1CF97
:1027F00086957105610508940895E894BB276627BE
:102800007727CB0197F908952F923F924F925F92CD
:102810006F927F928F929F92AF92BF92CF92DF92F0
:10282000EF92FF920F931F93CF93DF93CDB7DEB755
:10283000CA1BDB0B0FB6F894DEBF0FBECDBF0994E9
:102840002A88398848885F846E847D848C849B8440
:10285000AA84B984C884DF80EE80FD800C811B814E
:10286000AA81B981CE0FD11D0FB6F894DEBF0FBE7D
:10287000CDBFED0108955058BB27AA270E945314DD
:102880000C94CA130E94BC1338F00E94C31320F0AA
:1028900039F49F3F19F426F40C94B9130EF4E09523
:1028A000E7FB0C94B313E92F0E94DB1358F3BA171C
:1028B000620773078407950720F079F4A6F50C9456
:1028C000FD130EF4E0950B2EBA2FA02D0B01B901CC
:1028D00090010C01CA01A0011124FF27591B99F096
:1028E000593F50F4503E68F11A16F040A22F232FA2
:1028F000342F4427585FF3CF469537952795A795F2
:10290000F0405395C9F77EF41F16BA0B620B730B98
:10291000840BBAF09150A1F0FF0FBB1F661F771F09
:10292000881FC2F70EC0BA0F621F731F841F48F4BE
:10293000879577956795B795F7959E3F08F0B0CF47
:102940009395880F08F09927EE0F9795879508952E
:102950000E94BC140C94CA130E94C31358F00E9426
:10296000BC1340F029F45F3F29F00C94B3135111CC
:102970000C94FE130C94B9130E94DB1368F3992393
:10298000B1F3552391F3951B550BBB27AA2762176B
:102990007307840738F09F5F5F4F220F331F441F78
:1029A000AA1FA9F335D00E2E3AF0E0E832D09150AC
:1029B0005040E695001CCAF72BD0FE2F29D0660F99
:1029C000771F881FBB1F261737074807AB07B0E8DC
:1029D00009F0BB0B802DBF01FF2793585F4F3AF0E2
:1029E0009E3F510578F00C94B3130C94FE135F3F97
:1029F000E4F3983ED4F3869577956795B795F79568
:102A00009F5FC9F7880F911D9695879597F908954F
:102A1000E1E0660F771F881FBB1F621773078407EB
:102A2000BA0720F0621B730B840BBA0BEE1F88F7FA
:102A3000E09508950E9421156894B1110C94FE133D
:102A400008950E94E31388F09F5798F0B92F9927B3
:102A5000B751B0F0E1F0660F771F881F991F1AF089
:102A6000BA95C9F714C0B13091F00E94FD13B1E0DE
:102A700008950C94FD13672F782F8827B85F39F0DD
:102A8000B93FCCF3869577956795B395D9F73EF422
:102A900090958095709561957F4F8F4F9F4F0895CA
:102AA0000E94221308F48FEF0895A1E21A2EAA1BA8
:102AB000BB1BFD010DC0AA1FBB1FEE1FFF1FA217EE
:102AC000B307E407F50720F0A21BB30BE40BF50BEB
:102AD000661F771F881F991F1A9469F76095709574
:102AE000809590959B01AC01BD01CF010895052E05
:102AF00097FB1EF400940E948E1557FD07D00E948C
:102B0000551507FC03D04EF40C948E155095409546
:102B1000309521953F4F4F4F5F4F08959095809589
:102B2000709561957F4F8F4F9F4F0895EE0FFF1F58
:102B30000590F491E02D09940F931F93CF93DF93A9
:102B40008230910510F482E090E0E0911B04F09156
:102B50001C0420E030E0A0E0B0E0309719F14081A3
:102B600051810281138148175907C8F084179507CE
:102B700069F4109731F012960C93129713961C93E8
:102B800027C000931B0410931C0422C0211531059B
:102B900019F04217530718F49A01BD01EF01DF0144
:102BA000F801DBCF21153105F9F0281B390B243052
:102BB000310580F48A819B816115710521F0FB014B
:102BC0009383828304C090931C0480931B04FE01B2
:102BD000329644C0FE01E20FF31F8193919322507D
:102BE0003109398328833AC02091190430911A049D
:102BF000232B41F4209102013091030130931A04F8
:102C00002093190420910001309101012115310513
:102C100041F42DB73EB74091040150910501241BAA
:102C2000350BE0911904F0911A04E217F307A0F4B0
:102C30002E1B3F0B2817390778F0AC014E5F5F4F12
:102C40002417350748F04E0F5F1F50931A04409326
:102C500019048193919302C0E0E0F0E0CF01DF918D
:102C6000CF911F910F910895CF93DF93009709F4AF
:102C700081C0FC01329713821282A0911B04B09193
:102C80001C04109781F420813181820F931F2091C1
:102C9000190430911A042817390751F5F0931A04D2
:102CA000E093190467C0ED0120E030E0CE17DF07A4
:102CB00040F44A815B819E0141155105F1F0EA0122
:102CC000F5CFD383C28340815181840F951FC817EC
:102CD000D90759F488819981840F951F02969183B1
:102CE00080838A819B81938382832115310529F416
:102CF000F0931C04E0931B043DC0E901FB83EA83CD
:102D000049915991C40FD51FEC17FD0761F48081DB
:102D10009181840F951F0296E901998388838281AE
:102D200093819B838A83E0E0F0E012968D919C91E1
:102D30001397009719F0FD01DC01F7CF8D919C915D
:102D400011979D012E5F3F4F820F931F2091190411
:102D500030911A042817390769F4309729F4109232
:102D60001C0410921B0402C013821282B0931A0436
:102D7000A0931904DF91CF910895A0E0B0E0E3ECB7
:102D8000F6E10C940814EC01009721F4CB010E94A9
:102D90009C15B4C0FC01E60FF71F9C0122503109BD
:102DA000E217F30708F4A8C0D9010D911C911197FF
:102DB00006171707B0F00530110508F49BC0C801CD
:102DC00004978617970708F495C002501109061B4F
:102DD000170B019311936D937C93CF010E943416CE
:102DE00089C05B01A01AB10A4C01800E911EA0910E
:102DF0001B04B0911C04612C712CE12CF12C109758
:102E000009F446C08D919C911197A815B905B1F5AB
:102E10006C0142E0C40ED11CCA14DB0478F14C01F1
:102E20008A189B08640142E0C40ED11C1296BC9023
:102E300012971396AC91B5E0CB16D10440F0B28254
:102E4000A38391828082D9016D937C9309C00E5F28
:102E50001F4F800F911FF90191838083EB2DFA2F73
:102E6000E114F10431F0D7011396FC93EE9312971D
:102E700041C0F0931C04E0931B043CC06816790623
:102E800008F43C017D0112960D90BC91A02DB7CFA6
:102E90008091190490911A0488169906E1F4661637
:102EA0007706C8F48091000190910101009741F4E8
:102EB0008DB79EB74091040150910501841B950B7D
:102EC000E817F907C8F4F0931A04E0931904F9011C
:102ED000718360830FC0CB010E949C157C01009719
:102EE00059F0A801BE010E948317CE010E9434163A
:102EF000C70104C0CE0102C080E090E0CDB7DEB7CC
:102F0000EEE00C942414FB01DC0102C001900D9250
:102F100041505040D8F70895FB01DC018D9101909C
:102F200080190110D9F3990B0895FB01DC01019080
:102F30000D920020E1F70895FB0151915523A9F06E
:102F4000BF01DC014D9145174111E1F759F4CD0165
:102F50000190002049F04D9140154111C9F3FB014A
:102F60004111EFCF81E090E00197089510E0C2E7B2
:102F7000D0E004C0FE010E9496152196C337D10708
:062F8000C9F7F894FFCF31
:102F860000001D0480000000000091065D06E905B2
:102F960031031B03E302C2028E026D021702D30144
:102FA6000000000031019E00C8007E01F900D70034
:102FB600EB0000000000C103B603D203A803AF0371
:102FC600AC03A90323005245534554004C3A205202
:102FD60065736574210050494E47004C3A20506F86
:102FE6006E6721004452415745525F474F5F544F29
:102FF6005F4241434B004452415745525F474F5F42
:10300600544F5F4241434B3A20446F6E6500445231
:10301600415745525F474F5F544F5F46524F4E549C
:10302600004452415745525F474F5F544F5F4652E7
:103036004F4E543A20446F6E6500454C45564154F8
:103046004F525F474F5F544F00454C455641544FD2
:10305600525F474F5F544F3A20446F6E6520776941
:103066007468200020706F736974696F6E00434D39
:103076004400434D443A20002020000D0A00453A02
:1030860020696E76616C696420636F6D6D616E6434
:063096004E616D650000B3
:00000001FF
